{
  "_format": "hh-sol-artifact-1",
  "contractName": "EduBoxERC20",
  "sourceName": "contracts/EduBoxERC20.sol",
  "abi": [
    {
      "inputs": [
        {
          "internalType": "string",
          "name": "name",
          "type": "string"
        },
        {
          "internalType": "string",
          "name": "symbol",
          "type": "string"
        },
        {
          "internalType": "uint8",
          "name": "tokenDecimals",
          "type": "uint8"
        },
        {
          "internalType": "uint256",
          "name": "initialSupply",
          "type": "uint256"
        },
        {
          "internalType": "uint256",
          "name": "_cap",
          "type": "uint256"
        },
        {
          "internalType": "address",
          "name": "owner",
          "type": "address"
        },
        {
          "internalType": "string",
          "name": "_logoURL",
          "type": "string"
        },
        {
          "internalType": "string",
          "name": "_website",
          "type": "string"
        },
        {
          "internalType": "string",
          "name": "_socialMediaLinks",
          "type": "string"
        }
      ],
      "stateMutability": "nonpayable",
      "type": "constructor"
    },
    {
      "anonymous": false,
      "inputs": [
        {
          "indexed": true,
          "internalType": "address",
          "name": "owner",
          "type": "address"
        },
        {
          "indexed": true,
          "internalType": "address",
          "name": "spender",
          "type": "address"
        },
        {
          "indexed": false,
          "internalType": "uint256",
          "name": "value",
          "type": "uint256"
        }
      ],
      "name": "Approval",
      "type": "event"
    },
    {
      "anonymous": false,
      "inputs": [
        {
          "indexed": true,
          "internalType": "address",
          "name": "account",
          "type": "address"
        },
        {
          "indexed": false,
          "internalType": "bool",
          "name": "status",
          "type": "bool"
        }
      ],
      "name": "Blacklisted",
      "type": "event"
    },
    {
      "anonymous": false,
      "inputs": [
        {
          "indexed": true,
          "internalType": "address",
          "name": "newCollector",
          "type": "address"
        }
      ],
      "name": "FeeCollectorUpdated",
      "type": "event"
    },
    {
      "anonymous": false,
      "inputs": [
        {
          "indexed": false,
          "internalType": "uint256",
          "name": "amount",
          "type": "uint256"
        }
      ],
      "name": "MaxTransferAmountUpdated",
      "type": "event"
    },
    {
      "anonymous": false,
      "inputs": [
        {
          "indexed": false,
          "internalType": "string",
          "name": "logoURL",
          "type": "string"
        },
        {
          "indexed": false,
          "internalType": "string",
          "name": "website",
          "type": "string"
        },
        {
          "indexed": false,
          "internalType": "string",
          "name": "socialMediaLinks",
          "type": "string"
        }
      ],
      "name": "MetadataUpdated",
      "type": "event"
    },
    {
      "anonymous": false,
      "inputs": [
        {
          "indexed": true,
          "internalType": "address",
          "name": "previousOwner",
          "type": "address"
        },
        {
          "indexed": true,
          "internalType": "address",
          "name": "newOwner",
          "type": "address"
        }
      ],
      "name": "OwnershipTransferred",
      "type": "event"
    },
    {
      "anonymous": false,
      "inputs": [
        {
          "indexed": false,
          "internalType": "address",
          "name": "account",
          "type": "address"
        }
      ],
      "name": "Paused",
      "type": "event"
    },
    {
      "anonymous": false,
      "inputs": [
        {
          "indexed": true,
          "internalType": "address",
          "name": "from",
          "type": "address"
        },
        {
          "indexed": true,
          "internalType": "address",
          "name": "to",
          "type": "address"
        },
        {
          "indexed": false,
          "internalType": "uint256",
          "name": "value",
          "type": "uint256"
        }
      ],
      "name": "Transfer",
      "type": "event"
    },
    {
      "anonymous": false,
      "inputs": [
        {
          "indexed": false,
          "internalType": "bool",
          "name": "enabled",
          "type": "bool"
        },
        {
          "indexed": false,
          "internalType": "uint256",
          "name": "percentage",
          "type": "uint256"
        }
      ],
      "name": "TransferFeeUpdated",
      "type": "event"
    },
    {
      "anonymous": false,
      "inputs": [
        {
          "indexed": false,
          "internalType": "address",
          "name": "account",
          "type": "address"
        }
      ],
      "name": "Unpaused",
      "type": "event"
    },
    {
      "inputs": [
        {
          "internalType": "address",
          "name": "owner",
          "type": "address"
        },
        {
          "internalType": "address",
          "name": "spender",
          "type": "address"
        }
      ],
      "name": "allowance",
      "outputs": [
        {
          "internalType": "uint256",
          "name": "",
          "type": "uint256"
        }
      ],
      "stateMutability": "view",
      "type": "function"
    },
    {
      "inputs": [
        {
          "internalType": "address",
          "name": "spender",
          "type": "address"
        },
        {
          "internalType": "uint256",
          "name": "amount",
          "type": "uint256"
        }
      ],
      "name": "approve",
      "outputs": [
        {
          "internalType": "bool",
          "name": "",
          "type": "bool"
        }
      ],
      "stateMutability": "nonpayable",
      "type": "function"
    },
    {
      "inputs": [
        {
          "internalType": "address",
          "name": "account",
          "type": "address"
        }
      ],
      "name": "balanceOf",
      "outputs": [
        {
          "internalType": "uint256",
          "name": "",
          "type": "uint256"
        }
      ],
      "stateMutability": "view",
      "type": "function"
    },
    {
      "inputs": [
        {
          "internalType": "address",
          "name": "",
          "type": "address"
        }
      ],
      "name": "blacklist",
      "outputs": [
        {
          "internalType": "bool",
          "name": "",
          "type": "bool"
        }
      ],
      "stateMutability": "view",
      "type": "function"
    },
    {
      "inputs": [
        {
          "internalType": "uint256",
          "name": "amount",
          "type": "uint256"
        }
      ],
      "name": "burn",
      "outputs": [],
      "stateMutability": "nonpayable",
      "type": "function"
    },
    {
      "inputs": [
        {
          "internalType": "address",
          "name": "account",
          "type": "address"
        },
        {
          "internalType": "uint256",
          "name": "amount",
          "type": "uint256"
        }
      ],
      "name": "burnFrom",
      "outputs": [],
      "stateMutability": "nonpayable",
      "type": "function"
    },
    {
      "inputs": [],
      "name": "cap",
      "outputs": [
        {
          "internalType": "uint256",
          "name": "",
          "type": "uint256"
        }
      ],
      "stateMutability": "view",
      "type": "function"
    },
    {
      "inputs": [],
      "name": "decimals",
      "outputs": [
        {
          "internalType": "uint8",
          "name": "",
          "type": "uint8"
        }
      ],
      "stateMutability": "view",
      "type": "function"
    },
    {
      "inputs": [
        {
          "internalType": "address",
          "name": "spender",
          "type": "address"
        },
        {
          "internalType": "uint256",
          "name": "subtractedValue",
          "type": "uint256"
        }
      ],
      "name": "decreaseAllowance",
      "outputs": [
        {
          "internalType": "bool",
          "name": "",
          "type": "bool"
        }
      ],
      "stateMutability": "nonpayable",
      "type": "function"
    },
    {
      "inputs": [],
      "name": "feeCollector",
      "outputs": [
        {
          "internalType": "address",
          "name": "",
          "type": "address"
        }
      ],
      "stateMutability": "view",
      "type": "function"
    },
    {
      "inputs": [
        {
          "internalType": "address",
          "name": "spender",
          "type": "address"
        },
        {
          "internalType": "uint256",
          "name": "addedValue",
          "type": "uint256"
        }
      ],
      "name": "increaseAllowance",
      "outputs": [
        {
          "internalType": "bool",
          "name": "",
          "type": "bool"
        }
      ],
      "stateMutability": "nonpayable",
      "type": "function"
    },
    {
      "inputs": [],
      "name": "logoURL",
      "outputs": [
        {
          "internalType": "string",
          "name": "",
          "type": "string"
        }
      ],
      "stateMutability": "view",
      "type": "function"
    },
    {
      "inputs": [],
      "name": "maxTransferAmount",
      "outputs": [
        {
          "internalType": "uint256",
          "name": "",
          "type": "uint256"
        }
      ],
      "stateMutability": "view",
      "type": "function"
    },
    {
      "inputs": [
        {
          "internalType": "address",
          "name": "to",
          "type": "address"
        },
        {
          "internalType": "uint256",
          "name": "amount",
          "type": "uint256"
        }
      ],
      "name": "mint",
      "outputs": [],
      "stateMutability": "nonpayable",
      "type": "function"
    },
    {
      "inputs": [],
      "name": "name",
      "outputs": [
        {
          "internalType": "string",
          "name": "",
          "type": "string"
        }
      ],
      "stateMutability": "view",
      "type": "function"
    },
    {
      "inputs": [],
      "name": "owner",
      "outputs": [
        {
          "internalType": "address",
          "name": "",
          "type": "address"
        }
      ],
      "stateMutability": "view",
      "type": "function"
    },
    {
      "inputs": [],
      "name": "pause",
      "outputs": [],
      "stateMutability": "nonpayable",
      "type": "function"
    },
    {
      "inputs": [],
      "name": "paused",
      "outputs": [
        {
          "internalType": "bool",
          "name": "",
          "type": "bool"
        }
      ],
      "stateMutability": "view",
      "type": "function"
    },
    {
      "inputs": [],
      "name": "renounceOwnership",
      "outputs": [],
      "stateMutability": "nonpayable",
      "type": "function"
    },
    {
      "inputs": [
        {
          "internalType": "address",
          "name": "account",
          "type": "address"
        },
        {
          "internalType": "bool",
          "name": "status",
          "type": "bool"
        }
      ],
      "name": "setBlacklist",
      "outputs": [],
      "stateMutability": "nonpayable",
      "type": "function"
    },
    {
      "inputs": [
        {
          "internalType": "address",
          "name": "newCollector",
          "type": "address"
        }
      ],
      "name": "setFeeCollector",
      "outputs": [],
      "stateMutability": "nonpayable",
      "type": "function"
    },
    {
      "inputs": [
        {
          "internalType": "uint256",
          "name": "amount",
          "type": "uint256"
        }
      ],
      "name": "setMaxTransferAmount",
      "outputs": [],
      "stateMutability": "nonpayable",
      "type": "function"
    },
    {
      "inputs": [
        {
          "internalType": "bool",
          "name": "enabled",
          "type": "bool"
        },
        {
          "internalType": "uint256",
          "name": "percentage",
          "type": "uint256"
        }
      ],
      "name": "setTransferFee",
      "outputs": [],
      "stateMutability": "nonpayable",
      "type": "function"
    },
    {
      "inputs": [],
      "name": "socialMediaLinks",
      "outputs": [
        {
          "internalType": "string",
          "name": "",
          "type": "string"
        }
      ],
      "stateMutability": "view",
      "type": "function"
    },
    {
      "inputs": [],
      "name": "symbol",
      "outputs": [
        {
          "internalType": "string",
          "name": "",
          "type": "string"
        }
      ],
      "stateMutability": "view",
      "type": "function"
    },
    {
      "inputs": [],
      "name": "totalSupply",
      "outputs": [
        {
          "internalType": "uint256",
          "name": "",
          "type": "uint256"
        }
      ],
      "stateMutability": "view",
      "type": "function"
    },
    {
      "inputs": [
        {
          "internalType": "address",
          "name": "recipient",
          "type": "address"
        },
        {
          "internalType": "uint256",
          "name": "amount",
          "type": "uint256"
        }
      ],
      "name": "transfer",
      "outputs": [
        {
          "internalType": "bool",
          "name": "",
          "type": "bool"
        }
      ],
      "stateMutability": "nonpayable",
      "type": "function"
    },
    {
      "inputs": [],
      "name": "transferFeeEnabled",
      "outputs": [
        {
          "internalType": "bool",
          "name": "",
          "type": "bool"
        }
      ],
      "stateMutability": "view",
      "type": "function"
    },
    {
      "inputs": [],
      "name": "transferFeePercentage",
      "outputs": [
        {
          "internalType": "uint256",
          "name": "",
          "type": "uint256"
        }
      ],
      "stateMutability": "view",
      "type": "function"
    },
    {
      "inputs": [
        {
          "internalType": "address",
          "name": "sender",
          "type": "address"
        },
        {
          "internalType": "address",
          "name": "recipient",
          "type": "address"
        },
        {
          "internalType": "uint256",
          "name": "amount",
          "type": "uint256"
        }
      ],
      "name": "transferFrom",
      "outputs": [
        {
          "internalType": "bool",
          "name": "",
          "type": "bool"
        }
      ],
      "stateMutability": "nonpayable",
      "type": "function"
    },
    {
      "inputs": [
        {
          "internalType": "address",
          "name": "newOwner",
          "type": "address"
        }
      ],
      "name": "transferOwnership",
      "outputs": [],
      "stateMutability": "nonpayable",
      "type": "function"
    },
    {
      "inputs": [],
      "name": "unpause",
      "outputs": [],
      "stateMutability": "nonpayable",
      "type": "function"
    },
    {
      "inputs": [
        {
          "internalType": "string",
          "name": "_logoURL",
          "type": "string"
        },
        {
          "internalType": "string",
          "name": "_website",
          "type": "string"
        },
        {
          "internalType": "string",
          "name": "_socialMediaLinks",
          "type": "string"
        }
      ],
      "name": "updateMetadata",
      "outputs": [],
      "stateMutability": "nonpayable",
      "type": "function"
    },
    {
      "inputs": [],
      "name": "website",
      "outputs": [
        {
          "internalType": "string",
          "name": "",
          "type": "string"
        }
      ],
      "stateMutability": "view",
      "type": "function"
    }
  ],
  "bytecode": "0x60a06040523480156200001157600080fd5b50604051620023e4380380620023e483398101604081905262000034916200053f565b88886003620000448382620006e7565b506004620000538282620006e7565b5050600580546001600160a81b031916336101008102919091179091556040519091508190600090600080516020620023c4833981519152908290a35060008511620000e65760405162461bcd60e51b815260206004820152601560248201527f456475426f7845524332303a206361702069732030000000000000000000000060448201526064015b60405180910390fd5b84861115620001485760405162461bcd60e51b815260206004820152602760248201527f456475426f7845524332303a20696e697469616c20737570706c7920657863656044820152660656473206361760cc1b6064820152608401620000dd565b6005805460ff60a81b1916600160a81b60ff8a16021790556080859052620001718487620001d9565b6200017c84620002cc565b600019600755600a80546001600160a01b0319166001600160a01b038616179055600b620001ab8482620006e7565b50600c620001ba8382620006e7565b50600d620001c98282620006e7565b50505050505050505050620007db565b6001600160a01b038216620002315760405162461bcd60e51b815260206004820152601f60248201527f45524332303a206d696e7420746f20746865207a65726f2061646472657373006044820152606401620000dd565b6200023f60008383620003eb565b8060026000828254620002539190620007b3565b90915550506001600160a01b0382166000908152602081905260408120805483929062000282908490620007b3565b90915550506040518181526001600160a01b038316906000907fddf252ad1be2c89b69c2b068fc378daa952ba7f163c4a11628f55a4df523b3ef9060200160405180910390a35050565b6005546001600160a01b036101009091041633146200032e5760405162461bcd60e51b815260206004820181905260248201527f4f776e61626c653a2063616c6c6572206973206e6f7420746865206f776e65726044820152606401620000dd565b6001600160a01b038116620003955760405162461bcd60e51b815260206004820152602660248201527f4f776e61626c653a206e6577206f776e657220697320746865207a65726f206160448201526564647265737360d01b6064820152608401620000dd565b6005546040516001600160a01b038084169261010090041690600080516020620023c483398151915290600090a3600580546001600160a01b0390921661010002610100600160a81b0319909216919091179055565b60055460ff1615620004335760405162461bcd60e51b815260206004820152601060248201526f14185d5cd8589b194e881c185d5cd95960821b6044820152606401620000dd565b620004468383836001600160e01b038416565b505050565b634e487b7160e01b600052604160045260246000fd5b600082601f8301126200047357600080fd5b81516001600160401b03808211156200049057620004906200044b565b604051601f8301601f19908116603f01168101908282118183101715620004bb57620004bb6200044b565b81604052838152602092508683858801011115620004d857600080fd5b600091505b83821015620004fc5785820183015181830184015290820190620004dd565b600093810190920192909252949350505050565b805160ff811681146200052257600080fd5b919050565b80516001600160a01b03811681146200052257600080fd5b60008060008060008060008060006101208a8c0312156200055f57600080fd5b89516001600160401b03808211156200057757600080fd5b620005858d838e0162000461565b9a5060208c01519150808211156200059c57600080fd5b620005aa8d838e0162000461565b9950620005ba60408d0162000510565b985060608c0151975060808c01519650620005d860a08d0162000527565b955060c08c0151915080821115620005ef57600080fd5b620005fd8d838e0162000461565b945060e08c01519150808211156200061457600080fd5b620006228d838e0162000461565b93506101008c01519150808211156200063a57600080fd5b50620006498c828d0162000461565b9150509295985092959850929598565b600181811c908216806200066e57607f821691505b6020821081036200068f57634e487b7160e01b600052602260045260246000fd5b50919050565b601f8211156200044657600081815260208120601f850160051c81016020861015620006be5750805b601f850160051c820191505b81811015620006df57828155600101620006ca565b505050505050565b81516001600160401b038111156200070357620007036200044b565b6200071b8162000714845462000659565b8462000695565b602080601f8311600181146200075357600084156200073a5750858301515b600019600386901b1c1916600185901b178555620006df565b600085815260208120601f198616915b82811015620007845788860151825594840194600190910190840162000763565b5085821015620007a35787850151600019600388901b60f8161c191681555b5050505050600190811b01905550565b80820180821115620007d557634e487b7160e01b600052601160045260246000fd5b92915050565b608051611bc6620007fe600039600081816102aa01526107e40152611bc66000f3fe608060405234801561001057600080fd5b50600436106102065760003560e01c8063883ff4591161011a578063a9e75723116100ad578063db2a45701161007c578063db2a457014610432578063dd62ed3e14610445578063e7f1bfcb1461047e578063f2fde38b1461048b578063f9f92be41461049e57600080fd5b8063a9e7572314610406578063beb0a4161461040f578063c415b95c14610417578063d2ce89e51461042a57600080fd5b80639d11aaaa116100e95780639d11aaaa146103c4578063a42dce80146103cd578063a457c2d7146103e0578063a9059cbb146103f357600080fd5b8063883ff4591461036c5780638bf554091461037f5780638da5cb5b1461039257806395d89b41146103bc57600080fd5b80633d72eaf21161019d5780635c975abb1161016c5780635c975abb1461031557806370a0823114610320578063715018a61461034957806379cc6790146103515780638456cb591461036457600080fd5b80633d72eaf2146102df5780633f4ba83a146102e757806340c10f19146102ef57806342966c681461030257600080fd5b806323b872dd116101d957806323b872dd14610273578063313ce56714610286578063355274ea146102a557806339509351146102cc57600080fd5b806306fdde031461020b578063095ea7b314610229578063153b0d1e1461024c57806318160ddd14610261575b600080fd5b6102136104c1565b60405161022091906116de565b60405180910390f35b61023c61023736600461170d565b610553565b6040519015158152602001610220565b61025f61025a366004611747565b61056a565b005b6002545b604051908152602001610220565b61023c61028136600461177a565b610602565b600554600160a81b900460ff1660405160ff9091168152602001610220565b6102657f000000000000000000000000000000000000000000000000000000000000000081565b61023c6102da36600461170d565b6106b3565b6102136106ea565b61025f610778565b61025f6102fd36600461170d565b6107b2565b61025f6103103660046117b6565b610873565b60055460ff1661023c565b61026561032e3660046117cf565b6001600160a01b031660009081526020819052604090205490565b61025f610880565b61025f61035f36600461170d565b610900565b61025f610988565b61025f61037a3660046117ea565b6109c0565b61025f61038d3660046117b6565b610aa5565b60055461010090046001600160a01b03165b6040516001600160a01b039091168152602001610220565b610213610b10565b61026560095481565b61025f6103db3660046117cf565b610b1f565b61023c6103ee36600461170d565b610bef565b61023c61040136600461170d565b610c8a565b61026560075481565b610213610c97565b600a546103a4906001600160a01b031681565b610213610ca4565b61025f6104403660046118a9565b610cb1565b610265610453366004611931565b6001600160a01b03918216600090815260016020908152604080832093909416825291909152205490565b60085461023c9060ff1681565b61025f6104993660046117cf565b610d48565b61023c6104ac3660046117cf565b60066020526000908152604090205460ff1681565b6060600380546104d09061195b565b80601f01602080910402602001604051908101604052809291908181526020018280546104fc9061195b565b80156105495780601f1061051e57610100808354040283529160200191610549565b820191906000526020600020905b81548152906001019060200180831161052c57829003601f168201915b5050505050905090565b6000610560338484610e44565b5060015b92915050565b6005546001600160a01b036101009091041633146105a35760405162461bcd60e51b815260040161059a90611995565b60405180910390fd5b6001600160a01b038216600081815260066020908152604091829020805460ff191685151590811790915591519182527fcf3473b85df1594d47b6958f29a32bea0abff9dd68296f7bf33443646793cfd8910160405180910390a25050565b600061060f848484610f69565b6001600160a01b0384166000908152600160209081526040808320338452909152902054828110156106945760405162461bcd60e51b815260206004820152602860248201527f45524332303a207472616e7366657220616d6f756e74206578636565647320616044820152676c6c6f77616e636560c01b606482015260840161059a565b6106a885336106a386856119e0565b610e44565b506001949350505050565b3360008181526001602090815260408083206001600160a01b038716845290915281205490916105609185906106a39086906119f3565b600d80546106f79061195b565b80601f01602080910402602001604051908101604052809291908181526020018280546107239061195b565b80156107705780601f1061074557610100808354040283529160200191610770565b820191906000526020600020905b81548152906001019060200180831161075357829003601f168201915b505050505081565b6005546001600160a01b036101009091041633146107a85760405162461bcd60e51b815260040161059a90611995565b6107b06110f0565b565b6005546001600160a01b036101009091041633146107e25760405162461bcd60e51b815260040161059a90611995565b7f00000000000000000000000000000000000000000000000000000000000000008161080d60025490565b61081791906119f3565b11156108655760405162461bcd60e51b815260206004820152601960248201527f456475426f7845524332303a2063617020657863656564656400000000000000604482015260640161059a565b61086f8282611183565b5050565b61087d338261126e565b50565b6005546001600160a01b036101009091041633146108b05760405162461bcd60e51b815260040161059a90611995565b60055460405160009161010090046001600160a01b0316907f8be0079c531659141344cd1fd0a4f28419497f9722a3daafe3b4186f6b6457e0908390a360058054610100600160a81b0319169055565b600061090c8333610453565b90508181101561096a5760405162461bcd60e51b8152602060048201526024808201527f45524332303a206275726e20616d6f756e74206578636565647320616c6c6f77604482015263616e636560e01b606482015260840161059a565b61097983336106a385856119e0565b610983838361126e565b505050565b6005546001600160a01b036101009091041633146109b85760405162461bcd60e51b815260040161059a90611995565b6107b06113c9565b6005546001600160a01b036101009091041633146109f05760405162461bcd60e51b815260040161059a90611995565b6064811115610a525760405162461bcd60e51b815260206004820152602860248201527f4665652070657263656e74616765206d757374206265206265747765656e2030604482015267020616e64203130360c41b606482015260840161059a565b6008805460ff1916831515908117909155600982905560408051918252602082018390527f5169651e0f3548dce5a282ef160da80c54150c9f2600b354c68deba0167b2d3f910160405180910390a15050565b6005546001600160a01b03610100909104163314610ad55760405162461bcd60e51b815260040161059a90611995565b60078190556040518181527fb81a465c2b79d7b689b78d9aaf5a787dd386b73a952be0569f2fbc637aabb8979060200160405180910390a150565b6060600480546104d09061195b565b6005546001600160a01b03610100909104163314610b4f5760405162461bcd60e51b815260040161059a90611995565b6001600160a01b038116610ba55760405162461bcd60e51b815260206004820152601d60248201527f496e76616c69642066656520636f6c6c6563746f722061646472657373000000604482015260640161059a565b600a80546001600160a01b0319166001600160a01b0383169081179091556040517fe5693914d19c789bdee50a362998c0bc8d035a835f9871da5d51152f0582c34f90600090a250565b3360009081526001602090815260408083206001600160a01b038616845290915281205482811015610c715760405162461bcd60e51b815260206004820152602560248201527f45524332303a2064656372656173656420616c6c6f77616e63652062656c6f77604482015264207a65726f60d81b606482015260840161059a565b610c8033856106a386856119e0565b5060019392505050565b6000610560338484610f69565b600c80546106f79061195b565b600b80546106f79061195b565b6005546001600160a01b03610100909104163314610ce15760405162461bcd60e51b815260040161059a90611995565b600b610ced8482611a54565b50600c610cfa8382611a54565b50600d610d078282611a54565b507f61b45807b5528344b8b2c26433a3aabead6c9dc6239e146e7ba7c812fded07d0838383604051610d3b93929190611b14565b60405180910390a1505050565b6005546001600160a01b03610100909104163314610d785760405162461bcd60e51b815260040161059a90611995565b6001600160a01b038116610ddd5760405162461bcd60e51b815260206004820152602660248201527f4f776e61626c653a206e6577206f776e657220697320746865207a65726f206160448201526564647265737360d01b606482015260840161059a565b6005546040516001600160a01b0380841692610100900416907f8be0079c531659141344cd1fd0a4f28419497f9722a3daafe3b4186f6b6457e090600090a3600580546001600160a01b0390921661010002610100600160a81b0319909216919091179055565b6001600160a01b038316610ea65760405162461bcd60e51b8152602060048201526024808201527f45524332303a20617070726f76652066726f6d20746865207a65726f206164646044820152637265737360e01b606482015260840161059a565b6001600160a01b038216610f075760405162461bcd60e51b815260206004820152602260248201527f45524332303a20617070726f766520746f20746865207a65726f206164647265604482015261737360f01b606482015260840161059a565b6001600160a01b0383811660008181526001602090815260408083209487168084529482529182902085905590518481527f8c5be1e5ebec7d5bd14f71427d1e84f3dd0314c0f7b2291e5b200ac8c7c3b92591015b60405180910390a3505050565b6001600160a01b03831660009081526006602052604090205460ff16158015610fab57506001600160a01b03821660009081526006602052604090205460ff16155b610fed5760405162461bcd60e51b8152602060048201526013602482015272426c61636b6c6973746564206164647265737360681b604482015260640161059a565b60075481111561103f5760405162461bcd60e51b815260206004820152601f60248201527f5472616e7366657220616d6f756e742065786365656473206d6178696d756d00604482015260640161059a565b60085460ff16801561106457506005546001600160a01b038481166101009092041614155b801561108357506005546001600160a01b038381166101009092041614155b156110e55760006110aa60646110a46009548561144490919063ffffffff16565b90611457565b905060006110b88383611463565b600a549091506110d39086906001600160a01b03168461146f565b6110de85858361146f565b5050505050565b61098383838361146f565b60055460ff166111395760405162461bcd60e51b815260206004820152601460248201527314185d5cd8589b194e881b9bdd081c185d5cd95960621b604482015260640161059a565b6005805460ff191690557f5db9ee0a495bf2e6ff9c91a7834c1ba4fdd244a5e8aa4e537bd38aeae4b073aa335b6040516001600160a01b03909116815260200160405180910390a1565b6001600160a01b0382166111d95760405162461bcd60e51b815260206004820152601f60248201527f45524332303a206d696e7420746f20746865207a65726f206164647265737300604482015260640161059a565b6111e560008383611652565b80600260008282546111f791906119f3565b90915550506001600160a01b038216600090815260208190526040812080548392906112249084906119f3565b90915550506040518181526001600160a01b038316906000907fddf252ad1be2c89b69c2b068fc378daa952ba7f163c4a11628f55a4df523b3ef9060200160405180910390a35050565b6001600160a01b0382166112ce5760405162461bcd60e51b815260206004820152602160248201527f45524332303a206275726e2066726f6d20746865207a65726f206164647265736044820152607360f81b606482015260840161059a565b6112da82600083611652565b6001600160a01b0382166000908152602081905260409020548181101561134e5760405162461bcd60e51b815260206004820152602260248201527f45524332303a206275726e20616d6f756e7420657863656564732062616c616e604482015261636560f01b606482015260840161059a565b61135882826119e0565b6001600160a01b038416600090815260208190526040812091909155600280548492906113869084906119e0565b90915550506040518281526000906001600160a01b038516907fddf252ad1be2c89b69c2b068fc378daa952ba7f163c4a11628f55a4df523b3ef90602001610f5c565b60055460ff161561140f5760405162461bcd60e51b815260206004820152601060248201526f14185d5cd8589b194e881c185d5cd95960821b604482015260640161059a565b6005805460ff191660011790557f62e78cea01bee320cd4e420270b5ea74000d11b0c9f74754ebdbfc544b05a2586111663390565b60006114508284611b57565b9392505050565b60006114508284611b6e565b600061145082846119e0565b6001600160a01b0383166114d35760405162461bcd60e51b815260206004820152602560248201527f45524332303a207472616e736665722066726f6d20746865207a65726f206164604482015264647265737360d81b606482015260840161059a565b6001600160a01b0382166115355760405162461bcd60e51b815260206004820152602360248201527f45524332303a207472616e7366657220746f20746865207a65726f206164647260448201526265737360e81b606482015260840161059a565b611540838383611652565b6001600160a01b038316600090815260208190526040902054818110156115b85760405162461bcd60e51b815260206004820152602660248201527f45524332303a207472616e7366657220616d6f756e7420657863656564732062604482015265616c616e636560d01b606482015260840161059a565b6115c282826119e0565b6001600160a01b0380861660009081526020819052604080822093909355908516815290812080548492906115f89084906119f3565b92505081905550826001600160a01b0316846001600160a01b03167fddf252ad1be2c89b69c2b068fc378daa952ba7f163c4a11628f55a4df523b3ef8460405161164491815260200190565b60405180910390a350505050565b60055460ff16156109835760405162461bcd60e51b815260206004820152601060248201526f14185d5cd8589b194e881c185d5cd95960821b604482015260640161059a565b6000815180845260005b818110156116be576020818501810151868301820152016116a2565b506000602082860101526020601f19601f83011685010191505092915050565b6020815260006114506020830184611698565b80356001600160a01b038116811461170857600080fd5b919050565b6000806040838503121561172057600080fd5b611729836116f1565b946020939093013593505050565b8035801515811461170857600080fd5b6000806040838503121561175a57600080fd5b611763836116f1565b915061177160208401611737565b90509250929050565b60008060006060848603121561178f57600080fd5b611798846116f1565b92506117a6602085016116f1565b9150604084013590509250925092565b6000602082840312156117c857600080fd5b5035919050565b6000602082840312156117e157600080fd5b611450826116f1565b600080604083850312156117fd57600080fd5b61172983611737565b634e487b7160e01b600052604160045260246000fd5b600082601f83011261182d57600080fd5b813567ffffffffffffffff8082111561184857611848611806565b604051601f8301601f19908116603f0116810190828211818310171561187057611870611806565b8160405283815286602085880101111561188957600080fd5b836020870160208301376000602085830101528094505050505092915050565b6000806000606084860312156118be57600080fd5b833567ffffffffffffffff808211156118d657600080fd5b6118e28783880161181c565b945060208601359150808211156118f857600080fd5b6119048783880161181c565b9350604086013591508082111561191a57600080fd5b506119278682870161181c565b9150509250925092565b6000806040838503121561194457600080fd5b61194d836116f1565b9150611771602084016116f1565b600181811c9082168061196f57607f821691505b60208210810361198f57634e487b7160e01b600052602260045260246000fd5b50919050565b6020808252818101527f4f776e61626c653a2063616c6c6572206973206e6f7420746865206f776e6572604082015260600190565b634e487b7160e01b600052601160045260246000fd5b81810381811115610564576105646119ca565b80820180821115610564576105646119ca565b601f82111561098357600081815260208120601f850160051c81016020861015611a2d5750805b601f850160051c820191505b81811015611a4c57828155600101611a39565b505050505050565b815167ffffffffffffffff811115611a6e57611a6e611806565b611a8281611a7c845461195b565b84611a06565b602080601f831160018114611ab75760008415611a9f5750858301515b600019600386901b1c1916600185901b178555611a4c565b600085815260208120601f198616915b82811015611ae657888601518255948401946001909101908401611ac7565b5085821015611b045787850151600019600388901b60f8161c191681555b5050505050600190811b01905550565b606081526000611b276060830186611698565b8281036020840152611b398186611698565b90508281036040840152611b4d8185611698565b9695505050505050565b8082028115828204841417610564576105646119ca565b600082611b8b57634e487b7160e01b600052601260045260246000fd5b50049056fea264697066735822122066a71bdf253d07695c2b04c69708bdcd0a4784825f1cb1d2642db434666fe9f064736f6c634300081300338be0079c531659141344cd1fd0a4f28419497f9722a3daafe3b4186f6b6457e0",
  "linkReferences": {},
  "deployedLinkReferences": {}
}