{
  "_format": "hh-sol-artifact-1",
  "contractName": "EduBoxERC721Factory",
  "sourceName": "contracts/EduBoxERC721Factory.sol",
  "abi": [
    {
      "inputs": [],
      "stateMutability": "nonpayable",
      "type": "constructor"
    },
    {
      "anonymous": false,
      "inputs": [
        {
          "indexed": true,
          "internalType": "address",
          "name": "owner",
          "type": "address"
        },
        {
          "indexed": true,
          "internalType": "address",
          "name": "nftContract",
          "type": "address"
        },
        {
          "indexed": false,
          "internalType": "string",
          "name": "name",
          "type": "string"
        },
        {
          "indexed": false,
          "internalType": "string",
          "name": "symbol",
          "type": "string"
        },
        {
          "indexed": false,
          "internalType": "uint256",
          "name": "maxSupply",
          "type": "uint256"
        },
        {
          "indexed": false,
          "internalType": "uint256",
          "name": "mintPrice",
          "type": "uint256"
        }
      ],
      "name": "NFTContractDeployed",
      "type": "event"
    },
    {
      "anonymous": false,
      "inputs": [
        {
          "indexed": true,
          "internalType": "address",
          "name": "previousOwner",
          "type": "address"
        },
        {
          "indexed": true,
          "internalType": "address",
          "name": "newOwner",
          "type": "address"
        }
      ],
      "name": "OwnershipTransferred",
      "type": "event"
    },
    {
      "inputs": [],
      "name": "CREATION_FEE",
      "outputs": [
        {
          "internalType": "uint256",
          "name": "",
          "type": "uint256"
        }
      ],
      "stateMutability": "view",
      "type": "function"
    },
    {
      "inputs": [
        {
          "internalType": "string",
          "name": "name",
          "type": "string"
        },
        {
          "internalType": "string",
          "name": "symbol",
          "type": "string"
        },
        {
          "internalType": "string",
          "name": "baseTokenURI",
          "type": "string"
        },
        {
          "internalType": "string",
          "name": "collectionURI",
          "type": "string"
        },
        {
          "internalType": "uint256",
          "name": "maxSupply",
          "type": "uint256"
        },
        {
          "internalType": "uint256",
          "name": "mintPrice",
          "type": "uint256"
        }
      ],
      "name": "deployNFTContract",
      "outputs": [
        {
          "internalType": "address",
          "name": "",
          "type": "address"
        }
      ],
      "stateMutability": "payable",
      "type": "function"
    },
    {
      "inputs": [
        {
          "internalType": "uint256",
          "name": "",
          "type": "uint256"
        }
      ],
      "name": "deployedCollections",
      "outputs": [
        {
          "internalType": "address",
          "name": "contractAddress",
          "type": "address"
        },
        {
          "internalType": "string",
          "name": "name",
          "type": "string"
        },
        {
          "internalType": "string",
          "name": "symbol",
          "type": "string"
        },
        {
          "internalType": "string",
          "name": "baseURI",
          "type": "string"
        },
        {
          "internalType": "string",
          "name": "collectionURI",
          "type": "string"
        },
        {
          "internalType": "uint256",
          "name": "maxSupply",
          "type": "uint256"
        },
        {
          "internalType": "uint256",
          "name": "mintPrice",
          "type": "uint256"
        },
        {
          "internalType": "address",
          "name": "owner",
          "type": "address"
        }
      ],
      "stateMutability": "view",
      "type": "function"
    },
    {
      "inputs": [],
      "name": "feeRecipient",
      "outputs": [
        {
          "internalType": "address",
          "name": "",
          "type": "address"
        }
      ],
      "stateMutability": "view",
      "type": "function"
    },
    {
      "inputs": [],
      "name": "getCollectionCount",
      "outputs": [
        {
          "internalType": "uint256",
          "name": "",
          "type": "uint256"
        }
      ],
      "stateMutability": "view",
      "type": "function"
    },
    {
      "inputs": [],
      "name": "getDeployedCollections",
      "outputs": [
        {
          "components": [
            {
              "internalType": "address",
              "name": "contractAddress",
              "type": "address"
            },
            {
              "internalType": "string",
              "name": "name",
              "type": "string"
            },
            {
              "internalType": "string",
              "name": "symbol",
              "type": "string"
            },
            {
              "internalType": "string",
              "name": "baseURI",
              "type": "string"
            },
            {
              "internalType": "string",
              "name": "collectionURI",
              "type": "string"
            },
            {
              "internalType": "uint256",
              "name": "maxSupply",
              "type": "uint256"
            },
            {
              "internalType": "uint256",
              "name": "mintPrice",
              "type": "uint256"
            },
            {
              "internalType": "address",
              "name": "owner",
              "type": "address"
            }
          ],
          "internalType": "struct EduBoxERC721Factory.CollectionInfo[]",
          "name": "",
          "type": "tuple[]"
        }
      ],
      "stateMutability": "view",
      "type": "function"
    },
    {
      "inputs": [],
      "name": "owner",
      "outputs": [
        {
          "internalType": "address",
          "name": "",
          "type": "address"
        }
      ],
      "stateMutability": "view",
      "type": "function"
    },
    {
      "inputs": [],
      "name": "renounceOwnership",
      "outputs": [],
      "stateMutability": "nonpayable",
      "type": "function"
    },
    {
      "inputs": [
        {
          "internalType": "address",
          "name": "_newRecipient",
          "type": "address"
        }
      ],
      "name": "setFeeRecipient",
      "outputs": [],
      "stateMutability": "nonpayable",
      "type": "function"
    },
    {
      "inputs": [
        {
          "internalType": "address",
          "name": "newOwner",
          "type": "address"
        }
      ],
      "name": "transferOwnership",
      "outputs": [],
      "stateMutability": "nonpayable",
      "type": "function"
    },
    {
      "inputs": [],
      "name": "withdraw",
      "outputs": [],
      "stateMutability": "nonpayable",
      "type": "function"
    }
  ],
  "bytecode": "0x608060405234801561001057600080fd5b5061001a33610045565b600180546001600160a01b031916731fcb879bf709ccdfc2c2cfb39afd836a63612e58179055610095565b600080546001600160a01b038381166001600160a01b0319831681178455604051919092169283917f8be0079c531659141344cd1fd0a4f28419497f9722a3daafe3b4186f6b6457e09190a35050565b6138fb806100a46000396000f3fe608060405260043610620000a95760003560e01c806349a2104d116200006c57806349a2104d146200017a578063715018a614620001985780638da5cb5b14620001b05780639e4fe1b014620001d0578063e74b981b14620001f7578063f2fde38b146200021c57600080fd5b80631af9229c14620000ae5780631c10106f14620000e257806331d9b40914620001035780633ccfd60b146200013e578063469048401462000158575b600080fd5b620000c5620000bf36600462000eb2565b62000241565b6040516001600160a01b0390911681526020015b60405180910390f35b348015620000ef57600080fd5b506002545b604051908152602001620000d9565b3480156200011057600080fd5b50620001286200012236600462000f7e565b6200062e565b604051620000d998979695949392919062000fe0565b3480156200014b57600080fd5b5062000156620008d8565b005b3480156200016557600080fd5b50600154620000c5906001600160a01b031681565b3480156200018757600080fd5b50620000f4670de0b6b3a764000081565b348015620001a557600080fd5b506200015662000933565b348015620001bd57600080fd5b506000546001600160a01b0316620000c5565b348015620001dd57600080fd5b50620001e86200094b565b604051620000d991906200106d565b3480156200020457600080fd5b5062000156620002163660046200117b565b62000c58565b3480156200022957600080fd5b50620001566200023b3660046200117b565b62000cce565b6000670de0b6b3a7640000341015620002a15760405162461bcd60e51b815260206004820152601960248201527f496e73756666696369656e74206372656174696f6e206665650000000000000060448201526064015b60405180910390fd5b60008311620002fd5760405162461bcd60e51b815260206004820152602160248201527f4d617820737570706c79206d7573742062652067726561746572207468616e206044820152600360fc1b606482015260840162000298565b6001546040516001600160a01b0390911690600090670de0b6b3a76400009082818181858883f193505050501580156200033b573d6000803e3d6000fd5b50670de0b6b3a76400003411156200039057336108fc62000365670de0b6b3a764000034620011ad565b6040518115909202916000818181858888f193505050501580156200038e573d6000803e3d6000fd5b505b60008787878686604051620003a59062000df9565b620003b5959493929190620011d5565b604051809103906000f080158015620003d2573d6000803e3d6000fd5b50604051630131cfa360e51b81529091506001600160a01b03821690632639f460906200040490889060040162001229565b600060405180830381600087803b1580156200041f57600080fd5b505af115801562000434573d6000803e3d6000fd5b505060405163f2fde38b60e01b81523360048201526001600160a01b038416925063f2fde38b9150602401600060405180830381600087803b1580156200047a57600080fd5b505af11580156200048f573d6000803e3d6000fd5b505060408051610100810182526001600160a01b038581168252602082018d81529282018c9052606082018b9052608082018a905260a0820189905260c082018890523360e08301526002805460018101825560009190915282517f405787fa12a823e0f2b7631cc41b3ba8828b3321ca811111fa75cd3aa3bb5ace600890920291820180546001600160a01b03191691909316178255925191945092507f405787fa12a823e0f2b7631cc41b3ba8828b3321ca811111fa75cd3aa3bb5acf909101906200055e9082620012cd565b5060408201516002820190620005759082620012cd565b50606082015160038201906200058c9082620012cd565b5060808201516004820190620005a39082620012cd565b5060a0820151600582015560c0820151600682015560e090910151600790910180546001600160a01b0319166001600160a01b039283161790556040519082169033907f7c6b44ca206b1e760720218e7dbc78a30cc5efbe96417293e1d38f8e94d546a3906200061b908c908c908a908a906200139a565b60405180910390a3979650505050505050565b600281815481106200063f57600080fd5b6000918252602090912060089091020180546001820180546001600160a01b0390921693509062000670906200123e565b80601f01602080910402602001604051908101604052809291908181526020018280546200069e906200123e565b8015620006ef5780601f10620006c357610100808354040283529160200191620006ef565b820191906000526020600020905b815481529060010190602001808311620006d157829003601f168201915b50505050509080600201805462000706906200123e565b80601f016020809104026020016040519081016040528092919081815260200182805462000734906200123e565b8015620007855780601f10620007595761010080835404028352916020019162000785565b820191906000526020600020905b8154815290600101906020018083116200076757829003601f168201915b5050505050908060030180546200079c906200123e565b80601f0160208091040260200160405190810160405280929190818152602001828054620007ca906200123e565b80156200081b5780601f10620007ef576101008083540402835291602001916200081b565b820191906000526020600020905b815481529060010190602001808311620007fd57829003601f168201915b50505050509080600401805462000832906200123e565b80601f016020809104026020016040519081016040528092919081815260200182805462000860906200123e565b8015620008b15780601f106200088557610100808354040283529160200191620008b1565b820191906000526020600020905b8154815290600101906020018083116200089357829003601f168201915b5050505060058301546006840154600790940154929390929091506001600160a01b031688565b620008e262000d4d565b47620008f66000546001600160a01b031690565b6001600160a01b03166108fc829081150290604051600060405180830381858888f193505050501580156200092f573d6000803e3d6000fd5b5050565b6200093d62000d4d565b62000949600062000da9565b565b60606002805480602002602001604051908101604052809291908181526020016000905b8282101562000c4f5760008481526020908190206040805161010081019091526008850290910180546001600160a01b031682526001810180549293919291840191620009bc906200123e565b80601f0160208091040260200160405190810160405280929190818152602001828054620009ea906200123e565b801562000a3b5780601f1062000a0f5761010080835404028352916020019162000a3b565b820191906000526020600020905b81548152906001019060200180831162000a1d57829003601f168201915b5050505050815260200160028201805462000a56906200123e565b80601f016020809104026020016040519081016040528092919081815260200182805462000a84906200123e565b801562000ad55780601f1062000aa95761010080835404028352916020019162000ad5565b820191906000526020600020905b81548152906001019060200180831162000ab757829003601f168201915b5050505050815260200160038201805462000af0906200123e565b80601f016020809104026020016040519081016040528092919081815260200182805462000b1e906200123e565b801562000b6f5780601f1062000b435761010080835404028352916020019162000b6f565b820191906000526020600020905b81548152906001019060200180831162000b5157829003601f168201915b5050505050815260200160048201805462000b8a906200123e565b80601f016020809104026020016040519081016040528092919081815260200182805462000bb8906200123e565b801562000c095780601f1062000bdd5761010080835404028352916020019162000c09565b820191906000526020600020905b81548152906001019060200180831162000beb57829003601f168201915b50505091835250506005820154602080830191909152600683015460408301526007909201546001600160a01b031660609091015290825260019290920191016200096f565b50505050905090565b62000c6262000d4d565b6001600160a01b03811662000cac5760405162461bcd60e51b815260206004820152600f60248201526e496e76616c6964206164647265737360881b604482015260640162000298565b600180546001600160a01b0319166001600160a01b0392909216919091179055565b62000cd862000d4d565b6001600160a01b03811662000d3f5760405162461bcd60e51b815260206004820152602660248201527f4f776e61626c653a206e6577206f776e657220697320746865207a65726f206160448201526564647265737360d01b606482015260840162000298565b62000d4a8162000da9565b50565b6000546001600160a01b03163314620009495760405162461bcd60e51b815260206004820181905260248201527f4f776e61626c653a2063616c6c6572206973206e6f7420746865206f776e6572604482015260640162000298565b600080546001600160a01b038381166001600160a01b0319831681178455604051919092169283917f8be0079c531659141344cd1fd0a4f28419497f9722a3daafe3b4186f6b6457e09190a35050565b6124ee80620013d883390190565b634e487b7160e01b600052604160045260246000fd5b600082601f83011262000e2f57600080fd5b813567ffffffffffffffff8082111562000e4d5762000e4d62000e07565b604051601f8301601f19908116603f0116810190828211818310171562000e785762000e7862000e07565b8160405283815286602085880101111562000e9257600080fd5b836020870160208301376000602085830101528094505050505092915050565b60008060008060008060c0878903121562000ecc57600080fd5b863567ffffffffffffffff8082111562000ee557600080fd5b62000ef38a838b0162000e1d565b9750602089013591508082111562000f0a57600080fd5b62000f188a838b0162000e1d565b9650604089013591508082111562000f2f57600080fd5b62000f3d8a838b0162000e1d565b9550606089013591508082111562000f5457600080fd5b5062000f6389828a0162000e1d565b9350506080870135915060a087013590509295509295509295565b60006020828403121562000f9157600080fd5b5035919050565b6000815180845260005b8181101562000fc05760208185018101518683018201520162000fa2565b506000602082860101526020601f19601f83011685010191505092915050565b6001600160a01b03898116825261010060208301819052600091620010088483018c62000f98565b915083820360408501526200101e828b62000f98565b9150838203606085015262001034828a62000f98565b915083820360808501526200104a828962000f98565b60a085019790975260c08401959095525050911660e09091015295945050505050565b60006020808301818452808551808352604092508286019150828160051b87010184880160005b838110156200116d57888303603f19018552815180516001600160a01b0316845261010088820151818a870152620010cf8287018262000f98565b9150508782015185820389870152620010e9828262000f98565b9150506060808301518683038288015262001105838262000f98565b925050506080808301518683038288015262001122838262000f98565b60a0858101519089015260c0808601519089015260e0948501516001600160a01b038116868a0152949093509150620011589050565b50958801959350509086019060010162001094565b509098975050505050505050565b6000602082840312156200118e57600080fd5b81356001600160a01b0381168114620011a657600080fd5b9392505050565b81810381811115620011cf57634e487b7160e01b600052601160045260246000fd5b92915050565b60a081526000620011ea60a083018862000f98565b8281036020840152620011fe818862000f98565b9050828103604084015262001214818762000f98565b60608401959095525050608001529392505050565b602081526000620011a6602083018462000f98565b600181811c908216806200125357607f821691505b6020821081036200127457634e487b7160e01b600052602260045260246000fd5b50919050565b601f821115620012c857600081815260208120601f850160051c81016020861015620012a35750805b601f850160051c820191505b81811015620012c457828155600101620012af565b5050505b505050565b815167ffffffffffffffff811115620012ea57620012ea62000e07565b6200130281620012fb84546200123e565b846200127a565b602080601f8311600181146200133a5760008415620013215750858301515b600019600386901b1c1916600185901b178555620012c4565b600085815260208120601f198616915b828110156200136b578886015182559484019460019091019084016200134a565b50858210156200138a5787850151600019600388901b60f8161c191681555b5050505050600190811b01905550565b608081526000620013af608083018762000f98565b8281036020840152620013c3818762000f98565b60408401959095525050606001529291505056fe60806040523480156200001157600080fd5b50604051620024ee380380620024ee8339810160408190526200003491620001ac565b84846000620000448382620002df565b506001620000538282620002df565b5050600a805460ff19169055506200006b336200008d565b600c620000798482620002df565b50600d91909155600e5550620003ab915050565b600a80546001600160a01b03838116610100818102610100600160a81b031985161790945560405193909204169182907f8be0079c531659141344cd1fd0a4f28419497f9722a3daafe3b4186f6b6457e090600090a35050565b634e487b7160e01b600052604160045260246000fd5b600082601f8301126200010f57600080fd5b81516001600160401b03808211156200012c576200012c620000e7565b604051601f8301601f19908116603f01168101908282118183101715620001575762000157620000e7565b816040528381526020925086838588010111156200017457600080fd5b600091505b8382101562000198578582018301518183018401529082019062000179565b600093810190920192909252949350505050565b600080600080600060a08688031215620001c557600080fd5b85516001600160401b0380821115620001dd57600080fd5b620001eb89838a01620000fd565b965060208801519150808211156200020257600080fd5b6200021089838a01620000fd565b955060408801519150808211156200022757600080fd5b506200023688828901620000fd565b606088015160809098015196999598509695949350505050565b600181811c908216806200026557607f821691505b6020821081036200028657634e487b7160e01b600052602260045260246000fd5b50919050565b601f821115620002da57600081815260208120601f850160051c81016020861015620002b55750805b601f850160051c820191505b81811015620002d657828155600101620002c1565b5050505b505050565b81516001600160401b03811115620002fb57620002fb620000e7565b62000313816200030c845462000250565b846200028c565b602080601f8311600181146200034b5760008415620003325750858301515b600019600386901b1c1916600185901b178555620002d6565b600085815260208120601f198616915b828110156200037c578886015182559484019460019091019084016200035b565b50858210156200039b5787850151600019600388901b60f8161c191681555b5050505050600190811b01905550565b61213380620003bb6000396000f3fe6080604052600436106101cd5760003560e01c80636352211e116100f7578063a22cb46511610095578063d5abeb0111610064578063d5abeb01146104e4578063e985e9c5146104fa578063f2fde38b14610543578063f4a0a5281461056357600080fd5b8063a22cb4651461046f578063a5097ebf1461048f578063b88d4fde146104a4578063c87b56dd146104c457600080fd5b8063715018a6116100d1578063715018a61461040d5780638456cb59146104225780638da5cb5b1461043757806395d89b411461045a57600080fd5b80636352211e146103b75780636817c76c146103d757806370a08231146103ed57600080fd5b80632f745c591161016f5780634f6ccce71161013e5780634f6ccce71461034c57806354ba0f271461036c57806355f804b31461037f5780635c975abb1461039f57600080fd5b80632f745c59146102e25780633ccfd60b146103025780633f4ba83a1461031757806342842e0e1461032c57600080fd5b8063095ea7b3116101ab578063095ea7b31461026157806318160ddd1461028357806323b872dd146102a25780632639f460146102c257600080fd5b806301ffc9a7146101d257806306fdde0314610207578063081812fc14610229575b600080fd5b3480156101de57600080fd5b506101f26101ed366004611b0a565b610583565b60405190151581526020015b60405180910390f35b34801561021357600080fd5b5061021c610594565b6040516101fe9190611b77565b34801561023557600080fd5b50610249610244366004611b8a565b610626565b6040516001600160a01b0390911681526020016101fe565b34801561026d57600080fd5b5061028161027c366004611bba565b61064d565b005b34801561028f57600080fd5b506008545b6040519081526020016101fe565b3480156102ae57600080fd5b506102816102bd366004611be4565b610767565b3480156102ce57600080fd5b506102816102dd366004611cac565b610798565b3480156102ee57600080fd5b506102946102fd366004611bba565b6107e7565b34801561030e57600080fd5b5061028161087d565b34801561032357600080fd5b506102816108c8565b34801561033857600080fd5b50610281610347366004611be4565b6108da565b34801561035857600080fd5b50610294610367366004611b8a565b6108f5565b61029461037a366004611cf5565b610988565b34801561038b57600080fd5b5061028161039a366004611cac565b610a97565b3480156103ab57600080fd5b50600a5460ff166101f2565b3480156103c357600080fd5b506102496103d2366004611b8a565b610aab565b3480156103e357600080fd5b50610294600e5481565b3480156103f957600080fd5b50610294610408366004611cf5565b610b0b565b34801561041957600080fd5b50610281610b91565b34801561042e57600080fd5b50610281610ba3565b34801561044357600080fd5b50600a5461010090046001600160a01b0316610249565b34801561046657600080fd5b5061021c610bb3565b34801561047b57600080fd5b5061028161048a366004611d10565b610bc2565b34801561049b57600080fd5b5061021c610bcd565b3480156104b057600080fd5b506102816104bf366004611d4c565b610c5b565b3480156104d057600080fd5b5061021c6104df366004611b8a565b610c93565b3480156104f057600080fd5b50610294600d5481565b34801561050657600080fd5b506101f2610515366004611dc8565b6001600160a01b03918216600090815260056020908152604080832093909416825291909152205460ff1690565b34801561054f57600080fd5b5061028161055e366004611cf5565b610cfa565b34801561056f57600080fd5b5061028161057e366004611b8a565b610d73565b600061058e82610db0565b92915050565b6060600080546105a390611dfb565b80601f01602080910402602001604051908101604052809291908181526020018280546105cf90611dfb565b801561061c5780601f106105f15761010080835404028352916020019161061c565b820191906000526020600020905b8154815290600101906020018083116105ff57829003601f168201915b5050505050905090565b600061063182610dd5565b506000908152600460205260409020546001600160a01b031690565b600061065882610aab565b9050806001600160a01b0316836001600160a01b0316036106ca5760405162461bcd60e51b815260206004820152602160248201527f4552433732313a20617070726f76616c20746f2063757272656e74206f776e656044820152603960f91b60648201526084015b60405180910390fd5b336001600160a01b03821614806106e657506106e68133610515565b6107585760405162461bcd60e51b815260206004820152603d60248201527f4552433732313a20617070726f76652063616c6c6572206973206e6f7420746f60448201527f6b656e206f776e6572206f7220617070726f76656420666f7220616c6c00000060648201526084016106c1565b6107628383610e34565b505050565b6107713382610ea2565b61078d5760405162461bcd60e51b81526004016106c190611e35565b610762838383610f21565b6107a0611092565b600f6107ac8282611ed0565b507f88200832d1fe27eee076bea36a10a1eb73b9d27d9e6e5e2626a83d62ffc9ae5c816040516107dc9190611b77565b60405180910390a150565b60006107f283610b0b565b82106108545760405162461bcd60e51b815260206004820152602b60248201527f455243373231456e756d657261626c653a206f776e657220696e646578206f7560448201526a74206f6620626f756e647360a81b60648201526084016106c1565b506001600160a01b03919091166000908152600660209081526040808320938352929052205490565b610885611092565b600a54604051479161010090046001600160a01b0316906108fc8315029083906000818181858888f193505050501580156108c4573d6000803e3d6000fd5b5050565b6108d0611092565b6108d86110f2565b565b61076283838360405180602001604052806000815250610c5b565b600061090060085490565b82106109635760405162461bcd60e51b815260206004820152602c60248201527f455243373231456e756d657261626c653a20676c6f62616c20696e646578206f60448201526b7574206f6620626f756e647360a01b60648201526084016106c1565b6008828154811061097657610976611f90565b90600052602060002001549050919050565b6000610992611144565b600e543410156109db5760405162461bcd60e51b8152602060048201526014602482015273125b9cdd59999a58da595b9d081c185e5b595b9d60621b60448201526064016106c1565b600d54600b5410610a235760405162461bcd60e51b815260206004820152601260248201527113585e081cdd5c1c1b1e481c995858da195960721b60448201526064016106c1565b610a31600b80546001019055565b6000610a3c600b5490565b9050610a48838261118a565b600e54341115610a8f57600e5433906108fc90610a659034611fa6565b6040518115909202916000818181858888f19350505050158015610a8d573d6000803e3d6000fd5b505b90505b919050565b610a9f611092565b600c6108c48282611ed0565b6000818152600260205260408120546001600160a01b031680610a8f5760405162461bcd60e51b8152602060048201526018602482015277115490cdcc8c4e881a5b9d985b1a59081d1bdad95b88125160421b60448201526064016106c1565b60006001600160a01b038216610b755760405162461bcd60e51b815260206004820152602960248201527f4552433732313a2061646472657373207a65726f206973206e6f7420612076616044820152683634b21037bbb732b960b91b60648201526084016106c1565b506001600160a01b031660009081526003602052604090205490565b610b99611092565b6108d860006111a4565b610bab611092565b6108d86111fe565b6060600180546105a390611dfb565b6108c433838361123b565b600f8054610bda90611dfb565b80601f0160208091040260200160405190810160405280929190818152602001828054610c0690611dfb565b8015610c535780601f10610c2857610100808354040283529160200191610c53565b820191906000526020600020905b815481529060010190602001808311610c3657829003601f168201915b505050505081565b610c653383610ea2565b610c815760405162461bcd60e51b81526004016106c190611e35565b610c8d84848484611309565b50505050565b6060610c9e82610dd5565b6000610ca861133c565b90506000815111610cc85760405180602001604052806000815250610cf3565b80610cd28461134b565b604051602001610ce3929190611fc7565b6040516020818303038152906040525b9392505050565b610d02611092565b6001600160a01b038116610d675760405162461bcd60e51b815260206004820152602660248201527f4f776e61626c653a206e6577206f776e657220697320746865207a65726f206160448201526564647265737360d01b60648201526084016106c1565b610d70816111a4565b50565b610d7b611092565b600e8190556040518181527f525b762709cc2a983aec5ccdfd807a061f993c91090b5bcd7da92ca254976aaa906020016107dc565b60006001600160e01b0319821663780e9d6360e01b148061058e575061058e826113de565b6000818152600260205260409020546001600160a01b0316610d705760405162461bcd60e51b8152602060048201526018602482015277115490cdcc8c4e881a5b9d985b1a59081d1bdad95b88125160421b60448201526064016106c1565b600081815260046020526040902080546001600160a01b0319166001600160a01b0384169081179091558190610e6982610aab565b6001600160a01b03167f8c5be1e5ebec7d5bd14f71427d1e84f3dd0314c0f7b2291e5b200ac8c7c3b92560405160405180910390a45050565b600080610eae83610aab565b9050806001600160a01b0316846001600160a01b03161480610ef557506001600160a01b0380821660009081526005602090815260408083209388168352929052205460ff165b80610f195750836001600160a01b0316610f0e84610626565b6001600160a01b0316145b949350505050565b826001600160a01b0316610f3482610aab565b6001600160a01b031614610f5a5760405162461bcd60e51b81526004016106c190611ff6565b6001600160a01b038216610fbc5760405162461bcd60e51b8152602060048201526024808201527f4552433732313a207472616e7366657220746f20746865207a65726f206164646044820152637265737360e01b60648201526084016106c1565b610fc9838383600161142e565b826001600160a01b0316610fdc82610aab565b6001600160a01b0316146110025760405162461bcd60e51b81526004016106c190611ff6565b600081815260046020908152604080832080546001600160a01b03199081169091556001600160a01b0387811680865260038552838620805460001901905590871680865283862080546001019055868652600290945282852080549092168417909155905184937fddf252ad1be2c89b69c2b068fc378daa952ba7f163c4a11628f55a4df523b3ef91a4505050565b600a546001600160a01b036101009091041633146108d85760405162461bcd60e51b815260206004820181905260248201527f4f776e61626c653a2063616c6c6572206973206e6f7420746865206f776e657260448201526064016106c1565b6110fa611442565b600a805460ff191690557f5db9ee0a495bf2e6ff9c91a7834c1ba4fdd244a5e8aa4e537bd38aeae4b073aa335b6040516001600160a01b03909116815260200160405180910390a1565b600a5460ff16156108d85760405162461bcd60e51b815260206004820152601060248201526f14185d5cd8589b194e881c185d5cd95960821b60448201526064016106c1565b6108c482826040518060200160405280600081525061148b565b600a80546001600160a01b03838116610100818102610100600160a81b031985161790945560405193909204169182907f8be0079c531659141344cd1fd0a4f28419497f9722a3daafe3b4186f6b6457e090600090a35050565b611206611144565b600a805460ff191660011790557f62e78cea01bee320cd4e420270b5ea74000d11b0c9f74754ebdbfc544b05a2586111273390565b816001600160a01b0316836001600160a01b03160361129c5760405162461bcd60e51b815260206004820152601960248201527f4552433732313a20617070726f766520746f2063616c6c65720000000000000060448201526064016106c1565b6001600160a01b03838116600081815260056020908152604080832094871680845294825291829020805460ff191686151590811790915591519182527f17307eab39ab6107e8899845ad3d59bd9653f200f220920489ca2b5937696c31910160405180910390a3505050565b611314848484610f21565b611320848484846114be565b610c8d5760405162461bcd60e51b81526004016106c19061203b565b6060600c80546105a390611dfb565b60606000611358836115bf565b600101905060008167ffffffffffffffff81111561137857611378611c20565b6040519080825280601f01601f1916602001820160405280156113a2576020820181803683370190505b5090508181016020015b600019016f181899199a1a9b1b9c1cb0b131b232b360811b600a86061a8153600a85049450846113ac57509392505050565b60006001600160e01b031982166380ac58cd60e01b148061140f57506001600160e01b03198216635b5e139f60e01b145b8061058e57506301ffc9a760e01b6001600160e01b031983161461058e565b611436611144565b610c8d84848484611697565b600a5460ff166108d85760405162461bcd60e51b815260206004820152601460248201527314185d5cd8589b194e881b9bdd081c185d5cd95960621b60448201526064016106c1565b61149583836117cb565b6114a260008484846114be565b6107625760405162461bcd60e51b81526004016106c19061203b565b60006001600160a01b0384163b156115b457604051630a85bd0160e11b81526001600160a01b0385169063150b7a029061150290339089908890889060040161208d565b6020604051808303816000875af192505050801561153d575060408051601f3d908101601f1916820190925261153a918101906120ca565b60015b61159a573d80801561156b576040519150601f19603f3d011682016040523d82523d6000602084013e611570565b606091505b5080516000036115925760405162461bcd60e51b81526004016106c19061203b565b805181602001fd5b6001600160e01b031916630a85bd0160e11b149050610f19565b506001949350505050565b60008072184f03e93ff9f4daa797ed6e38ed64bf6a1f0160401b83106115fe5772184f03e93ff9f4daa797ed6e38ed64bf6a1f0160401b830492506040015b6d04ee2d6d415b85acef8100000000831061162a576d04ee2d6d415b85acef8100000000830492506020015b662386f26fc10000831061164857662386f26fc10000830492506010015b6305f5e1008310611660576305f5e100830492506008015b612710831061167457612710830492506004015b60648310611686576064830492506002015b600a8310610a8f5760010192915050565b60018111156117065760405162461bcd60e51b815260206004820152603560248201527f455243373231456e756d657261626c653a20636f6e7365637574697665207472604482015274185b9cd9995c9cc81b9bdd081cdd5c1c1bdc9d1959605a1b60648201526084016106c1565b816001600160a01b0385166117625761175d81600880546000838152600960205260408120829055600182018355919091527ff3f7a9fe364faab93b216da50a3214154f22a0a2b415b23a84c8169e8b636ee30155565b611785565b836001600160a01b0316856001600160a01b031614611785576117858582611964565b6001600160a01b0384166117a15761179c81611a01565b6117c4565b846001600160a01b0316846001600160a01b0316146117c4576117c48482611ab0565b5050505050565b6001600160a01b0382166118215760405162461bcd60e51b815260206004820181905260248201527f4552433732313a206d696e7420746f20746865207a65726f206164647265737360448201526064016106c1565b6000818152600260205260409020546001600160a01b0316156118865760405162461bcd60e51b815260206004820152601c60248201527f4552433732313a20746f6b656e20616c7265616479206d696e7465640000000060448201526064016106c1565b61189460008383600161142e565b6000818152600260205260409020546001600160a01b0316156118f95760405162461bcd60e51b815260206004820152601c60248201527f4552433732313a20746f6b656e20616c7265616479206d696e7465640000000060448201526064016106c1565b6001600160a01b038216600081815260036020908152604080832080546001019055848352600290915280822080546001600160a01b0319168417905551839291907fddf252ad1be2c89b69c2b068fc378daa952ba7f163c4a11628f55a4df523b3ef908290a45050565b6000600161197184610b0b565b61197b9190611fa6565b6000838152600760205260409020549091508082146119ce576001600160a01b03841660009081526006602090815260408083208584528252808320548484528184208190558352600790915290208190555b5060009182526007602090815260408084208490556001600160a01b039094168352600681528383209183525290812055565b600854600090611a1390600190611fa6565b60008381526009602052604081205460088054939450909284908110611a3b57611a3b611f90565b906000526020600020015490508060088381548110611a5c57611a5c611f90565b6000918252602080832090910192909255828152600990915260408082208490558582528120556008805480611a9457611a946120e7565b6001900381819060005260206000200160009055905550505050565b6000611abb83610b0b565b6001600160a01b039093166000908152600660209081526040808320868452825280832085905593825260079052919091209190915550565b6001600160e01b031981168114610d7057600080fd5b600060208284031215611b1c57600080fd5b8135610cf381611af4565b60005b83811015611b42578181015183820152602001611b2a565b50506000910152565b60008151808452611b63816020860160208601611b27565b601f01601f19169290920160200192915050565b602081526000610cf36020830184611b4b565b600060208284031215611b9c57600080fd5b5035919050565b80356001600160a01b0381168114610a9257600080fd5b60008060408385031215611bcd57600080fd5b611bd683611ba3565b946020939093013593505050565b600080600060608486031215611bf957600080fd5b611c0284611ba3565b9250611c1060208501611ba3565b9150604084013590509250925092565b634e487b7160e01b600052604160045260246000fd5b600067ffffffffffffffff80841115611c5157611c51611c20565b604051601f8501601f19908116603f01168101908282118183101715611c7957611c79611c20565b81604052809350858152868686011115611c9257600080fd5b858560208301376000602087830101525050509392505050565b600060208284031215611cbe57600080fd5b813567ffffffffffffffff811115611cd557600080fd5b8201601f81018413611ce657600080fd5b610f1984823560208401611c36565b600060208284031215611d0757600080fd5b610cf382611ba3565b60008060408385031215611d2357600080fd5b611d2c83611ba3565b915060208301358015158114611d4157600080fd5b809150509250929050565b60008060008060808587031215611d6257600080fd5b611d6b85611ba3565b9350611d7960208601611ba3565b925060408501359150606085013567ffffffffffffffff811115611d9c57600080fd5b8501601f81018713611dad57600080fd5b611dbc87823560208401611c36565b91505092959194509250565b60008060408385031215611ddb57600080fd5b611de483611ba3565b9150611df260208401611ba3565b90509250929050565b600181811c90821680611e0f57607f821691505b602082108103611e2f57634e487b7160e01b600052602260045260246000fd5b50919050565b6020808252602d908201527f4552433732313a2063616c6c6572206973206e6f7420746f6b656e206f776e6560408201526c1c881bdc88185c1c1c9bdd9959609a1b606082015260800190565b601f82111561076257600081815260208120601f850160051c81016020861015611ea95750805b601f850160051c820191505b81811015611ec857828155600101611eb5565b505050505050565b815167ffffffffffffffff811115611eea57611eea611c20565b611efe81611ef88454611dfb565b84611e82565b602080601f831160018114611f335760008415611f1b5750858301515b600019600386901b1c1916600185901b178555611ec8565b600085815260208120601f198616915b82811015611f6257888601518255948401946001909101908401611f43565b5085821015611f805787850151600019600388901b60f8161c191681555b5050505050600190811b01905550565b634e487b7160e01b600052603260045260246000fd5b8181038181111561058e57634e487b7160e01b600052601160045260246000fd5b60008351611fd9818460208801611b27565b835190830190611fed818360208801611b27565b01949350505050565b60208082526025908201527f4552433732313a207472616e736665722066726f6d20696e636f72726563742060408201526437bbb732b960d91b606082015260800190565b60208082526032908201527f4552433732313a207472616e7366657220746f206e6f6e20455243373231526560408201527131b2b4bb32b91034b6b83632b6b2b73a32b960711b606082015260800190565b6001600160a01b03858116825284166020820152604081018390526080606082018190526000906120c090830184611b4b565b9695505050505050565b6000602082840312156120dc57600080fd5b8151610cf381611af4565b634e487b7160e01b600052603160045260246000fdfea2646970667358221220644f87203325ef6e087cd60128e783e10a46c55bc7277fda0c97cf6d2750fbbc64736f6c63430008130033a2646970667358221220ef52a5d5803dd70f5e388588a3bf38802b271ef260d7089690772989ecd18b8f64736f6c63430008130033",
  "linkReferences": {},
  "deployedLinkReferences": {}
}