{
  "_format": "hh-sol-artifact-1",
  "contractName": "EduBoxERC721Factory",
  "sourceName": "contracts/EduBoxERC721Factory.sol",
  "abi": [
    {
      "inputs": [
        {
          "internalType": "address",
          "name": "_feeRecipient",
          "type": "address"
        }
      ],
      "stateMutability": "nonpayable",
      "type": "constructor"
    },
    {
      "anonymous": false,
      "inputs": [
        {
          "indexed": false,
          "internalType": "uint256",
          "name": "newFee",
          "type": "uint256"
        }
      ],
      "name": "DeploymentFeeUpdated",
      "type": "event"
    },
    {
      "anonymous": false,
      "inputs": [
        {
          "indexed": false,
          "internalType": "address",
          "name": "newRecipient",
          "type": "address"
        }
      ],
      "name": "FeeRecipientUpdated",
      "type": "event"
    },
    {
      "anonymous": false,
      "inputs": [
        {
          "indexed": true,
          "internalType": "address",
          "name": "owner",
          "type": "address"
        },
        {
          "indexed": true,
          "internalType": "address",
          "name": "nftContract",
          "type": "address"
        },
        {
          "indexed": false,
          "internalType": "string",
          "name": "name",
          "type": "string"
        },
        {
          "indexed": false,
          "internalType": "string",
          "name": "symbol",
          "type": "string"
        },
        {
          "indexed": false,
          "internalType": "uint256",
          "name": "maxSupply",
          "type": "uint256"
        },
        {
          "indexed": false,
          "internalType": "uint256",
          "name": "mintPrice",
          "type": "uint256"
        },
        {
          "indexed": false,
          "internalType": "uint96",
          "name": "royaltyFee",
          "type": "uint96"
        }
      ],
      "name": "NFTContractDeployed",
      "type": "event"
    },
    {
      "anonymous": false,
      "inputs": [
        {
          "indexed": true,
          "internalType": "address",
          "name": "previousOwner",
          "type": "address"
        },
        {
          "indexed": true,
          "internalType": "address",
          "name": "newOwner",
          "type": "address"
        }
      ],
      "name": "OwnershipTransferred",
      "type": "event"
    },
    {
      "inputs": [
        {
          "internalType": "string",
          "name": "name",
          "type": "string"
        },
        {
          "internalType": "string",
          "name": "symbol",
          "type": "string"
        },
        {
          "internalType": "string",
          "name": "baseTokenURI",
          "type": "string"
        },
        {
          "internalType": "string",
          "name": "collectionURI",
          "type": "string"
        },
        {
          "internalType": "uint256",
          "name": "maxSupply",
          "type": "uint256"
        },
        {
          "internalType": "uint256",
          "name": "mintPrice",
          "type": "uint256"
        },
        {
          "internalType": "uint96",
          "name": "royaltyFee",
          "type": "uint96"
        }
      ],
      "name": "deployNFTContract",
      "outputs": [
        {
          "internalType": "address",
          "name": "",
          "type": "address"
        }
      ],
      "stateMutability": "payable",
      "type": "function"
    },
    {
      "inputs": [
        {
          "internalType": "uint256",
          "name": "",
          "type": "uint256"
        }
      ],
      "name": "deployedCollections",
      "outputs": [
        {
          "internalType": "address",
          "name": "contractAddress",
          "type": "address"
        },
        {
          "internalType": "string",
          "name": "name",
          "type": "string"
        },
        {
          "internalType": "string",
          "name": "symbol",
          "type": "string"
        },
        {
          "internalType": "string",
          "name": "baseURI",
          "type": "string"
        },
        {
          "internalType": "string",
          "name": "collectionURI",
          "type": "string"
        },
        {
          "internalType": "uint256",
          "name": "maxSupply",
          "type": "uint256"
        },
        {
          "internalType": "uint256",
          "name": "mintPrice",
          "type": "uint256"
        },
        {
          "internalType": "uint96",
          "name": "royaltyFee",
          "type": "uint96"
        },
        {
          "internalType": "address",
          "name": "owner",
          "type": "address"
        }
      ],
      "stateMutability": "view",
      "type": "function"
    },
    {
      "inputs": [],
      "name": "deploymentFee",
      "outputs": [
        {
          "internalType": "uint256",
          "name": "",
          "type": "uint256"
        }
      ],
      "stateMutability": "view",
      "type": "function"
    },
    {
      "inputs": [],
      "name": "feeRecipient",
      "outputs": [
        {
          "internalType": "address",
          "name": "",
          "type": "address"
        }
      ],
      "stateMutability": "view",
      "type": "function"
    },
    {
      "inputs": [],
      "name": "getDeployedCollections",
      "outputs": [
        {
          "components": [
            {
              "internalType": "address",
              "name": "contractAddress",
              "type": "address"
            },
            {
              "internalType": "string",
              "name": "name",
              "type": "string"
            },
            {
              "internalType": "string",
              "name": "symbol",
              "type": "string"
            },
            {
              "internalType": "string",
              "name": "baseURI",
              "type": "string"
            },
            {
              "internalType": "string",
              "name": "collectionURI",
              "type": "string"
            },
            {
              "internalType": "uint256",
              "name": "maxSupply",
              "type": "uint256"
            },
            {
              "internalType": "uint256",
              "name": "mintPrice",
              "type": "uint256"
            },
            {
              "internalType": "uint96",
              "name": "royaltyFee",
              "type": "uint96"
            },
            {
              "internalType": "address",
              "name": "owner",
              "type": "address"
            }
          ],
          "internalType": "struct EduBoxERC721Factory.CollectionInfo[]",
          "name": "",
          "type": "tuple[]"
        }
      ],
      "stateMutability": "view",
      "type": "function"
    },
    {
      "inputs": [
        {
          "internalType": "address",
          "name": "user",
          "type": "address"
        }
      ],
      "name": "getUserCollections",
      "outputs": [
        {
          "components": [
            {
              "internalType": "address",
              "name": "contractAddress",
              "type": "address"
            },
            {
              "internalType": "string",
              "name": "name",
              "type": "string"
            },
            {
              "internalType": "string",
              "name": "symbol",
              "type": "string"
            },
            {
              "internalType": "string",
              "name": "baseURI",
              "type": "string"
            },
            {
              "internalType": "string",
              "name": "collectionURI",
              "type": "string"
            },
            {
              "internalType": "uint256",
              "name": "maxSupply",
              "type": "uint256"
            },
            {
              "internalType": "uint256",
              "name": "mintPrice",
              "type": "uint256"
            },
            {
              "internalType": "uint96",
              "name": "royaltyFee",
              "type": "uint96"
            },
            {
              "internalType": "address",
              "name": "owner",
              "type": "address"
            }
          ],
          "internalType": "struct EduBoxERC721Factory.CollectionInfo[]",
          "name": "",
          "type": "tuple[]"
        }
      ],
      "stateMutability": "view",
      "type": "function"
    },
    {
      "inputs": [],
      "name": "owner",
      "outputs": [
        {
          "internalType": "address",
          "name": "",
          "type": "address"
        }
      ],
      "stateMutability": "view",
      "type": "function"
    },
    {
      "inputs": [],
      "name": "renounceOwnership",
      "outputs": [],
      "stateMutability": "nonpayable",
      "type": "function"
    },
    {
      "inputs": [
        {
          "internalType": "uint256",
          "name": "newFee",
          "type": "uint256"
        }
      ],
      "name": "setDeploymentFee",
      "outputs": [],
      "stateMutability": "nonpayable",
      "type": "function"
    },
    {
      "inputs": [
        {
          "internalType": "address",
          "name": "newRecipient",
          "type": "address"
        }
      ],
      "name": "setFeeRecipient",
      "outputs": [],
      "stateMutability": "nonpayable",
      "type": "function"
    },
    {
      "inputs": [
        {
          "internalType": "address",
          "name": "newOwner",
          "type": "address"
        }
      ],
      "name": "transferOwnership",
      "outputs": [],
      "stateMutability": "nonpayable",
      "type": "function"
    },
    {
      "inputs": [
        {
          "internalType": "address",
          "name": "",
          "type": "address"
        },
        {
          "internalType": "uint256",
          "name": "",
          "type": "uint256"
        }
      ],
      "name": "userCollections",
      "outputs": [
        {
          "internalType": "address",
          "name": "contractAddress",
          "type": "address"
        },
        {
          "internalType": "string",
          "name": "name",
          "type": "string"
        },
        {
          "internalType": "string",
          "name": "symbol",
          "type": "string"
        },
        {
          "internalType": "string",
          "name": "baseURI",
          "type": "string"
        },
        {
          "internalType": "string",
          "name": "collectionURI",
          "type": "string"
        },
        {
          "internalType": "uint256",
          "name": "maxSupply",
          "type": "uint256"
        },
        {
          "internalType": "uint256",
          "name": "mintPrice",
          "type": "uint256"
        },
        {
          "internalType": "uint96",
          "name": "royaltyFee",
          "type": "uint96"
        },
        {
          "internalType": "address",
          "name": "owner",
          "type": "address"
        }
      ],
      "stateMutability": "view",
      "type": "function"
    },
    {
      "inputs": [],
      "name": "withdraw",
      "outputs": [],
      "stateMutability": "nonpayable",
      "type": "function"
    }
  ],
  "bytecode": "0x6080604052670de0b6b3a76400006001553480156200001d57600080fd5b5060405162004eea38038062004eea833981016040819052620000409162000123565b6200004b33620000d3565b6001600160a01b038116620000a65760405162461bcd60e51b815260206004820152601560248201527f496e76616c69642066656520726563697069656e740000000000000000000000604482015260640160405180910390fd5b50600280546001600160a01b0319167389486a59fb05196745c50e80f9ace761e919d77d17905562000155565b600080546001600160a01b038381166001600160a01b0319831681178455604051919092169283917f8be0079c531659141344cd1fd0a4f28419497f9722a3daafe3b4186f6b6457e09190a35050565b6000602082840312156200013657600080fd5b81516001600160a01b03811681146200014e57600080fd5b9392505050565b614d8580620001656000396000f3fe608060405260043610620000d25760003560e01c80638da5cb5b1162000089578063d002462b1162000060578063d002462b146200022c578063e74b981b1462000251578063f2cff57f1462000276578063f2fde38b146200029d57600080fd5b80638da5cb5b14620001c05780639aa5ad8c14620001e05780639e4fe1b0146200021457600080fd5b80630b31378914620000d757806331d9b409146200010b5780633ccfd60b1462000147578063428a61711462000161578063469048401462000186578063715018a614620001a8575b600080fd5b620000ee620000e8366004620014c9565b620002c2565b6040516001600160a01b0390911681526020015b60405180910390f35b3480156200011857600080fd5b50620001306200012a366004620015a9565b620007fe565b60405162000102999897969594939291906200160b565b3480156200015457600080fd5b506200015f62000aba565b005b3480156200016e57600080fd5b506200013062000180366004620016c3565b62000b15565b3480156200019357600080fd5b50600254620000ee906001600160a01b031681565b348015620001b557600080fd5b506200015f62000b65565b348015620001cd57600080fd5b506000546001600160a01b0316620000ee565b348015620001ed57600080fd5b5062000205620001ff366004620016f0565b62000b7d565b60405162000102919062001715565b3480156200022157600080fd5b506200020562000eb6565b3480156200023957600080fd5b506200015f6200024b366004620015a9565b620011d9565b3480156200025e57600080fd5b506200015f62000270366004620016f0565b6200121f565b3480156200028357600080fd5b506200028e60015481565b60405190815260200162000102565b348015620002aa57600080fd5b506200015f620002bc366004620016f0565b620012c8565b60006001543410156200031c5760405162461bcd60e51b815260206004820152601b60248201527f496e73756666696369656e74206465706c6f796d656e7420666565000000000060448201526064015b60405180910390fd5b60008411620003785760405162461bcd60e51b815260206004820152602160248201527f4d617820737570706c79206d7573742062652067726561746572207468616e206044820152600360fc1b606482015260840162000313565b612710826001600160601b03161115620003d55760405162461bcd60e51b815260206004820152601e60248201527f526f79616c7479206665652063616e6e6f742065786365656420313030250000604482015260640162000313565b6000888888878787604051620003eb90620013f3565b620003fc9695949392919062001838565b604051809103906000f08015801562000419573d6000803e3d6000fd5b50604051630131cfa360e51b81529091506001600160a01b03821690632639f460906200044b9089906004016200189f565b600060405180830381600087803b1580156200046657600080fd5b505af11580156200047b573d6000803e3d6000fd5b505060405163f2fde38b60e01b81523360048201526001600160a01b038416925063f2fde38b9150602401600060405180830381600087803b158015620004c157600080fd5b505af1158015620004d6573d6000803e3d6000fd5b505060408051610120810182526001600160a01b038581168252602082018e81529282018d9052606082018c9052608082018b905260a082018a905260c082018990526001600160601b03881660e0830152336101008301526003805460018101825560009190915282517fc2575a0e9e593c00f959f8c92f12db2869c3395a3b0502d05e2516446f71f85b600890920291820180546001600160a01b031916919093161782559251919450849350917fc2575a0e9e593c00f959f8c92f12db2869c3395a3b0502d05e2516446f71f85c0190620005b5908262001943565b5060408201516002820190620005cc908262001943565b5060608201516003820190620005e3908262001943565b5060808201516004820190620005fa908262001943565b5060a0820151600582015560c0820151600682015560e0820151610100909201516001600160601b03909216600160601b6001600160a01b039384160217600790910155336000908152600460209081526040822080546001808201835591845292829020855160089094020180546001600160a01b0319169390941692909217835583015183929182019062000692908262001943565b5060408201516002820190620006a9908262001943565b5060608201516003820190620006c0908262001943565b5060808201516004820190620006d7908262001943565b5060a0820151600582015560c0820151600682015560e0820151610100909201516001600160601b03909216600160601b6001600160a01b03938416021760079091015560025460015460405191909216916108fc811502916000818181858888f1935050505015801562000750573d6000803e3d6000fd5b506001543411156200079c5760015433906108fc9062000771903462001a10565b6040518115909202916000818181858888f193505050501580156200079a573d6000803e3d6000fd5b505b816001600160a01b0316336001600160a01b03167fe774a10c03bc3f99555f23558d9047f4bf89f4380cebc4c8393bd84a22deff3b8c8c8a8a8a604051620007e995949392919062001a38565b60405180910390a35098975050505050505050565b600381815481106200080f57600080fd5b6000918252602090912060089091020180546001820180546001600160a01b039092169350906200084090620018b4565b80601f01602080910402602001604051908101604052809291908181526020018280546200086e90620018b4565b8015620008bf5780601f106200089357610100808354040283529160200191620008bf565b820191906000526020600020905b815481529060010190602001808311620008a157829003601f168201915b505050505090806002018054620008d690620018b4565b80601f01602080910402602001604051908101604052809291908181526020018280546200090490620018b4565b8015620009555780601f10620009295761010080835404028352916020019162000955565b820191906000526020600020905b8154815290600101906020018083116200093757829003601f168201915b5050505050908060030180546200096c90620018b4565b80601f01602080910402602001604051908101604052809291908181526020018280546200099a90620018b4565b8015620009eb5780601f10620009bf57610100808354040283529160200191620009eb565b820191906000526020600020905b815481529060010190602001808311620009cd57829003601f168201915b50505050509080600401805462000a0290620018b4565b80601f016020809104026020016040519081016040528092919081815260200182805462000a3090620018b4565b801562000a815780601f1062000a555761010080835404028352916020019162000a81565b820191906000526020600020905b81548152906001019060200180831162000a6357829003601f168201915b5050505060058301546006840154600790940154929390929091506001600160601b03811690600160601b90046001600160a01b031689565b62000ac462001347565b4762000ad86000546001600160a01b031690565b6001600160a01b03166108fc829081150290604051600060405180830381858888f1935050505015801562000b11573d6000803e3d6000fd5b5050565b6004602052816000526040600020818154811062000b3257600080fd5b6000918252602090912060089091020180546001820180546001600160a01b0390921694509192506200084090620018b4565b62000b6f62001347565b62000b7b6000620013a3565b565b6001600160a01b0381166000908152600460209081526040808320805482518185028101850190935280835260609492939192909184015b8282101562000eab5760008481526020908190206040805161012081019091526008850290910180546001600160a01b03168252600181018054929391929184019162000c0290620018b4565b80601f016020809104026020016040519081016040528092919081815260200182805462000c3090620018b4565b801562000c815780601f1062000c555761010080835404028352916020019162000c81565b820191906000526020600020905b81548152906001019060200180831162000c6357829003601f168201915b5050505050815260200160028201805462000c9c90620018b4565b80601f016020809104026020016040519081016040528092919081815260200182805462000cca90620018b4565b801562000d1b5780601f1062000cef5761010080835404028352916020019162000d1b565b820191906000526020600020905b81548152906001019060200180831162000cfd57829003601f168201915b5050505050815260200160038201805462000d3690620018b4565b80601f016020809104026020016040519081016040528092919081815260200182805462000d6490620018b4565b801562000db55780601f1062000d895761010080835404028352916020019162000db5565b820191906000526020600020905b81548152906001019060200180831162000d9757829003601f168201915b5050505050815260200160048201805462000dd090620018b4565b80601f016020809104026020016040519081016040528092919081815260200182805462000dfe90620018b4565b801562000e4f5780601f1062000e235761010080835404028352916020019162000e4f565b820191906000526020600020905b81548152906001019060200180831162000e3157829003601f168201915b50505091835250506005820154602080830191909152600683015460408301526007909201546001600160601b0381166060830152600160601b90046001600160a01b0316608090910152908252600192909201910162000bb5565b505050509050919050565b60606003805480602002602001604051908101604052809291908181526020016000905b82821015620011d05760008481526020908190206040805161012081019091526008850290910180546001600160a01b03168252600181018054929391929184019162000f2790620018b4565b80601f016020809104026020016040519081016040528092919081815260200182805462000f5590620018b4565b801562000fa65780601f1062000f7a5761010080835404028352916020019162000fa6565b820191906000526020600020905b81548152906001019060200180831162000f8857829003601f168201915b5050505050815260200160028201805462000fc190620018b4565b80601f016020809104026020016040519081016040528092919081815260200182805462000fef90620018b4565b8015620010405780601f10620010145761010080835404028352916020019162001040565b820191906000526020600020905b8154815290600101906020018083116200102257829003601f168201915b505050505081526020016003820180546200105b90620018b4565b80601f01602080910402602001604051908101604052809291908181526020018280546200108990620018b4565b8015620010da5780601f10620010ae57610100808354040283529160200191620010da565b820191906000526020600020905b815481529060010190602001808311620010bc57829003601f168201915b50505050508152602001600482018054620010f590620018b4565b80601f01602080910402602001604051908101604052809291908181526020018280546200112390620018b4565b8015620011745780601f10620011485761010080835404028352916020019162001174565b820191906000526020600020905b8154815290600101906020018083116200115657829003601f168201915b50505091835250506005820154602080830191909152600683015460408301526007909201546001600160601b0381166060830152600160601b90046001600160a01b0316608090910152908252600192909201910162000eda565b50505050905090565b620011e362001347565b60018190556040518181527f40bd824d588484917db8fa4fc894c1e0feae5a75885290ba7b97521cebf82a80906020015b60405180910390a150565b6200122962001347565b6001600160a01b038116620012795760405162461bcd60e51b8152602060048201526015602482015274125b9d985b1a5908199959481c9958da5c1a595b9d605a1b604482015260640162000313565b600280546001600160a01b0319166001600160a01b0383169081179091556040519081527f7a7b5a0a132f9e0581eb8527f66eae9ee89c2a3e79d4ac7e41a1f1f4d48a7fc29060200162001214565b620012d262001347565b6001600160a01b038116620013395760405162461bcd60e51b815260206004820152602660248201527f4f776e61626c653a206e6577206f776e657220697320746865207a65726f206160448201526564647265737360d01b606482015260840162000313565b6200134481620013a3565b50565b6000546001600160a01b0316331462000b7b5760405162461bcd60e51b815260206004820181905260248201527f4f776e61626c653a2063616c6c6572206973206e6f7420746865206f776e6572604482015260640162000313565b600080546001600160a01b038381166001600160a01b0319831681178455604051919092169283917f8be0079c531659141344cd1fd0a4f28419497f9722a3daafe3b4186f6b6457e09190a35050565b6132c78062001a8983390190565b634e487b7160e01b600052604160045260246000fd5b600082601f8301126200142957600080fd5b813567ffffffffffffffff8082111562001447576200144762001401565b604051601f8301601f19908116603f0116810190828211818310171562001472576200147262001401565b816040528381528660208588010111156200148c57600080fd5b836020870160208301376000602085830101528094505050505092915050565b80356001600160601b0381168114620014c457600080fd5b919050565b600080600080600080600060e0888a031215620014e557600080fd5b873567ffffffffffffffff80821115620014fe57600080fd5b6200150c8b838c0162001417565b985060208a01359150808211156200152357600080fd5b620015318b838c0162001417565b975060408a01359150808211156200154857600080fd5b620015568b838c0162001417565b965060608a01359150808211156200156d57600080fd5b506200157c8a828b0162001417565b9450506080880135925060a088013591506200159b60c08901620014ac565b905092959891949750929550565b600060208284031215620015bc57600080fd5b5035919050565b6000815180845260005b81811015620015eb57602081850181015186830182015201620015cd565b506000602082860101526020601f19601f83011685010191505092915050565b6001600160a01b038a8116825261012060208301819052600091620016338483018d620015c3565b9150838203604085015262001649828c620015c3565b915083820360608501526200165f828b620015c3565b9150838203608085015262001675828a620015c3565b92508760a08501528660c08501526001600160601b03861660e085015280851661010085015250509a9950505050505050505050565b80356001600160a01b0381168114620014c457600080fd5b60008060408385031215620016d757600080fd5b620016e283620016ab565b946020939093013593505050565b6000602082840312156200170357600080fd5b6200170e82620016ab565b9392505050565b60006020808301818452808551808352604092508286019150828160051b87010184880160005b838110156200182a57888303603f19018552815180516001600160a01b0316845261012088820151818a8701526200177782870182620015c3565b9150508782015185820389870152620017918282620015c3565b91505060608083015186830382880152620017ad8382620015c3565b9250505060808083015186830382880152620017ca8382620015c3565b9250505060a080830151818701525060c080830151818701525060e080830151620017ff828801826001600160601b03169052565b5050610100918201516001600160a01b0316949091019390935293860193908601906001016200173c565b509098975050505050505050565b60c0815260006200184d60c0830189620015c3565b8281036020840152620018618189620015c3565b90508281036040840152620018778188620015c3565b6060840196909652505060808101929092526001600160601b031660a0909101529392505050565b6020815260006200170e6020830184620015c3565b600181811c90821680620018c957607f821691505b602082108103620018ea57634e487b7160e01b600052602260045260246000fd5b50919050565b601f8211156200193e57600081815260208120601f850160051c81016020861015620019195750805b601f850160051c820191505b818110156200193a5782815560010162001925565b5050505b505050565b815167ffffffffffffffff81111562001960576200196062001401565b6200197881620019718454620018b4565b84620018f0565b602080601f831160018114620019b05760008415620019975750858301515b600019600386901b1c1916600185901b1785556200193a565b600085815260208120601f198616915b82811015620019e157888601518255948401946001909101908401620019c0565b508582101562001a005787850151600019600388901b60f8161c191681555b5050505050600190811b01905550565b8181038181111562001a3257634e487b7160e01b600052601160045260246000fd5b92915050565b60a08152600062001a4d60a0830188620015c3565b828103602084015262001a618188620015c3565b6040840196909652505060608101929092526001600160601b03166080909101529291505056fe60806040523480156200001157600080fd5b50604051620032c7380380620032c78339810160408190526200003491620002c0565b8585600062000044838262000417565b50600162000053828262000417565b5050600c805460ff19169055506200006b336200009c565b600e62000079858262000417565b50600f8390556010829055620000903382620000f6565b505050505050620004e3565b600c80546001600160a01b03838116610100818102610100600160a81b031985161790945560405193909204169182907f8be0079c531659141344cd1fd0a4f28419497f9722a3daafe3b4186f6b6457e090600090a35050565b6127106001600160601b03821611156200016a5760405162461bcd60e51b815260206004820152602a60248201527f455243323938313a20726f79616c7479206665652077696c6c206578636565646044820152692073616c65507269636560b01b60648201526084015b60405180910390fd5b6001600160a01b038216620001c25760405162461bcd60e51b815260206004820152601960248201527f455243323938313a20696e76616c696420726563656976657200000000000000604482015260640162000161565b604080518082019091526001600160a01b039092168083526001600160601b039091166020909201829052600160a01b90910217600a55565b634e487b7160e01b600052604160045260246000fd5b600082601f8301126200022357600080fd5b81516001600160401b0380821115620002405762000240620001fb565b604051601f8301601f19908116603f011681019082821181831017156200026b576200026b620001fb565b816040528381526020925086838588010111156200028857600080fd5b600091505b83821015620002ac57858201830151818301840152908201906200028d565b600093810190920192909252949350505050565b60008060008060008060c08789031215620002da57600080fd5b86516001600160401b0380821115620002f257600080fd5b620003008a838b0162000211565b975060208901519150808211156200031757600080fd5b620003258a838b0162000211565b965060408901519150808211156200033c57600080fd5b506200034b89828a0162000211565b606089015160808a015160a08b0151929750909550935090506001600160601b03811681146200037a57600080fd5b809150509295509295509295565b600181811c908216806200039d57607f821691505b602082108103620003be57634e487b7160e01b600052602260045260246000fd5b50919050565b601f8211156200041257600081815260208120601f850160051c81016020861015620003ed5750805b601f850160051c820191505b818110156200040e57828155600101620003f9565b5050505b505050565b81516001600160401b03811115620004335762000433620001fb565b6200044b8162000444845462000388565b84620003c4565b602080601f8311600181146200048357600084156200046a5750858301515b600019600386901b1c1916600185901b1785556200040e565b600085815260208120601f198616915b82811015620004b45788860151825594840194600190910190840162000493565b5085821015620004d35787850151600019600388901b60f8161c191681555b5050505050600190811b01905550565b612dd480620004f36000396000f3fe6080604052600436106102255760003560e01c80636817c76c11610123578063b5d279e7116100ab578063e985e9c51161006f578063e985e9c514610648578063ea05a8c614610691578063eacabe14146106b1578063f2fde38b146106c4578063f4a0a528146106e457600080fd5b8063b5d279e7146105b2578063b88d4fde146105d2578063c87b56dd146105f2578063d35dd46214610612578063d5abeb011461063257600080fd5b80638da5cb5b116100f25780638da5cb5b1461051557806395d89b41146105385780639b19251a1461054d578063a22cb4651461057d578063a5097ebf1461059d57600080fd5b80636817c76c146104b557806370a08231146104cb578063715018a6146104eb5780638456cb591461050057600080fd5b80632a55205a116101b15780634b4687b5116101755780634b4687b5146104235780634f6ccce71461043d57806355f804b31461045d5780635c975abb1461047d5780636352211e1461049557600080fd5b80632a55205a1461037a5780632f745c59146103b95780633ccfd60b146103d95780633f4ba83a146103ee57806342842e0e1461040357600080fd5b8063095ea7b3116101f8578063095ea7b3146102db5780630c424284146102fb57806318160ddd1461031b57806323b872dd1461033a5780632639f4601461035a57600080fd5b806301ffc9a71461022a57806302fa7c471461025f57806306fdde0314610281578063081812fc146102a3575b600080fd5b34801561023657600080fd5b5061024a6102453660046124a8565b610704565b60405190151581526020015b60405180910390f35b34801561026b57600080fd5b5061027f61027a3660046124e1565b610715565b005b34801561028d57600080fd5b5061029661072b565b6040516102569190612574565b3480156102af57600080fd5b506102c36102be366004612587565b6107bd565b6040516001600160a01b039091168152602001610256565b3480156102e757600080fd5b5061027f6102f63660046125a0565b6107e4565b34801561030757600080fd5b5061027f6103163660046125da565b6108fe565b34801561032757600080fd5b506008545b604051908152602001610256565b34801561034657600080fd5b5061027f61035536600461260d565b610965565b34801561036657600080fd5b5061027f610375366004612708565b610996565b34801561038657600080fd5b5061039a61039536600461273d565b6109e5565b604080516001600160a01b039093168352602083019190915201610256565b3480156103c557600080fd5b5061032c6103d43660046125a0565b610a91565b3480156103e557600080fd5b5061027f610b27565b3480156103fa57600080fd5b5061027f610b6e565b34801561040f57600080fd5b5061027f61041e36600461260d565b610b80565b34801561042f57600080fd5b5060115461024a9060ff1681565b34801561044957600080fd5b5061032c610458366004612587565b610b9b565b34801561046957600080fd5b5061027f610478366004612708565b610c2e565b34801561048957600080fd5b50600c5460ff1661024a565b3480156104a157600080fd5b506102c36104b0366004612587565b610c42565b3480156104c157600080fd5b5061032c60105481565b3480156104d757600080fd5b5061032c6104e636600461275f565b610ca2565b3480156104f757600080fd5b5061027f610d28565b34801561050c57600080fd5b5061027f610d3a565b34801561052157600080fd5b50600c5461010090046001600160a01b03166102c3565b34801561054457600080fd5b50610296610d4a565b34801561055957600080fd5b5061024a61056836600461275f565b60126020526000908152604090205460ff1681565b34801561058957600080fd5b5061027f6105983660046125da565b610d59565b3480156105a957600080fd5b50610296610d64565b6105c56105c036600461277a565b610df2565b6040516102569190612858565b3480156105de57600080fd5b5061027f6105ed36600461289c565b6110a1565b3480156105fe57600080fd5b5061029661060d366004612587565b6110d9565b34801561061e57600080fd5b5061027f61062d366004612918565b611250565b34801561063e57600080fd5b5061032c600f5481565b34801561065457600080fd5b5061024a61066336600461299c565b6001600160a01b03918216600090815260056020908152604080832093909416825291909152205460ff1690565b34801561069d57600080fd5b5061027f6106ac3660046129c6565b611334565b61032c6106bf3660046129e1565b61137d565b3480156106d057600080fd5b5061027f6106df36600461275f565b611511565b3480156106f057600080fd5b5061027f6106ff366004612587565b61158a565b600061070f826115c7565b92915050565b61071d6115ec565b610727828261164c565b5050565b60606000805461073a90612a2f565b80601f016020809104026020016040519081016040528092919081815260200182805461076690612a2f565b80156107b35780601f10610788576101008083540402835291602001916107b3565b820191906000526020600020905b81548152906001019060200180831161079657829003601f168201915b5050505050905090565b60006107c882611749565b506000908152600460205260409020546001600160a01b031690565b60006107ef82610c42565b9050806001600160a01b0316836001600160a01b0316036108615760405162461bcd60e51b815260206004820152602160248201527f4552433732313a20617070726f76616c20746f2063757272656e74206f776e656044820152603960f91b60648201526084015b60405180910390fd5b336001600160a01b038216148061087d575061087d8133610663565b6108ef5760405162461bcd60e51b815260206004820152603d60248201527f4552433732313a20617070726f76652063616c6c6572206973206e6f7420746f60448201527f6b656e206f776e6572206f7220617070726f76656420666f7220616c6c0000006064820152608401610858565b6108f983836117a8565b505050565b6109066115ec565b6001600160a01b038216600081815260126020908152604091829020805460ff191685151590811790915591519182527ff93f9a76c1bf3444d22400a00cb9fe990e6abe9dbb333fda48859cfee864543d910160405180910390a25050565b61096f3382611816565b61098b5760405162461bcd60e51b815260040161085890612a69565b6108f9838383611894565b61099e6115ec565b60146109aa8282612b04565b507f88200832d1fe27eee076bea36a10a1eb73b9d27d9e6e5e2626a83d62ffc9ae5c816040516109da9190612574565b60405180910390a150565b6000828152600b602090815260408083208151808301909252546001600160a01b038116808352600160a01b9091046001600160601b0316928201929092528291610a5a575060408051808201909152600a546001600160a01b0381168252600160a01b90046001600160601b031660208201525b602081015160009061271090610a79906001600160601b031687612bda565b610a839190612bf1565b915196919550909350505050565b6000610a9c83610ca2565b8210610afe5760405162461bcd60e51b815260206004820152602b60248201527f455243373231456e756d657261626c653a206f776e657220696e646578206f7560448201526a74206f6620626f756e647360a81b6064820152608401610858565b506001600160a01b03919091166000908152600660209081526040808320938352929052205490565b610b2f6115ec565b600c54604051479161010090046001600160a01b0316906108fc8315029083906000818181858888f19350505050158015610727573d6000803e3d6000fd5b610b766115ec565b610b7e611a05565b565b6108f9838383604051806020016040528060008152506110a1565b6000610ba660085490565b8210610c095760405162461bcd60e51b815260206004820152602c60248201527f455243373231456e756d657261626c653a20676c6f62616c20696e646578206f60448201526b7574206f6620626f756e647360a01b6064820152608401610858565b60088281548110610c1c57610c1c612c13565b90600052602060002001549050919050565b610c366115ec565b600e6107278282612b04565b6000818152600260205260408120546001600160a01b03168061070f5760405162461bcd60e51b8152602060048201526018602482015277115490cdcc8c4e881a5b9d985b1a59081d1bdad95b88125160421b6044820152606401610858565b60006001600160a01b038216610d0c5760405162461bcd60e51b815260206004820152602960248201527f4552433732313a2061646472657373207a65726f206973206e6f7420612076616044820152683634b21037bbb732b960b91b6064820152608401610858565b506001600160a01b031660009081526003602052604090205490565b610d306115ec565b610b7e6000611a57565b610d426115ec565b610b7e611ab1565b60606001805461073a90612a2f565b610727338383611aee565b60148054610d7190612a2f565b80601f0160208091040260200160405190810160405280929190818152602001828054610d9d90612a2f565b8015610dea5780601f10610dbf57610100808354040283529160200191610dea565b820191906000526020600020905b815481529060010190602001808311610dcd57829003601f168201915b505050505081565b6060610dfc611bbc565b81601054610e0a9190612bda565b341015610e505760405162461bcd60e51b8152602060048201526014602482015273125b9cdd59999a58da595b9d081c185e5b595b9d60621b6044820152606401610858565b600f5482610e5d600d5490565b610e679190612c29565b1115610eb55760405162461bcd60e51b815260206004820152601760248201527f576f756c6420657863656564206d617820737570706c790000000000000000006044820152606401610858565b60115460ff1615610f22576001600160a01b03841660009081526012602052604090205460ff16610f225760405162461bcd60e51b81526020600482015260176024820152761059191c995cdcc81b9bdd081dda1a5d195b1a5cdd1959604a1b6044820152606401610858565b60008267ffffffffffffffff811115610f3d57610f3d612649565b604051908082528060200260200182016040528015610f66578160200160208202803683370190505b50905060005b8381101561100457610f82600d80546001019055565b6000610f8d600d5490565b9050610f998782611c02565b858281518110610fab57610fab612c13565b6020026020010151601360008381526020019081526020016000209081610fd29190612b04565b5080838381518110610fe657610fe6612c13565b60209081029190910101525080610ffc81612c3c565b915050610f6c565b506000836010546110159190612bda565b90508034111561105757336108fc61102d8334612c55565b6040518115909202916000818181858888f19350505050158015611055573d6000803e3d6000fd5b505b856001600160a01b03167f0fccc44f8f4572066001d167eac735aa3f72308ef306fd3af1b0bb0b6a7ba90f836040516110909190612858565b60405180910390a250949350505050565b6110ab3383611816565b6110c75760405162461bcd60e51b815260040161085890612a69565b6110d384848484611c1c565b50505050565b6000818152600260205260409020546060906001600160a01b03166111585760405162461bcd60e51b815260206004820152602f60248201527f4552433732314d657461646174613a2055524920717565727920666f72206e6f60448201526e3732bc34b9ba32b73a103a37b5b2b760891b6064820152608401610858565b6000828152601360205260408120805461117190612a2f565b80601f016020809104026020016040519081016040528092919081815260200182805461119d90612a2f565b80156111ea5780601f106111bf576101008083540402835291602001916111ea565b820191906000526020600020905b8154815290600101906020018083116111cd57829003601f168201915b5050505050905060006111fb611c4f565b9050805160000361120d575092915050565b81511561123f578082604051602001611227929190612c68565b60405160208183030381529060405292505050919050565b61124884611c5e565b949350505050565b6112586115ec565b60005b828110156110d357816012600086868581811061127a5761127a612c13565b905060200201602081019061128f919061275f565b6001600160a01b031681526020810191909152604001600020805460ff19169115159190911790558383828181106112c9576112c9612c13565b90506020020160208101906112de919061275f565b6001600160a01b03167ff93f9a76c1bf3444d22400a00cb9fe990e6abe9dbb333fda48859cfee864543d8360405161131a911515815260200190565b60405180910390a28061132c81612c3c565b91505061125b565b61133c6115ec565b6011805460ff19168215159081179091556040519081527fc5adb7a3e0caa658c5dfbc02ccfe5818a5c86341b02a2c272fdb7d9e5df97778906020016109da565b6000611387611bbc565b6010543410156113d05760405162461bcd60e51b8152602060048201526014602482015273125b9cdd59999a58da595b9d081c185e5b595b9d60621b6044820152606401610858565b600f54600d54106114185760405162461bcd60e51b815260206004820152601260248201527113585e081cdd5c1c1b1e481c995858da195960721b6044820152606401610858565b60115460ff1615611485576001600160a01b03831660009081526012602052604090205460ff166114855760405162461bcd60e51b81526020600482015260176024820152761059191c995cdcc81b9bdd081dda1a5d195b1a5cdd1959604a1b6044820152606401610858565b611493600d80546001019055565b600061149e600d5490565b90506114aa8482611c02565b60008181526013602052604090206114c28482612b04565b5060105434111561150a5760105433906108fc906114e09034612c55565b6040518115909202916000818181858888f19350505050158015611508573d6000803e3d6000fd5b505b9392505050565b6115196115ec565b6001600160a01b03811661157e5760405162461bcd60e51b815260206004820152602660248201527f4f776e61626c653a206e6577206f776e657220697320746865207a65726f206160448201526564647265737360d01b6064820152608401610858565b61158781611a57565b50565b6115926115ec565b60108190556040518181527f525b762709cc2a983aec5ccdfd807a061f993c91090b5bcd7da92ca254976aaa906020016109da565b60006001600160e01b0319821663152a902d60e11b148061070f575061070f82611cc4565b600c546001600160a01b03610100909104163314610b7e5760405162461bcd60e51b815260206004820181905260248201527f4f776e61626c653a2063616c6c6572206973206e6f7420746865206f776e65726044820152606401610858565b6127106001600160601b03821611156116ba5760405162461bcd60e51b815260206004820152602a60248201527f455243323938313a20726f79616c7479206665652077696c6c206578636565646044820152692073616c65507269636560b01b6064820152608401610858565b6001600160a01b0382166117105760405162461bcd60e51b815260206004820152601960248201527f455243323938313a20696e76616c6964207265636569766572000000000000006044820152606401610858565b604080518082019091526001600160a01b039092168083526001600160601b039091166020909201829052600160a01b90910217600a55565b6000818152600260205260409020546001600160a01b03166115875760405162461bcd60e51b8152602060048201526018602482015277115490cdcc8c4e881a5b9d985b1a59081d1bdad95b88125160421b6044820152606401610858565b600081815260046020526040902080546001600160a01b0319166001600160a01b03841690811790915581906117dd82610c42565b6001600160a01b03167f8c5be1e5ebec7d5bd14f71427d1e84f3dd0314c0f7b2291e5b200ac8c7c3b92560405160405180910390a45050565b60008061182283610c42565b9050806001600160a01b0316846001600160a01b0316148061186957506001600160a01b0380821660009081526005602090815260408083209388168352929052205460ff165b806112485750836001600160a01b0316611882846107bd565b6001600160a01b031614949350505050565b826001600160a01b03166118a782610c42565b6001600160a01b0316146118cd5760405162461bcd60e51b815260040161085890612c97565b6001600160a01b03821661192f5760405162461bcd60e51b8152602060048201526024808201527f4552433732313a207472616e7366657220746f20746865207a65726f206164646044820152637265737360e01b6064820152608401610858565b61193c8383836001611ce9565b826001600160a01b031661194f82610c42565b6001600160a01b0316146119755760405162461bcd60e51b815260040161085890612c97565b600081815260046020908152604080832080546001600160a01b03199081169091556001600160a01b0387811680865260038552838620805460001901905590871680865283862080546001019055868652600290945282852080549092168417909155905184937fddf252ad1be2c89b69c2b068fc378daa952ba7f163c4a11628f55a4df523b3ef91a4505050565b611a0d611cfd565b600c805460ff191690557f5db9ee0a495bf2e6ff9c91a7834c1ba4fdd244a5e8aa4e537bd38aeae4b073aa335b6040516001600160a01b03909116815260200160405180910390a1565b600c80546001600160a01b03838116610100818102610100600160a81b031985161790945560405193909204169182907f8be0079c531659141344cd1fd0a4f28419497f9722a3daafe3b4186f6b6457e090600090a35050565b611ab9611bbc565b600c805460ff191660011790557f62e78cea01bee320cd4e420270b5ea74000d11b0c9f74754ebdbfc544b05a258611a3a3390565b816001600160a01b0316836001600160a01b031603611b4f5760405162461bcd60e51b815260206004820152601960248201527f4552433732313a20617070726f766520746f2063616c6c6572000000000000006044820152606401610858565b6001600160a01b03838116600081815260056020908152604080832094871680845294825291829020805460ff191686151590811790915591519182527f17307eab39ab6107e8899845ad3d59bd9653f200f220920489ca2b5937696c31910160405180910390a3505050565b600c5460ff1615610b7e5760405162461bcd60e51b815260206004820152601060248201526f14185d5cd8589b194e881c185d5cd95960821b6044820152606401610858565b610727828260405180602001604052806000815250611d46565b611c27848484611894565b611c3384848484611d79565b6110d35760405162461bcd60e51b815260040161085890612cdc565b6060600e805461073a90612a2f565b6060611c6982611749565b6000611c73611c4f565b90506000815111611c93576040518060200160405280600081525061150a565b80611c9d84611e7a565b604051602001611cae929190612c68565b6040516020818303038152906040529392505050565b60006001600160e01b0319821663780e9d6360e01b148061070f575061070f82611f0d565b611cf1611bbc565b6110d384848484611f5d565b600c5460ff16610b7e5760405162461bcd60e51b815260206004820152601460248201527314185d5cd8589b194e881b9bdd081c185d5cd95960621b6044820152606401610858565b611d508383612091565b611d5d6000848484611d79565b6108f95760405162461bcd60e51b815260040161085890612cdc565b60006001600160a01b0384163b15611e6f57604051630a85bd0160e11b81526001600160a01b0385169063150b7a0290611dbd903390899088908890600401612d2e565b6020604051808303816000875af1925050508015611df8575060408051601f3d908101601f19168201909252611df591810190612d6b565b60015b611e55573d808015611e26576040519150601f19603f3d011682016040523d82523d6000602084013e611e2b565b606091505b508051600003611e4d5760405162461bcd60e51b815260040161085890612cdc565b805181602001fd5b6001600160e01b031916630a85bd0160e11b149050611248565b506001949350505050565b60606000611e878361222a565b600101905060008167ffffffffffffffff811115611ea757611ea7612649565b6040519080825280601f01601f191660200182016040528015611ed1576020820181803683370190505b5090508181016020015b600019016f181899199a1a9b1b9c1cb0b131b232b360811b600a86061a8153600a8504945084611edb57509392505050565b60006001600160e01b031982166380ac58cd60e01b1480611f3e57506001600160e01b03198216635b5e139f60e01b145b8061070f57506301ffc9a760e01b6001600160e01b031983161461070f565b6001811115611fcc5760405162461bcd60e51b815260206004820152603560248201527f455243373231456e756d657261626c653a20636f6e7365637574697665207472604482015274185b9cd9995c9cc81b9bdd081cdd5c1c1bdc9d1959605a1b6064820152608401610858565b816001600160a01b0385166120285761202381600880546000838152600960205260408120829055600182018355919091527ff3f7a9fe364faab93b216da50a3214154f22a0a2b415b23a84c8169e8b636ee30155565b61204b565b836001600160a01b0316856001600160a01b03161461204b5761204b8582612302565b6001600160a01b038416612067576120628161239f565b61208a565b846001600160a01b0316846001600160a01b03161461208a5761208a848261244e565b5050505050565b6001600160a01b0382166120e75760405162461bcd60e51b815260206004820181905260248201527f4552433732313a206d696e7420746f20746865207a65726f20616464726573736044820152606401610858565b6000818152600260205260409020546001600160a01b03161561214c5760405162461bcd60e51b815260206004820152601c60248201527f4552433732313a20746f6b656e20616c7265616479206d696e746564000000006044820152606401610858565b61215a600083836001611ce9565b6000818152600260205260409020546001600160a01b0316156121bf5760405162461bcd60e51b815260206004820152601c60248201527f4552433732313a20746f6b656e20616c7265616479206d696e746564000000006044820152606401610858565b6001600160a01b038216600081815260036020908152604080832080546001019055848352600290915280822080546001600160a01b0319168417905551839291907fddf252ad1be2c89b69c2b068fc378daa952ba7f163c4a11628f55a4df523b3ef908290a45050565b60008072184f03e93ff9f4daa797ed6e38ed64bf6a1f0160401b83106122695772184f03e93ff9f4daa797ed6e38ed64bf6a1f0160401b830492506040015b6d04ee2d6d415b85acef81000000008310612295576d04ee2d6d415b85acef8100000000830492506020015b662386f26fc1000083106122b357662386f26fc10000830492506010015b6305f5e10083106122cb576305f5e100830492506008015b61271083106122df57612710830492506004015b606483106122f1576064830492506002015b600a831061070f5760010192915050565b6000600161230f84610ca2565b6123199190612c55565b60008381526007602052604090205490915080821461236c576001600160a01b03841660009081526006602090815260408083208584528252808320548484528184208190558352600790915290208190555b5060009182526007602090815260408084208490556001600160a01b039094168352600681528383209183525290812055565b6008546000906123b190600190612c55565b600083815260096020526040812054600880549394509092849081106123d9576123d9612c13565b9060005260206000200154905080600883815481106123fa576123fa612c13565b600091825260208083209091019290925582815260099091526040808220849055858252812055600880548061243257612432612d88565b6001900381819060005260206000200160009055905550505050565b600061245983610ca2565b6001600160a01b039093166000908152600660209081526040808320868452825280832085905593825260079052919091209190915550565b6001600160e01b03198116811461158757600080fd5b6000602082840312156124ba57600080fd5b813561150a81612492565b80356001600160a01b03811681146124dc57600080fd5b919050565b600080604083850312156124f457600080fd5b6124fd836124c5565b915060208301356001600160601b038116811461251957600080fd5b809150509250929050565b60005b8381101561253f578181015183820152602001612527565b50506000910152565b60008151808452612560816020860160208601612524565b601f01601f19169290920160200192915050565b60208152600061150a6020830184612548565b60006020828403121561259957600080fd5b5035919050565b600080604083850312156125b357600080fd5b6125bc836124c5565b946020939093013593505050565b803580151581146124dc57600080fd5b600080604083850312156125ed57600080fd5b6125f6836124c5565b9150612604602084016125ca565b90509250929050565b60008060006060848603121561262257600080fd5b61262b846124c5565b9250612639602085016124c5565b9150604084013590509250925092565b634e487b7160e01b600052604160045260246000fd5b604051601f8201601f1916810167ffffffffffffffff8111828210171561268857612688612649565b604052919050565b600067ffffffffffffffff8311156126aa576126aa612649565b6126bd601f8401601f191660200161265f565b90508281528383830111156126d157600080fd5b828260208301376000602084830101529392505050565b600082601f8301126126f957600080fd5b61150a83833560208501612690565b60006020828403121561271a57600080fd5b813567ffffffffffffffff81111561273157600080fd5b611248848285016126e8565b6000806040838503121561275057600080fd5b50508035926020909101359150565b60006020828403121561277157600080fd5b61150a826124c5565b60008060006060848603121561278f57600080fd5b612798846124c5565b925060208085013567ffffffffffffffff808211156127b657600080fd5b818701915087601f8301126127ca57600080fd5b8135818111156127dc576127dc612649565b8060051b6127eb85820161265f565b918252838101850191858101908b84111561280557600080fd5b86860192505b83831015612841578235858111156128235760008081fd5b6128318d89838a01016126e8565b835250918601919086019061280b565b989b989a5050505060409690960135955050505050565b6020808252825182820181905260009190848201906040850190845b8181101561289057835183529284019291840191600101612874565b50909695505050505050565b600080600080608085870312156128b257600080fd5b6128bb856124c5565b93506128c9602086016124c5565b925060408501359150606085013567ffffffffffffffff8111156128ec57600080fd5b8501601f810187136128fd57600080fd5b61290c87823560208401612690565b91505092959194509250565b60008060006040848603121561292d57600080fd5b833567ffffffffffffffff8082111561294557600080fd5b818601915086601f83011261295957600080fd5b81358181111561296857600080fd5b8760208260051b850101111561297d57600080fd5b60209283019550935061299391860190506125ca565b90509250925092565b600080604083850312156129af57600080fd5b6129b8836124c5565b9150612604602084016124c5565b6000602082840312156129d857600080fd5b61150a826125ca565b600080604083850312156129f457600080fd5b6129fd836124c5565b9150602083013567ffffffffffffffff811115612a1957600080fd5b612a25858286016126e8565b9150509250929050565b600181811c90821680612a4357607f821691505b602082108103612a6357634e487b7160e01b600052602260045260246000fd5b50919050565b6020808252602d908201527f4552433732313a2063616c6c6572206973206e6f7420746f6b656e206f776e6560408201526c1c881bdc88185c1c1c9bdd9959609a1b606082015260800190565b601f8211156108f957600081815260208120601f850160051c81016020861015612add5750805b601f850160051c820191505b81811015612afc57828155600101612ae9565b505050505050565b815167ffffffffffffffff811115612b1e57612b1e612649565b612b3281612b2c8454612a2f565b84612ab6565b602080601f831160018114612b675760008415612b4f5750858301515b600019600386901b1c1916600185901b178555612afc565b600085815260208120601f198616915b82811015612b9657888601518255948401946001909101908401612b77565b5085821015612bb45787850151600019600388901b60f8161c191681555b5050505050600190811b01905550565b634e487b7160e01b600052601160045260246000fd5b808202811582820484141761070f5761070f612bc4565b600082612c0e57634e487b7160e01b600052601260045260246000fd5b500490565b634e487b7160e01b600052603260045260246000fd5b8082018082111561070f5761070f612bc4565b600060018201612c4e57612c4e612bc4565b5060010190565b8181038181111561070f5761070f612bc4565b60008351612c7a818460208801612524565b835190830190612c8e818360208801612524565b01949350505050565b60208082526025908201527f4552433732313a207472616e736665722066726f6d20696e636f72726563742060408201526437bbb732b960d91b606082015260800190565b60208082526032908201527f4552433732313a207472616e7366657220746f206e6f6e20455243373231526560408201527131b2b4bb32b91034b6b83632b6b2b73a32b960711b606082015260800190565b6001600160a01b0385811682528416602082015260408101839052608060608201819052600090612d6190830184612548565b9695505050505050565b600060208284031215612d7d57600080fd5b815161150a81612492565b634e487b7160e01b600052603160045260246000fdfea264697066735822122055b40a2e966dd58c1c1cff90af9bfcd803cd858de54860dfac2de7db82e2a56d64736f6c63430008130033a264697066735822122079ad59095d2e847d19be0438eebd5d209de4fb293847c41b05e90506c062f80464736f6c63430008130033",
  "linkReferences": {},
  "deployedLinkReferences": {}
}