{"contracts/EduBoxERC20Factory.sol":{"EduBoxERC20Factory":{"abi":[{"inputs":[],"stateMutability":"nonpayable","type":"constructor"},{"anonymous":false,"inputs":[{"indexed":true,"internalType":"address","name":"newRecipient","type":"address"}],"name":"FeeRecipientUpdated","type":"event"},{"anonymous":false,"inputs":[{"indexed":true,"internalType":"address","name":"previousOwner","type":"address"},{"indexed":true,"internalType":"address","name":"newOwner","type":"address"}],"name":"OwnershipTransferred","type":"event"},{"anonymous":false,"inputs":[{"indexed":true,"internalType":"address","name":"tokenAddress","type":"address"},{"indexed":false,"internalType":"string","name":"name","type":"string"},{"indexed":false,"internalType":"string","name":"symbol","type":"string"},{"indexed":true,"internalType":"address","name":"owner","type":"address"}],"name":"TokenCreated","type":"event"},{"inputs":[],"name":"CREATION_FEE","outputs":[{"internalType":"uint256","name":"","type":"uint256"}],"stateMutability":"view","type":"function"},{"inputs":[{"internalType":"string","name":"name","type":"string"},{"internalType":"string","name":"symbol","type":"string"},{"internalType":"uint8","name":"decimals","type":"uint8"},{"internalType":"uint256","name":"initialSupply","type":"uint256"},{"internalType":"uint256","name":"cap","type":"uint256"},{"internalType":"string","name":"logoURL","type":"string"},{"internalType":"string","name":"website","type":"string"},{"internalType":"string","name":"socialMediaLinks","type":"string"}],"name":"createToken","outputs":[],"stateMutability":"payable","type":"function"},{"inputs":[{"internalType":"uint256","name":"","type":"uint256"}],"name":"createdTokens","outputs":[{"internalType":"address","name":"tokenAddress","type":"address"},{"internalType":"string","name":"name","type":"string"},{"internalType":"string","name":"symbol","type":"string"},{"internalType":"address","name":"owner","type":"address"}],"stateMutability":"view","type":"function"},{"inputs":[],"name":"feeRecipient","outputs":[{"internalType":"address","name":"","type":"address"}],"stateMutability":"view","type":"function"},{"inputs":[{"internalType":"uint256","name":"start","type":"uint256"},{"internalType":"uint256","name":"end","type":"uint256"}],"name":"getCreatedTokens","outputs":[{"components":[{"internalType":"address","name":"tokenAddress","type":"address"},{"internalType":"string","name":"name","type":"string"},{"internalType":"string","name":"symbol","type":"string"},{"internalType":"address","name":"owner","type":"address"}],"internalType":"struct EduBoxERC20Factory.TokenInfo[]","name":"","type":"tuple[]"}],"stateMutability":"view","type":"function"},{"inputs":[],"name":"getTokenCount","outputs":[{"internalType":"uint256","name":"","type":"uint256"}],"stateMutability":"view","type":"function"},{"inputs":[{"internalType":"uint256","name":"index","type":"uint256"}],"name":"getTokenInfo","outputs":[{"components":[{"internalType":"address","name":"tokenAddress","type":"address"},{"internalType":"string","name":"name","type":"string"},{"internalType":"string","name":"symbol","type":"string"},{"internalType":"address","name":"owner","type":"address"}],"internalType":"struct EduBoxERC20Factory.TokenInfo","name":"","type":"tuple"}],"stateMutability":"view","type":"function"},{"inputs":[],"name":"owner","outputs":[{"internalType":"address","name":"","type":"address"}],"stateMutability":"view","type":"function"},{"inputs":[],"name":"renounceOwnership","outputs":[],"stateMutability":"nonpayable","type":"function"},{"inputs":[{"internalType":"address","name":"_newRecipient","type":"address"}],"name":"setFeeRecipient","outputs":[],"stateMutability":"nonpayable","type":"function"},{"inputs":[{"internalType":"address","name":"newOwner","type":"address"}],"name":"transferOwnership","outputs":[],"stateMutability":"nonpayable","type":"function"},{"inputs":[],"name":"withdrawFees","outputs":[],"stateMutability":"nonpayable","type":"function"}],"evm":{"bytecode":{"linkReferences":{},"object":"608060405234801561001057600080fd5b5061001a33610045565b600180546001600160a01b031916731fcb879bf709ccdfc2c2cfb39afd836a63612e58179055610095565b600080546001600160a01b038381166001600160a01b0319831681178455604051919092169283917f8be0079c531659141344cd1fd0a4f28419497f9722a3daafe3b4186f6b6457e09190a35050565b613620806100a46000396000f3fe608060405260043610620000b55760003560e01c80638da5cb5b116200006c5780638da5cb5b14620001a3578063d627b66d14620001c3578063d782d64714620001da578063d90d374e1462000211578063e74b981b1462000245578063f2fde38b146200026a57600080fd5b80634690484014620000ba578063476343ee14620000f957806349a2104d1462000113578063715018a6146200014057806378a8956714620001585780638c7a63ae146200016f575b600080fd5b348015620000c757600080fd5b50600154620000dc906001600160a01b031681565b6040516001600160a01b0390911681526020015b60405180910390f35b3480156200010657600080fd5b50620001116200028f565b005b3480156200012057600080fd5b5062000131670de0b6b3a764000081565b604051908152602001620000f0565b3480156200014d57600080fd5b5062000111620002d7565b3480156200016557600080fd5b5060025462000131565b3480156200017c57600080fd5b50620001946200018e36600462000f12565b620002ef565b604051620000f0919062000fd1565b348015620001b057600080fd5b506000546001600160a01b0316620000dc565b62000111620001d4366004620010af565b620004e5565b348015620001e757600080fd5b50620001ff620001f936600462000f12565b620008bb565b604051620000f09493929190620011b7565b3480156200021e57600080fd5b50620002366200023036600462001204565b62000a2b565b604051620000f0919062001227565b3480156200025257600080fd5b5062000111620002643660046200128d565b62000d04565b3480156200027757600080fd5b5062000111620002893660046200128d565b62000da2565b6200029962000e1e565b600080546040516001600160a01b03909116914780156108fc02929091818181858888f19350505050158015620002d4573d6000803e3d6000fd5b50565b620002e162000e1e565b620002ed600062000e7a565b565b620002f962000eca565b6002548210620003505760405162461bcd60e51b815260206004820152601960248201527f546f6b656e20696e646578206f7574206f6620626f756e64730000000000000060448201526064015b60405180910390fd5b60028281548110620003665762000366620012b8565b6000918252602091829020604080516080810190915260049092020180546001600160a01b031682526001810180549293919291840191620003a890620012ce565b80601f0160208091040260200160405190810160405280929190818152602001828054620003d690620012ce565b8015620004275780601f10620003fb5761010080835404028352916020019162000427565b820191906000526020600020905b8154815290600101906020018083116200040957829003601f168201915b505050505081526020016002820180546200044290620012ce565b80601f01602080910402602001604051908101604052809291908181526020018280546200047090620012ce565b8015620004c15780601f106200049557610100808354040283529160200191620004c1565b820191906000526020600020905b815481529060010190602001808311620004a357829003601f168201915b5050509183525050600391909101546001600160a01b031660209091015292915050565b670de0b6b3a76400003410156200053f5760405162461bcd60e51b815260206004820152601960248201527f496e73756666696369656e74206372656174696f6e2066656500000000000000604482015260640162000347565b6000885111620005895760405162461bcd60e51b81526020600482015260146024820152734e616d652063616e6e6f7420626520656d70747960601b604482015260640162000347565b6000875111620005d55760405162461bcd60e51b815260206004820152601660248201527553796d626f6c2063616e6e6f7420626520656d70747960501b604482015260640162000347565b60008511620006355760405162461bcd60e51b815260206004820152602560248201527f496e697469616c20737570706c79206d75737420626520677265617465722074604482015264068616e20360dc1b606482015260840162000347565b84841015620006a35760405162461bcd60e51b815260206004820152603360248201527f436170206d7573742062652067726561746572207468616e206f7220657175616044820152726c20746f20696e697469616c20737570706c7960681b606482015260840162000347565b6001546040516001600160a01b0390911690600090670de0b6b3a76400009082818181858883f19350505050158015620006e1573d6000803e3d6000fd5b50670de0b6b3a76400003411156200073657336108fc6200070b670de0b6b3a76400003462001320565b6040518115909202916000818181858888f1935050505015801562000734573d6000803e3d6000fd5b505b60008888888888338989896040516200074f9062000f04565b620007639998979695949392919062001336565b604051809103906000f08015801562000780573d6000803e3d6000fd5b50604080516080810182526001600160a01b038381168252602082018d81529282018c90523360608301526002805460018101825560009190915282517f405787fa12a823e0f2b7631cc41b3ba8828b3321ca811111fa75cd3aa3bb5ace600490920291820180546001600160a01b031916919093161782559251939450909290917f405787fa12a823e0f2b7631cc41b3ba8828b3321ca811111fa75cd3aa3bb5acf01906200083190826200142e565b50604082015160028201906200084890826200142e565b5060609190910151600390910180546001600160a01b0319166001600160a01b0392831617905560405133918316907f6596c1670eb3390048d23721809c3da5d3f531375ac0e2cab0f77a808ed6433190620008a8908d908d90620014fb565b60405180910390a3505050505050505050565b60028181548110620008cc57600080fd5b6000918252602090912060049091020180546001820180546001600160a01b03909216935090620008fd90620012ce565b80601f01602080910402602001604051908101604052809291908181526020018280546200092b90620012ce565b80156200097c5780601f1062000950576101008083540402835291602001916200097c565b820191906000526020600020905b8154815290600101906020018083116200095e57829003601f168201915b5050505050908060020180546200099390620012ce565b80601f0160208091040260200160405190810160405280929190818152602001828054620009c190620012ce565b801562000a125780601f10620009e65761010080835404028352916020019162000a12565b820191906000526020600020905b815481529060010190602001808311620009f457829003601f168201915b505050600390930154919250506001600160a01b031684565b606081831062000a6e5760405162461bcd60e51b815260206004820152600d60248201526c496e76616c69642072616e676560981b604482015260640162000347565b60025482111562000ab65760405162461bcd60e51b8152602060048201526011602482015270456e64206f7574206f6620626f756e647360781b604482015260640162000347565b600062000ac4848462001320565b67ffffffffffffffff81111562000adf5762000adf62000fed565b60405190808252806020026020018201604052801562000b1c57816020015b62000b0862000eca565b81526020019060019003908162000afe5790505b509050835b8381101562000cfa576002818154811062000b405762000b40620012b8565b6000918252602091829020604080516080810190915260049092020180546001600160a01b03168252600181018054929391929184019162000b8290620012ce565b80601f016020809104026020016040519081016040528092919081815260200182805462000bb090620012ce565b801562000c015780601f1062000bd55761010080835404028352916020019162000c01565b820191906000526020600020905b81548152906001019060200180831162000be357829003601f168201915b5050505050815260200160028201805462000c1c90620012ce565b80601f016020809104026020016040519081016040528092919081815260200182805462000c4a90620012ce565b801562000c9b5780601f1062000c6f5761010080835404028352916020019162000c9b565b820191906000526020600020905b81548152906001019060200180831162000c7d57829003601f168201915b5050509183525050600391909101546001600160a01b03166020909101528262000cc6878462001320565b8151811062000cd95762000cd9620012b8565b6020026020010181905250808062000cf1906200152d565b91505062000b21565b5090505b92915050565b62000d0e62000e1e565b6001600160a01b03811662000d585760405162461bcd60e51b815260206004820152600f60248201526e496e76616c6964206164647265737360881b604482015260640162000347565b600180546001600160a01b0319166001600160a01b0383169081179091556040517f7a7b5a0a132f9e0581eb8527f66eae9ee89c2a3e79d4ac7e41a1f1f4d48a7fc290600090a250565b62000dac62000e1e565b6001600160a01b03811662000e135760405162461bcd60e51b815260206004820152602660248201527f4f776e61626c653a206e6577206f776e657220697320746865207a65726f206160448201526564647265737360d01b606482015260840162000347565b620002d48162000e7a565b6000546001600160a01b03163314620002ed5760405162461bcd60e51b815260206004820181905260248201527f4f776e61626c653a2063616c6c6572206973206e6f7420746865206f776e6572604482015260640162000347565b600080546001600160a01b038381166001600160a01b0319831681178455604051919092169283917f8be0079c531659141344cd1fd0a4f28419497f9722a3daafe3b4186f6b6457e09190a35050565b604051806080016040528060006001600160a01b03168152602001606081526020016060815260200160006001600160a01b031681525090565b6120a1806200154a83390190565b60006020828403121562000f2557600080fd5b5035919050565b6000815180845260005b8181101562000f545760208185018101518683018201520162000f36565b506000602082860101526020601f19601f83011685010191505092915050565b600060018060a01b0380835116845260208301516080602086015262000f9e608086018262000f2c565b90506040840151858203604087015262000fb9828262000f2c565b60609586015190931695909401949094529392505050565b60208152600062000fe6602083018462000f74565b9392505050565b634e487b7160e01b600052604160045260246000fd5b600082601f8301126200101557600080fd5b813567ffffffffffffffff8082111562001033576200103362000fed565b604051601f8301601f19908116603f011681019082821181831017156200105e576200105e62000fed565b816040528381528660208588010111156200107857600080fd5b836020870160208301376000602085830101528094505050505092915050565b803560ff81168114620010aa57600080fd5b919050565b600080600080600080600080610100898b031215620010cd57600080fd5b883567ffffffffffffffff80821115620010e657600080fd5b620010f48c838d0162001003565b995060208b01359150808211156200110b57600080fd5b620011198c838d0162001003565b98506200112960408c0162001098565b975060608b0135965060808b0135955060a08b01359150808211156200114e57600080fd5b6200115c8c838d0162001003565b945060c08b01359150808211156200117357600080fd5b620011818c838d0162001003565b935060e08b01359150808211156200119857600080fd5b50620011a78b828c0162001003565b9150509295985092959890939650565b600060018060a01b03808716835260806020840152620011db608084018762000f2c565b8381036040850152620011ef818762000f2c565b92505080841660608401525095945050505050565b600080604083850312156200121857600080fd5b50508035926020909101359150565b6000602080830181845280855180835260408601915060408160051b870101925083870160005b828110156200128057603f198886030184526200126d85835162000f74565b945092850192908501906001016200124e565b5092979650505050505050565b600060208284031215620012a057600080fd5b81356001600160a01b038116811462000fe657600080fd5b634e487b7160e01b600052603260045260246000fd5b600181811c90821680620012e357607f821691505b6020821081036200130457634e487b7160e01b600052602260045260246000fd5b50919050565b634e487b7160e01b600052601160045260246000fd5b8181038181111562000cfe5762000cfe6200130a565b60006101208083526200134c8184018d62000f2c565b9050828103602084015262001362818c62000f2c565b60ff8b166040850152606084018a9052608084018990526001600160a01b03881660a085015283810360c085015290506200139e818762000f2c565b905082810360e0840152620013b4818662000f2c565b9050828103610100840152620013cb818562000f2c565b9c9b505050505050505050505050565b601f8211156200142957600081815260208120601f850160051c81016020861015620014045750805b601f850160051c820191505b81811015620014255782815560010162001410565b5050505b505050565b815167ffffffffffffffff8111156200144b576200144b62000fed565b62001463816200145c8454620012ce565b84620013db565b602080601f8311600181146200149b5760008415620014825750858301515b600019600386901b1c1916600185901b17855562001425565b600085815260208120601f198616915b82811015620014cc57888601518255948401946001909101908401620014ab565b5085821015620014eb5787850151600019600388901b60f8161c191681555b5050505050600190811b01905550565b60408152600062001510604083018562000f2c565b828103602084015262001524818562000f2c565b95945050505050565b6000600182016200154257620015426200130a565b506001019056fe60a06040523480156200001157600080fd5b50604051620020a1380380620020a1833981016040819052620000349162000520565b88886003620000448382620006c8565b506004620000538282620006c8565b50506005805460ff19169055506200006b33620001b4565b60008511620000c15760405162461bcd60e51b815260206004820152601560248201527f456475426f7845524332303a206361702069732030000000000000000000000060448201526064015b60405180910390fd5b84861115620001235760405162461bcd60e51b815260206004820152602760248201527f456475426f7845524332303a20696e697469616c20737570706c7920657863656044820152660656473206361760cc1b6064820152608401620000b8565b6005805460ff60a81b1916600160a81b60ff8a160217905560808590526200014c84876200020e565b6200015784620002df565b600019600755600a80546001600160a01b0319166001600160a01b038616179055600b620001868482620006c8565b50600c620001958382620006c8565b50600d620001a48282620006c8565b50505050505050505050620007bc565b600580546001600160a01b03838116610100818102610100600160a81b031985161790945560405193909204169182907f8be0079c531659141344cd1fd0a4f28419497f9722a3daafe3b4186f6b6457e090600090a35050565b6001600160a01b038216620002665760405162461bcd60e51b815260206004820152601f60248201527f45524332303a206d696e7420746f20746865207a65726f2061646472657373006044820152606401620000b8565b62000274600083836200035e565b806002600082825462000288919062000794565b90915550506001600160a01b038216600081815260208181526040808320805486019055518481527fddf252ad1be2c89b69c2b068fc378daa952ba7f163c4a11628f55a4df523b3ef910160405180910390a35050565b620002e962000380565b6001600160a01b038116620003505760405162461bcd60e51b815260206004820152602660248201527f4f776e61626c653a206e6577206f776e657220697320746865207a65726f206160448201526564647265737360d01b6064820152608401620000b8565b6200035b81620001b4565b50565b62000368620003e4565b6200037b8383836001600160e01b038416565b505050565b6005546001600160a01b03610100909104163314620003e25760405162461bcd60e51b815260206004820181905260248201527f4f776e61626c653a2063616c6c6572206973206e6f7420746865206f776e65726044820152606401620000b8565b565b60055460ff1615620003e25760405162461bcd60e51b815260206004820152601060248201526f14185d5cd8589b194e881c185d5cd95960821b6044820152606401620000b8565b634e487b7160e01b600052604160045260246000fd5b600082601f8301126200045457600080fd5b81516001600160401b03808211156200047157620004716200042c565b604051601f8301601f19908116603f011681019082821181831017156200049c576200049c6200042c565b81604052838152602092508683858801011115620004b957600080fd5b600091505b83821015620004dd5785820183015181830184015290820190620004be565b600093810190920192909252949350505050565b805160ff811681146200050357600080fd5b919050565b80516001600160a01b03811681146200050357600080fd5b60008060008060008060008060006101208a8c0312156200054057600080fd5b89516001600160401b03808211156200055857600080fd5b620005668d838e0162000442565b9a5060208c01519150808211156200057d57600080fd5b6200058b8d838e0162000442565b99506200059b60408d01620004f1565b985060608c0151975060808c01519650620005b960a08d0162000508565b955060c08c0151915080821115620005d057600080fd5b620005de8d838e0162000442565b945060e08c0151915080821115620005f557600080fd5b620006038d838e0162000442565b93506101008c01519150808211156200061b57600080fd5b506200062a8c828d0162000442565b9150509295985092959850929598565b600181811c908216806200064f57607f821691505b6020821081036200067057634e487b7160e01b600052602260045260246000fd5b50919050565b601f8211156200037b57600081815260208120601f850160051c810160208610156200069f5750805b601f850160051c820191505b81811015620006c057828155600101620006ab565b505050505050565b81516001600160401b03811115620006e457620006e46200042c565b620006fc81620006f584546200063a565b8462000676565b602080601f8311600181146200073457600084156200071b5750858301515b600019600386901b1c1916600185901b178555620006c0565b600085815260208120601f198616915b82811015620007655788860151825594840194600190910190840162000744565b5085821015620007845787850151600019600388901b60f8161c191681555b5050505050600190811b01905550565b80820180821115620007b657634e487b7160e01b600052601160045260246000fd5b92915050565b6080516118c2620007df600039600081816102aa015261069e01526118c26000f3fe608060405234801561001057600080fd5b50600436106102065760003560e01c8063883ff4591161011a578063a9e75723116100ad578063db2a45701161007c578063db2a457014610432578063dd62ed3e14610445578063e7f1bfcb14610458578063f2fde38b14610465578063f9f92be41461047857600080fd5b8063a9e7572314610406578063beb0a4161461040f578063c415b95c14610417578063d2ce89e51461042a57600080fd5b80639d11aaaa116100e95780639d11aaaa146103c4578063a42dce80146103cd578063a457c2d7146103e0578063a9059cbb146103f357600080fd5b8063883ff4591461036c5780638bf554091461037f5780638da5cb5b1461039257806395d89b41146103bc57600080fd5b80633d72eaf21161019d5780635c975abb1161016c5780635c975abb1461031557806370a0823114610320578063715018a61461034957806379cc6790146103515780638456cb591461036457600080fd5b80633d72eaf2146102df5780633f4ba83a146102e757806340c10f19146102ef57806342966c681461030257600080fd5b806323b872dd116101d957806323b872dd14610273578063313ce56714610286578063355274ea146102a557806339509351146102cc57600080fd5b806306fdde031461020b578063095ea7b314610229578063153b0d1e1461024c57806318160ddd14610261575b600080fd5b61021361049b565b604051610220919061140f565b60405180910390f35b61023c61023736600461143e565b61052d565b6040519015158152602001610220565b61025f61025a366004611478565b610547565b005b6002545b604051908152602001610220565b61023c6102813660046114ab565b6105ae565b600554600160a81b900460ff1660405160ff9091168152602001610220565b6102657f000000000000000000000000000000000000000000000000000000000000000081565b61023c6102da36600461143e565b6105d2565b6102136105f4565b61025f610682565b61025f6102fd36600461143e565b610694565b61025f6103103660046114e7565b610732565b60055460ff1661023c565b61026561032e366004611500565b6001600160a01b031660009081526020819052604090205490565b61025f61073f565b61025f61035f36600461143e565b610751565b61025f610766565b61025f61037a36600461151b565b610776565b61025f61038d3660046114e7565b610833565b60055461010090046001600160a01b03165b6040516001600160a01b039091168152602001610220565b610213610876565b61026560095481565b61025f6103db366004611500565b610885565b61023c6103ee36600461143e565b61092d565b61023c61040136600461143e565b6109a8565b61026560075481565b6102136109b6565b600a546103a4906001600160a01b031681565b6102136109c3565b61025f6104403660046115da565b6109d0565b610265610453366004611662565b610a3f565b60085461023c9060ff1681565b61025f610473366004611500565b610a6a565b61023c610486366004611500565b60066020526000908152604090205460ff1681565b6060600380546104aa9061168c565b80601f01602080910402602001604051908101604052809291908181526020018280546104d69061168c565b80156105235780601f106104f857610100808354040283529160200191610523565b820191906000526020600020905b81548152906001019060200180831161050657829003601f168201915b5050505050905090565b60003361053b818585610ae0565b60019150505b92915050565b61054f610c04565b6001600160a01b038216600081815260066020908152604091829020805460ff191685151590811790915591519182527fcf3473b85df1594d47b6958f29a32bea0abff9dd68296f7bf33443646793cfd8910160405180910390a25050565b6000336105bc858285610c64565b6105c7858585610cde565b506001949350505050565b60003361053b8185856105e58383610a3f565b6105ef91906116dc565b610ae0565b600d80546106019061168c565b80601f016020809104026020016040519081016040528092919081815260200182805461062d9061168c565b801561067a5780601f1061064f5761010080835404028352916020019161067a565b820191906000526020600020905b81548152906001019060200180831161065d57829003601f168201915b505050505081565b61068a610c04565b610692610e6a565b565b61069c610c04565b7f0000000000000000000000000000000000000000000000000000000000000000816106c760025490565b6106d191906116dc565b11156107245760405162461bcd60e51b815260206004820152601960248201527f456475426f7845524332303a206361702065786365656465640000000000000060448201526064015b60405180910390fd5b61072e8282610ebc565b5050565b61073c3382610f87565b50565b610747610c04565b61069260006110c5565b61075c823383610c64565b61072e8282610f87565b61076e610c04565b61069261111f565b61077e610c04565b60648111156107e05760405162461bcd60e51b815260206004820152602860248201527f4665652070657263656e74616765206d757374206265206265747765656e2030604482015267020616e64203130360c41b606482015260840161071b565b6008805460ff1916831515908117909155600982905560408051918252602082018390527f5169651e0f3548dce5a282ef160da80c54150c9f2600b354c68deba0167b2d3f910160405180910390a15050565b61083b610c04565b60078190556040518181527fb81a465c2b79d7b689b78d9aaf5a787dd386b73a952be0569f2fbc637aabb8979060200160405180910390a150565b6060600480546104aa9061168c565b61088d610c04565b6001600160a01b0381166108e35760405162461bcd60e51b815260206004820152601d60248201527f496e76616c69642066656520636f6c6c6563746f722061646472657373000000604482015260640161071b565b600a80546001600160a01b0319166001600160a01b0383169081179091556040517fe5693914d19c789bdee50a362998c0bc8d035a835f9871da5d51152f0582c34f90600090a250565b6000338161093b8286610a3f565b90508381101561099b5760405162461bcd60e51b815260206004820152602560248201527f45524332303a2064656372656173656420616c6c6f77616e63652062656c6f77604482015264207a65726f60d81b606482015260840161071b565b6105c78286868403610ae0565b60003361053b818585610cde565b600c80546106019061168c565b600b80546106019061168c565b6109d8610c04565b600b6109e4848261173d565b50600c6109f1838261173d565b50600d6109fe828261173d565b507f61b45807b5528344b8b2c26433a3aabead6c9dc6239e146e7ba7c812fded07d0838383604051610a32939291906117fd565b60405180910390a1505050565b6001600160a01b03918216600090815260016020908152604080832093909416825291909152205490565b610a72610c04565b6001600160a01b038116610ad75760405162461bcd60e51b815260206004820152602660248201527f4f776e61626c653a206e6577206f776e657220697320746865207a65726f206160448201526564647265737360d01b606482015260840161071b565b61073c816110c5565b6001600160a01b038316610b425760405162461bcd60e51b8152602060048201526024808201527f45524332303a20617070726f76652066726f6d20746865207a65726f206164646044820152637265737360e01b606482015260840161071b565b6001600160a01b038216610ba35760405162461bcd60e51b815260206004820152602260248201527f45524332303a20617070726f766520746f20746865207a65726f206164647265604482015261737360f01b606482015260840161071b565b6001600160a01b0383811660008181526001602090815260408083209487168084529482529182902085905590518481527f8c5be1e5ebec7d5bd14f71427d1e84f3dd0314c0f7b2291e5b200ac8c7c3b925910160405180910390a3505050565b6005546001600160a01b036101009091041633146106925760405162461bcd60e51b815260206004820181905260248201527f4f776e61626c653a2063616c6c6572206973206e6f7420746865206f776e6572604482015260640161071b565b6000610c708484610a3f565b90506000198114610cd85781811015610ccb5760405162461bcd60e51b815260206004820152601d60248201527f45524332303a20696e73756666696369656e7420616c6c6f77616e6365000000604482015260640161071b565b610cd88484848403610ae0565b50505050565b6001600160a01b03831660009081526006602052604090205460ff16158015610d2057506001600160a01b03821660009081526006602052604090205460ff16155b610d625760405162461bcd60e51b8152602060048201526013602482015272426c61636b6c6973746564206164647265737360681b604482015260640161071b565b600754811115610db45760405162461bcd60e51b815260206004820152601f60248201527f5472616e7366657220616d6f756e742065786365656473206d6178696d756d00604482015260640161071b565b60085460ff168015610dd957506005546001600160a01b038481166101009092041614155b8015610df857506005546001600160a01b038381166101009092041614155b15610e5a576000610e1f6064610e196009548561115c90919063ffffffff16565b9061116f565b90506000610e2d838361117b565b600a54909150610e489086906001600160a01b031684611187565b610e53858583611187565b5050505050565b610e65838383611187565b505050565b610e72611336565b6005805460ff191690557f5db9ee0a495bf2e6ff9c91a7834c1ba4fdd244a5e8aa4e537bd38aeae4b073aa335b6040516001600160a01b03909116815260200160405180910390a1565b6001600160a01b038216610f125760405162461bcd60e51b815260206004820152601f60248201527f45524332303a206d696e7420746f20746865207a65726f206164647265737300604482015260640161071b565b610f1e6000838361137f565b8060026000828254610f3091906116dc565b90915550506001600160a01b038216600081815260208181526040808320805486019055518481527fddf252ad1be2c89b69c2b068fc378daa952ba7f163c4a11628f55a4df523b3ef910160405180910390a35050565b6001600160a01b038216610fe75760405162461bcd60e51b815260206004820152602160248201527f45524332303a206275726e2066726f6d20746865207a65726f206164647265736044820152607360f81b606482015260840161071b565b610ff38260008361137f565b6001600160a01b038216600090815260208190526040902054818110156110675760405162461bcd60e51b815260206004820152602260248201527f45524332303a206275726e20616d6f756e7420657863656564732062616c616e604482015261636560f01b606482015260840161071b565b6001600160a01b0383166000818152602081815260408083208686039055600280548790039055518581529192917fddf252ad1be2c89b69c2b068fc378daa952ba7f163c4a11628f55a4df523b3ef910160405180910390a3505050565b600580546001600160a01b03838116610100818102610100600160a81b031985161790945560405193909204169182907f8be0079c531659141344cd1fd0a4f28419497f9722a3daafe3b4186f6b6457e090600090a35050565b611127611383565b6005805460ff191660011790557f62e78cea01bee320cd4e420270b5ea74000d11b0c9f74754ebdbfc544b05a258610e9f3390565b60006111688284611840565b9392505050565b60006111688284611857565b60006111688284611879565b6001600160a01b0383166111eb5760405162461bcd60e51b815260206004820152602560248201527f45524332303a207472616e736665722066726f6d20746865207a65726f206164604482015264647265737360d81b606482015260840161071b565b6001600160a01b03821661124d5760405162461bcd60e51b815260206004820152602360248201527f45524332303a207472616e7366657220746f20746865207a65726f206164647260448201526265737360e81b606482015260840161071b565b61125883838361137f565b6001600160a01b038316600090815260208190526040902054818110156112d05760405162461bcd60e51b815260206004820152602660248201527f45524332303a207472616e7366657220616d6f756e7420657863656564732062604482015265616c616e636560d01b606482015260840161071b565b6001600160a01b03848116600081815260208181526040808320878703905593871680835291849020805487019055925185815290927fddf252ad1be2c89b69c2b068fc378daa952ba7f163c4a11628f55a4df523b3ef910160405180910390a3610cd8565b60055460ff166106925760405162461bcd60e51b815260206004820152601460248201527314185d5cd8589b194e881b9bdd081c185d5cd95960621b604482015260640161071b565b610e655b60055460ff16156106925760405162461bcd60e51b815260206004820152601060248201526f14185d5cd8589b194e881c185d5cd95960821b604482015260640161071b565b6000815180845260005b818110156113ef576020818501810151868301820152016113d3565b506000602082860101526020601f19601f83011685010191505092915050565b60208152600061116860208301846113c9565b80356001600160a01b038116811461143957600080fd5b919050565b6000806040838503121561145157600080fd5b61145a83611422565b946020939093013593505050565b8035801515811461143957600080fd5b6000806040838503121561148b57600080fd5b61149483611422565b91506114a260208401611468565b90509250929050565b6000806000606084860312156114c057600080fd5b6114c984611422565b92506114d760208501611422565b9150604084013590509250925092565b6000602082840312156114f957600080fd5b5035919050565b60006020828403121561151257600080fd5b61116882611422565b6000806040838503121561152e57600080fd5b61145a83611468565b634e487b7160e01b600052604160045260246000fd5b600082601f83011261155e57600080fd5b813567ffffffffffffffff8082111561157957611579611537565b604051601f8301601f19908116603f011681019082821181831017156115a1576115a1611537565b816040528381528660208588010111156115ba57600080fd5b836020870160208301376000602085830101528094505050505092915050565b6000806000606084860312156115ef57600080fd5b833567ffffffffffffffff8082111561160757600080fd5b6116138783880161154d565b9450602086013591508082111561162957600080fd5b6116358783880161154d565b9350604086013591508082111561164b57600080fd5b506116588682870161154d565b9150509250925092565b6000806040838503121561167557600080fd5b61167e83611422565b91506114a260208401611422565b600181811c908216806116a057607f821691505b6020821081036116c057634e487b7160e01b600052602260045260246000fd5b50919050565b634e487b7160e01b600052601160045260246000fd5b80820180821115610541576105416116c6565b601f821115610e6557600081815260208120601f850160051c810160208610156117165750805b601f850160051c820191505b8181101561173557828155600101611722565b505050505050565b815167ffffffffffffffff81111561175757611757611537565b61176b81611765845461168c565b846116ef565b602080601f8311600181146117a057600084156117885750858301515b600019600386901b1c1916600185901b178555611735565b600085815260208120601f198616915b828110156117cf578886015182559484019460019091019084016117b0565b50858210156117ed5787850151600019600388901b60f8161c191681555b5050505050600190811b01905550565b60608152600061181060608301866113c9565b828103602084015261182281866113c9565b9050828103604084015261183681856113c9565b9695505050505050565b8082028115828204841417610541576105416116c6565b60008261187457634e487b7160e01b600052601260045260246000fd5b500490565b81810381811115610541576105416116c656fea2646970667358221220fee1f2e44046fe96425c478eaca83615c6a5baa93a880ab017804163e5dd45df64736f6c63430008130033a2646970667358221220032cdb9238d5d3be29da92d88cbe26ad03cd385d51826ceab505d6f4a3fec33464736f6c63430008130033","opcodes":"PUSH1 0x80 PUSH1 0x40 MSTORE CALLVALUE DUP1 ISZERO PUSH2 0x10 JUMPI PUSH1 0x0 DUP1 REVERT JUMPDEST POP PUSH2 0x1A CALLER PUSH2 0x45 JUMP JUMPDEST PUSH1 0x1 DUP1 SLOAD PUSH1 0x1 PUSH1 0x1 PUSH1 0xA0 SHL SUB NOT AND PUSH20 0x1FCB879BF709CCDFC2C2CFB39AFD836A63612E58 OR SWAP1 SSTORE PUSH2 0x95 JUMP JUMPDEST PUSH1 0x0 DUP1 SLOAD PUSH1 0x1 PUSH1 0x1 PUSH1 0xA0 SHL SUB DUP4 DUP2 AND PUSH1 0x1 PUSH1 0x1 PUSH1 0xA0 SHL SUB NOT DUP4 AND DUP2 OR DUP5 SSTORE PUSH1 0x40 MLOAD SWAP2 SWAP1 SWAP3 AND SWAP3 DUP4 SWAP2 PUSH32 0x8BE0079C531659141344CD1FD0A4F28419497F9722A3DAAFE3B4186F6B6457E0 SWAP2 SWAP1 LOG3 POP POP JUMP JUMPDEST PUSH2 0x3620 DUP1 PUSH2 0xA4 PUSH1 0x0 CODECOPY PUSH1 0x0 RETURN INVALID PUSH1 0x80 PUSH1 0x40 MSTORE PUSH1 0x4 CALLDATASIZE LT PUSH3 0xB5 JUMPI PUSH1 0x0 CALLDATALOAD PUSH1 0xE0 SHR DUP1 PUSH4 0x8DA5CB5B GT PUSH3 0x6C JUMPI DUP1 PUSH4 0x8DA5CB5B EQ PUSH3 0x1A3 JUMPI DUP1 PUSH4 0xD627B66D EQ PUSH3 0x1C3 JUMPI DUP1 PUSH4 0xD782D647 EQ PUSH3 0x1DA JUMPI DUP1 PUSH4 0xD90D374E EQ PUSH3 0x211 JUMPI DUP1 PUSH4 0xE74B981B EQ PUSH3 0x245 JUMPI DUP1 PUSH4 0xF2FDE38B EQ PUSH3 0x26A JUMPI PUSH1 0x0 DUP1 REVERT JUMPDEST DUP1 PUSH4 0x46904840 EQ PUSH3 0xBA JUMPI DUP1 PUSH4 0x476343EE EQ PUSH3 0xF9 JUMPI DUP1 PUSH4 0x49A2104D EQ PUSH3 0x113 JUMPI DUP1 PUSH4 0x715018A6 EQ PUSH3 0x140 JUMPI DUP1 PUSH4 0x78A89567 EQ PUSH3 0x158 JUMPI DUP1 PUSH4 0x8C7A63AE EQ PUSH3 0x16F JUMPI JUMPDEST PUSH1 0x0 DUP1 REVERT JUMPDEST CALLVALUE DUP1 ISZERO PUSH3 0xC7 JUMPI PUSH1 0x0 DUP1 REVERT JUMPDEST POP PUSH1 0x1 SLOAD PUSH3 0xDC SWAP1 PUSH1 0x1 PUSH1 0x1 PUSH1 0xA0 SHL SUB AND DUP2 JUMP JUMPDEST PUSH1 0x40 MLOAD PUSH1 0x1 PUSH1 0x1 PUSH1 0xA0 SHL SUB SWAP1 SWAP2 AND DUP2 MSTORE PUSH1 0x20 ADD JUMPDEST PUSH1 0x40 MLOAD DUP1 SWAP2 SUB SWAP1 RETURN JUMPDEST CALLVALUE DUP1 ISZERO PUSH3 0x106 JUMPI PUSH1 0x0 DUP1 REVERT JUMPDEST POP PUSH3 0x111 PUSH3 0x28F JUMP JUMPDEST STOP JUMPDEST CALLVALUE DUP1 ISZERO PUSH3 0x120 JUMPI PUSH1 0x0 DUP1 REVERT JUMPDEST POP PUSH3 0x131 PUSH8 0xDE0B6B3A7640000 DUP2 JUMP JUMPDEST PUSH1 0x40 MLOAD SWAP1 DUP2 MSTORE PUSH1 0x20 ADD PUSH3 0xF0 JUMP JUMPDEST CALLVALUE DUP1 ISZERO PUSH3 0x14D JUMPI PUSH1 0x0 DUP1 REVERT JUMPDEST POP PUSH3 0x111 PUSH3 0x2D7 JUMP JUMPDEST CALLVALUE DUP1 ISZERO PUSH3 0x165 JUMPI PUSH1 0x0 DUP1 REVERT JUMPDEST POP PUSH1 0x2 SLOAD PUSH3 0x131 JUMP JUMPDEST CALLVALUE DUP1 ISZERO PUSH3 0x17C JUMPI PUSH1 0x0 DUP1 REVERT JUMPDEST POP PUSH3 0x194 PUSH3 0x18E CALLDATASIZE PUSH1 0x4 PUSH3 0xF12 JUMP JUMPDEST PUSH3 0x2EF JUMP JUMPDEST PUSH1 0x40 MLOAD PUSH3 0xF0 SWAP2 SWAP1 PUSH3 0xFD1 JUMP JUMPDEST CALLVALUE DUP1 ISZERO PUSH3 0x1B0 JUMPI PUSH1 0x0 DUP1 REVERT JUMPDEST POP PUSH1 0x0 SLOAD PUSH1 0x1 PUSH1 0x1 PUSH1 0xA0 SHL SUB AND PUSH3 0xDC JUMP JUMPDEST PUSH3 0x111 PUSH3 0x1D4 CALLDATASIZE PUSH1 0x4 PUSH3 0x10AF JUMP JUMPDEST PUSH3 0x4E5 JUMP JUMPDEST CALLVALUE DUP1 ISZERO PUSH3 0x1E7 JUMPI PUSH1 0x0 DUP1 REVERT JUMPDEST POP PUSH3 0x1FF PUSH3 0x1F9 CALLDATASIZE PUSH1 0x4 PUSH3 0xF12 JUMP JUMPDEST PUSH3 0x8BB JUMP JUMPDEST PUSH1 0x40 MLOAD PUSH3 0xF0 SWAP5 SWAP4 SWAP3 SWAP2 SWAP1 PUSH3 0x11B7 JUMP JUMPDEST CALLVALUE DUP1 ISZERO PUSH3 0x21E JUMPI PUSH1 0x0 DUP1 REVERT JUMPDEST POP PUSH3 0x236 PUSH3 0x230 CALLDATASIZE PUSH1 0x4 PUSH3 0x1204 JUMP JUMPDEST PUSH3 0xA2B JUMP JUMPDEST PUSH1 0x40 MLOAD PUSH3 0xF0 SWAP2 SWAP1 PUSH3 0x1227 JUMP JUMPDEST CALLVALUE DUP1 ISZERO PUSH3 0x252 JUMPI PUSH1 0x0 DUP1 REVERT JUMPDEST POP PUSH3 0x111 PUSH3 0x264 CALLDATASIZE PUSH1 0x4 PUSH3 0x128D JUMP JUMPDEST PUSH3 0xD04 JUMP JUMPDEST CALLVALUE DUP1 ISZERO PUSH3 0x277 JUMPI PUSH1 0x0 DUP1 REVERT JUMPDEST POP PUSH3 0x111 PUSH3 0x289 CALLDATASIZE PUSH1 0x4 PUSH3 0x128D JUMP JUMPDEST PUSH3 0xDA2 JUMP JUMPDEST PUSH3 0x299 PUSH3 0xE1E JUMP JUMPDEST PUSH1 0x0 DUP1 SLOAD PUSH1 0x40 MLOAD PUSH1 0x1 PUSH1 0x1 PUSH1 0xA0 SHL SUB SWAP1 SWAP2 AND SWAP2 SELFBALANCE DUP1 ISZERO PUSH2 0x8FC MUL SWAP3 SWAP1 SWAP2 DUP2 DUP2 DUP2 DUP6 DUP9 DUP9 CALL SWAP4 POP POP POP POP ISZERO DUP1 ISZERO PUSH3 0x2D4 JUMPI RETURNDATASIZE PUSH1 0x0 DUP1 RETURNDATACOPY RETURNDATASIZE PUSH1 0x0 REVERT JUMPDEST POP JUMP JUMPDEST PUSH3 0x2E1 PUSH3 0xE1E JUMP JUMPDEST PUSH3 0x2ED PUSH1 0x0 PUSH3 0xE7A JUMP JUMPDEST JUMP JUMPDEST PUSH3 0x2F9 PUSH3 0xECA JUMP JUMPDEST PUSH1 0x2 SLOAD DUP3 LT PUSH3 0x350 JUMPI PUSH1 0x40 MLOAD PUSH3 0x461BCD PUSH1 0xE5 SHL DUP2 MSTORE PUSH1 0x20 PUSH1 0x4 DUP3 ADD MSTORE PUSH1 0x19 PUSH1 0x24 DUP3 ADD MSTORE PUSH32 0x546F6B656E20696E646578206F7574206F6620626F756E647300000000000000 PUSH1 0x44 DUP3 ADD MSTORE PUSH1 0x64 ADD JUMPDEST PUSH1 0x40 MLOAD DUP1 SWAP2 SUB SWAP1 REVERT JUMPDEST PUSH1 0x2 DUP3 DUP2 SLOAD DUP2 LT PUSH3 0x366 JUMPI PUSH3 0x366 PUSH3 0x12B8 JUMP JUMPDEST PUSH1 0x0 SWAP2 DUP3 MSTORE PUSH1 0x20 SWAP2 DUP3 SWAP1 KECCAK256 PUSH1 0x40 DUP1 MLOAD PUSH1 0x80 DUP2 ADD SWAP1 SWAP2 MSTORE PUSH1 0x4 SWAP1 SWAP3 MUL ADD DUP1 SLOAD PUSH1 0x1 PUSH1 0x1 PUSH1 0xA0 SHL SUB AND DUP3 MSTORE PUSH1 0x1 DUP2 ADD DUP1 SLOAD SWAP3 SWAP4 SWAP2 SWAP3 SWAP2 DUP5 ADD SWAP2 PUSH3 0x3A8 SWAP1 PUSH3 0x12CE JUMP JUMPDEST DUP1 PUSH1 0x1F ADD PUSH1 0x20 DUP1 SWAP2 DIV MUL PUSH1 0x20 ADD PUSH1 0x40 MLOAD SWAP1 DUP2 ADD PUSH1 0x40 MSTORE DUP1 SWAP3 SWAP2 SWAP1 DUP2 DUP2 MSTORE PUSH1 0x20 ADD DUP3 DUP1 SLOAD PUSH3 0x3D6 SWAP1 PUSH3 0x12CE JUMP JUMPDEST DUP1 ISZERO PUSH3 0x427 JUMPI DUP1 PUSH1 0x1F LT PUSH3 0x3FB JUMPI PUSH2 0x100 DUP1 DUP4 SLOAD DIV MUL DUP4 MSTORE SWAP2 PUSH1 0x20 ADD SWAP2 PUSH3 0x427 JUMP JUMPDEST DUP3 ADD SWAP2 SWAP1 PUSH1 0x0 MSTORE PUSH1 0x20 PUSH1 0x0 KECCAK256 SWAP1 JUMPDEST DUP2 SLOAD DUP2 MSTORE SWAP1 PUSH1 0x1 ADD SWAP1 PUSH1 0x20 ADD DUP1 DUP4 GT PUSH3 0x409 JUMPI DUP3 SWAP1 SUB PUSH1 0x1F AND DUP3 ADD SWAP2 JUMPDEST POP POP POP POP POP DUP2 MSTORE PUSH1 0x20 ADD PUSH1 0x2 DUP3 ADD DUP1 SLOAD PUSH3 0x442 SWAP1 PUSH3 0x12CE JUMP JUMPDEST DUP1 PUSH1 0x1F ADD PUSH1 0x20 DUP1 SWAP2 DIV MUL PUSH1 0x20 ADD PUSH1 0x40 MLOAD SWAP1 DUP2 ADD PUSH1 0x40 MSTORE DUP1 SWAP3 SWAP2 SWAP1 DUP2 DUP2 MSTORE PUSH1 0x20 ADD DUP3 DUP1 SLOAD PUSH3 0x470 SWAP1 PUSH3 0x12CE JUMP JUMPDEST DUP1 ISZERO PUSH3 0x4C1 JUMPI DUP1 PUSH1 0x1F LT PUSH3 0x495 JUMPI PUSH2 0x100 DUP1 DUP4 SLOAD DIV MUL DUP4 MSTORE SWAP2 PUSH1 0x20 ADD SWAP2 PUSH3 0x4C1 JUMP JUMPDEST DUP3 ADD SWAP2 SWAP1 PUSH1 0x0 MSTORE PUSH1 0x20 PUSH1 0x0 KECCAK256 SWAP1 JUMPDEST DUP2 SLOAD DUP2 MSTORE SWAP1 PUSH1 0x1 ADD SWAP1 PUSH1 0x20 ADD DUP1 DUP4 GT PUSH3 0x4A3 JUMPI DUP3 SWAP1 SUB PUSH1 0x1F AND DUP3 ADD SWAP2 JUMPDEST POP POP POP SWAP2 DUP4 MSTORE POP POP PUSH1 0x3 SWAP2 SWAP1 SWAP2 ADD SLOAD PUSH1 0x1 PUSH1 0x1 PUSH1 0xA0 SHL SUB AND PUSH1 0x20 SWAP1 SWAP2 ADD MSTORE SWAP3 SWAP2 POP POP JUMP JUMPDEST PUSH8 0xDE0B6B3A7640000 CALLVALUE LT ISZERO PUSH3 0x53F JUMPI PUSH1 0x40 MLOAD PUSH3 0x461BCD PUSH1 0xE5 SHL DUP2 MSTORE PUSH1 0x20 PUSH1 0x4 DUP3 ADD MSTORE PUSH1 0x19 PUSH1 0x24 DUP3 ADD MSTORE PUSH32 0x496E73756666696369656E74206372656174696F6E2066656500000000000000 PUSH1 0x44 DUP3 ADD MSTORE PUSH1 0x64 ADD PUSH3 0x347 JUMP JUMPDEST PUSH1 0x0 DUP9 MLOAD GT PUSH3 0x589 JUMPI PUSH1 0x40 MLOAD PUSH3 0x461BCD PUSH1 0xE5 SHL DUP2 MSTORE PUSH1 0x20 PUSH1 0x4 DUP3 ADD MSTORE PUSH1 0x14 PUSH1 0x24 DUP3 ADD MSTORE PUSH20 0x4E616D652063616E6E6F7420626520656D707479 PUSH1 0x60 SHL PUSH1 0x44 DUP3 ADD MSTORE PUSH1 0x64 ADD PUSH3 0x347 JUMP JUMPDEST PUSH1 0x0 DUP8 MLOAD GT PUSH3 0x5D5 JUMPI PUSH1 0x40 MLOAD PUSH3 0x461BCD PUSH1 0xE5 SHL DUP2 MSTORE PUSH1 0x20 PUSH1 0x4 DUP3 ADD MSTORE PUSH1 0x16 PUSH1 0x24 DUP3 ADD MSTORE PUSH22 0x53796D626F6C2063616E6E6F7420626520656D707479 PUSH1 0x50 SHL PUSH1 0x44 DUP3 ADD MSTORE PUSH1 0x64 ADD PUSH3 0x347 JUMP JUMPDEST PUSH1 0x0 DUP6 GT PUSH3 0x635 JUMPI PUSH1 0x40 MLOAD PUSH3 0x461BCD PUSH1 0xE5 SHL DUP2 MSTORE PUSH1 0x20 PUSH1 0x4 DUP3 ADD MSTORE PUSH1 0x25 PUSH1 0x24 DUP3 ADD MSTORE PUSH32 0x496E697469616C20737570706C79206D75737420626520677265617465722074 PUSH1 0x44 DUP3 ADD MSTORE PUSH5 0x68616E203 PUSH1 0xDC SHL PUSH1 0x64 DUP3 ADD MSTORE PUSH1 0x84 ADD PUSH3 0x347 JUMP JUMPDEST DUP5 DUP5 LT ISZERO PUSH3 0x6A3 JUMPI PUSH1 0x40 MLOAD PUSH3 0x461BCD PUSH1 0xE5 SHL DUP2 MSTORE PUSH1 0x20 PUSH1 0x4 DUP3 ADD MSTORE PUSH1 0x33 PUSH1 0x24 DUP3 ADD MSTORE PUSH32 0x436170206D7573742062652067726561746572207468616E206F722065717561 PUSH1 0x44 DUP3 ADD MSTORE PUSH19 0x6C20746F20696E697469616C20737570706C79 PUSH1 0x68 SHL PUSH1 0x64 DUP3 ADD MSTORE PUSH1 0x84 ADD PUSH3 0x347 JUMP JUMPDEST PUSH1 0x1 SLOAD PUSH1 0x40 MLOAD PUSH1 0x1 PUSH1 0x1 PUSH1 0xA0 SHL SUB SWAP1 SWAP2 AND SWAP1 PUSH1 0x0 SWAP1 PUSH8 0xDE0B6B3A7640000 SWAP1 DUP3 DUP2 DUP2 DUP2 DUP6 DUP9 DUP4 CALL SWAP4 POP POP POP POP ISZERO DUP1 ISZERO PUSH3 0x6E1 JUMPI RETURNDATASIZE PUSH1 0x0 DUP1 RETURNDATACOPY RETURNDATASIZE PUSH1 0x0 REVERT JUMPDEST POP PUSH8 0xDE0B6B3A7640000 CALLVALUE GT ISZERO PUSH3 0x736 JUMPI CALLER PUSH2 0x8FC PUSH3 0x70B PUSH8 0xDE0B6B3A7640000 CALLVALUE PUSH3 0x1320 JUMP JUMPDEST PUSH1 0x40 MLOAD DUP2 ISZERO SWAP1 SWAP3 MUL SWAP2 PUSH1 0x0 DUP2 DUP2 DUP2 DUP6 DUP9 DUP9 CALL SWAP4 POP POP POP POP ISZERO DUP1 ISZERO PUSH3 0x734 JUMPI RETURNDATASIZE PUSH1 0x0 DUP1 RETURNDATACOPY RETURNDATASIZE PUSH1 0x0 REVERT JUMPDEST POP JUMPDEST PUSH1 0x0 DUP9 DUP9 DUP9 DUP9 DUP9 CALLER DUP10 DUP10 DUP10 PUSH1 0x40 MLOAD PUSH3 0x74F SWAP1 PUSH3 0xF04 JUMP JUMPDEST PUSH3 0x763 SWAP10 SWAP9 SWAP8 SWAP7 SWAP6 SWAP5 SWAP4 SWAP3 SWAP2 SWAP1 PUSH3 0x1336 JUMP JUMPDEST PUSH1 0x40 MLOAD DUP1 SWAP2 SUB SWAP1 PUSH1 0x0 CREATE DUP1 ISZERO DUP1 ISZERO PUSH3 0x780 JUMPI RETURNDATASIZE PUSH1 0x0 DUP1 RETURNDATACOPY RETURNDATASIZE PUSH1 0x0 REVERT JUMPDEST POP PUSH1 0x40 DUP1 MLOAD PUSH1 0x80 DUP2 ADD DUP3 MSTORE PUSH1 0x1 PUSH1 0x1 PUSH1 0xA0 SHL SUB DUP4 DUP2 AND DUP3 MSTORE PUSH1 0x20 DUP3 ADD DUP14 DUP2 MSTORE SWAP3 DUP3 ADD DUP13 SWAP1 MSTORE CALLER PUSH1 0x60 DUP4 ADD MSTORE PUSH1 0x2 DUP1 SLOAD PUSH1 0x1 DUP2 ADD DUP3 SSTORE PUSH1 0x0 SWAP2 SWAP1 SWAP2 MSTORE DUP3 MLOAD PUSH32 0x405787FA12A823E0F2B7631CC41B3BA8828B3321CA811111FA75CD3AA3BB5ACE PUSH1 0x4 SWAP1 SWAP3 MUL SWAP2 DUP3 ADD DUP1 SLOAD PUSH1 0x1 PUSH1 0x1 PUSH1 0xA0 SHL SUB NOT AND SWAP2 SWAP1 SWAP4 AND OR DUP3 SSTORE SWAP3 MLOAD SWAP4 SWAP5 POP SWAP1 SWAP3 SWAP1 SWAP2 PUSH32 0x405787FA12A823E0F2B7631CC41B3BA8828B3321CA811111FA75CD3AA3BB5ACF ADD SWAP1 PUSH3 0x831 SWAP1 DUP3 PUSH3 0x142E JUMP JUMPDEST POP PUSH1 0x40 DUP3 ADD MLOAD PUSH1 0x2 DUP3 ADD SWAP1 PUSH3 0x848 SWAP1 DUP3 PUSH3 0x142E JUMP JUMPDEST POP PUSH1 0x60 SWAP2 SWAP1 SWAP2 ADD MLOAD PUSH1 0x3 SWAP1 SWAP2 ADD DUP1 SLOAD PUSH1 0x1 PUSH1 0x1 PUSH1 0xA0 SHL SUB NOT AND PUSH1 0x1 PUSH1 0x1 PUSH1 0xA0 SHL SUB SWAP3 DUP4 AND OR SWAP1 SSTORE PUSH1 0x40 MLOAD CALLER SWAP2 DUP4 AND SWAP1 PUSH32 0x6596C1670EB3390048D23721809C3DA5D3F531375AC0E2CAB0F77A808ED64331 SWAP1 PUSH3 0x8A8 SWAP1 DUP14 SWAP1 DUP14 SWAP1 PUSH3 0x14FB JUMP JUMPDEST PUSH1 0x40 MLOAD DUP1 SWAP2 SUB SWAP1 LOG3 POP POP POP POP POP POP POP POP POP JUMP JUMPDEST PUSH1 0x2 DUP2 DUP2 SLOAD DUP2 LT PUSH3 0x8CC JUMPI PUSH1 0x0 DUP1 REVERT JUMPDEST PUSH1 0x0 SWAP2 DUP3 MSTORE PUSH1 0x20 SWAP1 SWAP2 KECCAK256 PUSH1 0x4 SWAP1 SWAP2 MUL ADD DUP1 SLOAD PUSH1 0x1 DUP3 ADD DUP1 SLOAD PUSH1 0x1 PUSH1 0x1 PUSH1 0xA0 SHL SUB SWAP1 SWAP3 AND SWAP4 POP SWAP1 PUSH3 0x8FD SWAP1 PUSH3 0x12CE JUMP JUMPDEST DUP1 PUSH1 0x1F ADD PUSH1 0x20 DUP1 SWAP2 DIV MUL PUSH1 0x20 ADD PUSH1 0x40 MLOAD SWAP1 DUP2 ADD PUSH1 0x40 MSTORE DUP1 SWAP3 SWAP2 SWAP1 DUP2 DUP2 MSTORE PUSH1 0x20 ADD DUP3 DUP1 SLOAD PUSH3 0x92B SWAP1 PUSH3 0x12CE JUMP JUMPDEST DUP1 ISZERO PUSH3 0x97C JUMPI DUP1 PUSH1 0x1F LT PUSH3 0x950 JUMPI PUSH2 0x100 DUP1 DUP4 SLOAD DIV MUL DUP4 MSTORE SWAP2 PUSH1 0x20 ADD SWAP2 PUSH3 0x97C JUMP JUMPDEST DUP3 ADD SWAP2 SWAP1 PUSH1 0x0 MSTORE PUSH1 0x20 PUSH1 0x0 KECCAK256 SWAP1 JUMPDEST DUP2 SLOAD DUP2 MSTORE SWAP1 PUSH1 0x1 ADD SWAP1 PUSH1 0x20 ADD DUP1 DUP4 GT PUSH3 0x95E JUMPI DUP3 SWAP1 SUB PUSH1 0x1F AND DUP3 ADD SWAP2 JUMPDEST POP POP POP POP POP SWAP1 DUP1 PUSH1 0x2 ADD DUP1 SLOAD PUSH3 0x993 SWAP1 PUSH3 0x12CE JUMP JUMPDEST DUP1 PUSH1 0x1F ADD PUSH1 0x20 DUP1 SWAP2 DIV MUL PUSH1 0x20 ADD PUSH1 0x40 MLOAD SWAP1 DUP2 ADD PUSH1 0x40 MSTORE DUP1 SWAP3 SWAP2 SWAP1 DUP2 DUP2 MSTORE PUSH1 0x20 ADD DUP3 DUP1 SLOAD PUSH3 0x9C1 SWAP1 PUSH3 0x12CE JUMP JUMPDEST DUP1 ISZERO PUSH3 0xA12 JUMPI DUP1 PUSH1 0x1F LT PUSH3 0x9E6 JUMPI PUSH2 0x100 DUP1 DUP4 SLOAD DIV MUL DUP4 MSTORE SWAP2 PUSH1 0x20 ADD SWAP2 PUSH3 0xA12 JUMP JUMPDEST DUP3 ADD SWAP2 SWAP1 PUSH1 0x0 MSTORE PUSH1 0x20 PUSH1 0x0 KECCAK256 SWAP1 JUMPDEST DUP2 SLOAD DUP2 MSTORE SWAP1 PUSH1 0x1 ADD SWAP1 PUSH1 0x20 ADD DUP1 DUP4 GT PUSH3 0x9F4 JUMPI DUP3 SWAP1 SUB PUSH1 0x1F AND DUP3 ADD SWAP2 JUMPDEST POP POP POP PUSH1 0x3 SWAP1 SWAP4 ADD SLOAD SWAP2 SWAP3 POP POP PUSH1 0x1 PUSH1 0x1 PUSH1 0xA0 SHL SUB AND DUP5 JUMP JUMPDEST PUSH1 0x60 DUP2 DUP4 LT PUSH3 0xA6E JUMPI PUSH1 0x40 MLOAD PUSH3 0x461BCD PUSH1 0xE5 SHL DUP2 MSTORE PUSH1 0x20 PUSH1 0x4 DUP3 ADD MSTORE PUSH1 0xD PUSH1 0x24 DUP3 ADD MSTORE PUSH13 0x496E76616C69642072616E6765 PUSH1 0x98 SHL PUSH1 0x44 DUP3 ADD MSTORE PUSH1 0x64 ADD PUSH3 0x347 JUMP JUMPDEST PUSH1 0x2 SLOAD DUP3 GT ISZERO PUSH3 0xAB6 JUMPI PUSH1 0x40 MLOAD PUSH3 0x461BCD PUSH1 0xE5 SHL DUP2 MSTORE PUSH1 0x20 PUSH1 0x4 DUP3 ADD MSTORE PUSH1 0x11 PUSH1 0x24 DUP3 ADD MSTORE PUSH17 0x456E64206F7574206F6620626F756E6473 PUSH1 0x78 SHL PUSH1 0x44 DUP3 ADD MSTORE PUSH1 0x64 ADD PUSH3 0x347 JUMP JUMPDEST PUSH1 0x0 PUSH3 0xAC4 DUP5 DUP5 PUSH3 0x1320 JUMP JUMPDEST PUSH8 0xFFFFFFFFFFFFFFFF DUP2 GT ISZERO PUSH3 0xADF JUMPI PUSH3 0xADF PUSH3 0xFED JUMP JUMPDEST PUSH1 0x40 MLOAD SWAP1 DUP1 DUP3 MSTORE DUP1 PUSH1 0x20 MUL PUSH1 0x20 ADD DUP3 ADD PUSH1 0x40 MSTORE DUP1 ISZERO PUSH3 0xB1C JUMPI DUP2 PUSH1 0x20 ADD JUMPDEST PUSH3 0xB08 PUSH3 0xECA JUMP JUMPDEST DUP2 MSTORE PUSH1 0x20 ADD SWAP1 PUSH1 0x1 SWAP1 SUB SWAP1 DUP2 PUSH3 0xAFE JUMPI SWAP1 POP JUMPDEST POP SWAP1 POP DUP4 JUMPDEST DUP4 DUP2 LT ISZERO PUSH3 0xCFA JUMPI PUSH1 0x2 DUP2 DUP2 SLOAD DUP2 LT PUSH3 0xB40 JUMPI PUSH3 0xB40 PUSH3 0x12B8 JUMP JUMPDEST PUSH1 0x0 SWAP2 DUP3 MSTORE PUSH1 0x20 SWAP2 DUP3 SWAP1 KECCAK256 PUSH1 0x40 DUP1 MLOAD PUSH1 0x80 DUP2 ADD SWAP1 SWAP2 MSTORE PUSH1 0x4 SWAP1 SWAP3 MUL ADD DUP1 SLOAD PUSH1 0x1 PUSH1 0x1 PUSH1 0xA0 SHL SUB AND DUP3 MSTORE PUSH1 0x1 DUP2 ADD DUP1 SLOAD SWAP3 SWAP4 SWAP2 SWAP3 SWAP2 DUP5 ADD SWAP2 PUSH3 0xB82 SWAP1 PUSH3 0x12CE JUMP JUMPDEST DUP1 PUSH1 0x1F ADD PUSH1 0x20 DUP1 SWAP2 DIV MUL PUSH1 0x20 ADD PUSH1 0x40 MLOAD SWAP1 DUP2 ADD PUSH1 0x40 MSTORE DUP1 SWAP3 SWAP2 SWAP1 DUP2 DUP2 MSTORE PUSH1 0x20 ADD DUP3 DUP1 SLOAD PUSH3 0xBB0 SWAP1 PUSH3 0x12CE JUMP JUMPDEST DUP1 ISZERO PUSH3 0xC01 JUMPI DUP1 PUSH1 0x1F LT PUSH3 0xBD5 JUMPI PUSH2 0x100 DUP1 DUP4 SLOAD DIV MUL DUP4 MSTORE SWAP2 PUSH1 0x20 ADD SWAP2 PUSH3 0xC01 JUMP JUMPDEST DUP3 ADD SWAP2 SWAP1 PUSH1 0x0 MSTORE PUSH1 0x20 PUSH1 0x0 KECCAK256 SWAP1 JUMPDEST DUP2 SLOAD DUP2 MSTORE SWAP1 PUSH1 0x1 ADD SWAP1 PUSH1 0x20 ADD DUP1 DUP4 GT PUSH3 0xBE3 JUMPI DUP3 SWAP1 SUB PUSH1 0x1F AND DUP3 ADD SWAP2 JUMPDEST POP POP POP POP POP DUP2 MSTORE PUSH1 0x20 ADD PUSH1 0x2 DUP3 ADD DUP1 SLOAD PUSH3 0xC1C SWAP1 PUSH3 0x12CE JUMP JUMPDEST DUP1 PUSH1 0x1F ADD PUSH1 0x20 DUP1 SWAP2 DIV MUL PUSH1 0x20 ADD PUSH1 0x40 MLOAD SWAP1 DUP2 ADD PUSH1 0x40 MSTORE DUP1 SWAP3 SWAP2 SWAP1 DUP2 DUP2 MSTORE PUSH1 0x20 ADD DUP3 DUP1 SLOAD PUSH3 0xC4A SWAP1 PUSH3 0x12CE JUMP JUMPDEST DUP1 ISZERO PUSH3 0xC9B JUMPI DUP1 PUSH1 0x1F LT PUSH3 0xC6F JUMPI PUSH2 0x100 DUP1 DUP4 SLOAD DIV MUL DUP4 MSTORE SWAP2 PUSH1 0x20 ADD SWAP2 PUSH3 0xC9B JUMP JUMPDEST DUP3 ADD SWAP2 SWAP1 PUSH1 0x0 MSTORE PUSH1 0x20 PUSH1 0x0 KECCAK256 SWAP1 JUMPDEST DUP2 SLOAD DUP2 MSTORE SWAP1 PUSH1 0x1 ADD SWAP1 PUSH1 0x20 ADD DUP1 DUP4 GT PUSH3 0xC7D JUMPI DUP3 SWAP1 SUB PUSH1 0x1F AND DUP3 ADD SWAP2 JUMPDEST POP POP POP SWAP2 DUP4 MSTORE POP POP PUSH1 0x3 SWAP2 SWAP1 SWAP2 ADD SLOAD PUSH1 0x1 PUSH1 0x1 PUSH1 0xA0 SHL SUB AND PUSH1 0x20 SWAP1 SWAP2 ADD MSTORE DUP3 PUSH3 0xCC6 DUP8 DUP5 PUSH3 0x1320 JUMP JUMPDEST DUP2 MLOAD DUP2 LT PUSH3 0xCD9 JUMPI PUSH3 0xCD9 PUSH3 0x12B8 JUMP JUMPDEST PUSH1 0x20 MUL PUSH1 0x20 ADD ADD DUP2 SWAP1 MSTORE POP DUP1 DUP1 PUSH3 0xCF1 SWAP1 PUSH3 0x152D JUMP JUMPDEST SWAP2 POP POP PUSH3 0xB21 JUMP JUMPDEST POP SWAP1 POP JUMPDEST SWAP3 SWAP2 POP POP JUMP JUMPDEST PUSH3 0xD0E PUSH3 0xE1E JUMP JUMPDEST PUSH1 0x1 PUSH1 0x1 PUSH1 0xA0 SHL SUB DUP2 AND PUSH3 0xD58 JUMPI PUSH1 0x40 MLOAD PUSH3 0x461BCD PUSH1 0xE5 SHL DUP2 MSTORE PUSH1 0x20 PUSH1 0x4 DUP3 ADD MSTORE PUSH1 0xF PUSH1 0x24 DUP3 ADD MSTORE PUSH15 0x496E76616C69642061646472657373 PUSH1 0x88 SHL PUSH1 0x44 DUP3 ADD MSTORE PUSH1 0x64 ADD PUSH3 0x347 JUMP JUMPDEST PUSH1 0x1 DUP1 SLOAD PUSH1 0x1 PUSH1 0x1 PUSH1 0xA0 SHL SUB NOT AND PUSH1 0x1 PUSH1 0x1 PUSH1 0xA0 SHL SUB DUP4 AND SWAP1 DUP2 OR SWAP1 SWAP2 SSTORE PUSH1 0x40 MLOAD PUSH32 0x7A7B5A0A132F9E0581EB8527F66EAE9EE89C2A3E79D4AC7E41A1F1F4D48A7FC2 SWAP1 PUSH1 0x0 SWAP1 LOG2 POP JUMP JUMPDEST PUSH3 0xDAC PUSH3 0xE1E JUMP JUMPDEST PUSH1 0x1 PUSH1 0x1 PUSH1 0xA0 SHL SUB DUP2 AND PUSH3 0xE13 JUMPI PUSH1 0x40 MLOAD PUSH3 0x461BCD PUSH1 0xE5 SHL DUP2 MSTORE PUSH1 0x20 PUSH1 0x4 DUP3 ADD MSTORE PUSH1 0x26 PUSH1 0x24 DUP3 ADD MSTORE PUSH32 0x4F776E61626C653A206E6577206F776E657220697320746865207A65726F2061 PUSH1 0x44 DUP3 ADD MSTORE PUSH6 0x646472657373 PUSH1 0xD0 SHL PUSH1 0x64 DUP3 ADD MSTORE PUSH1 0x84 ADD PUSH3 0x347 JUMP JUMPDEST PUSH3 0x2D4 DUP2 PUSH3 0xE7A JUMP JUMPDEST PUSH1 0x0 SLOAD PUSH1 0x1 PUSH1 0x1 PUSH1 0xA0 SHL SUB AND CALLER EQ PUSH3 0x2ED JUMPI PUSH1 0x40 MLOAD PUSH3 0x461BCD PUSH1 0xE5 SHL DUP2 MSTORE PUSH1 0x20 PUSH1 0x4 DUP3 ADD DUP2 SWAP1 MSTORE PUSH1 0x24 DUP3 ADD MSTORE PUSH32 0x4F776E61626C653A2063616C6C6572206973206E6F7420746865206F776E6572 PUSH1 0x44 DUP3 ADD MSTORE PUSH1 0x64 ADD PUSH3 0x347 JUMP JUMPDEST PUSH1 0x0 DUP1 SLOAD PUSH1 0x1 PUSH1 0x1 PUSH1 0xA0 SHL SUB DUP4 DUP2 AND PUSH1 0x1 PUSH1 0x1 PUSH1 0xA0 SHL SUB NOT DUP4 AND DUP2 OR DUP5 SSTORE PUSH1 0x40 MLOAD SWAP2 SWAP1 SWAP3 AND SWAP3 DUP4 SWAP2 PUSH32 0x8BE0079C531659141344CD1FD0A4F28419497F9722A3DAAFE3B4186F6B6457E0 SWAP2 SWAP1 LOG3 POP POP JUMP JUMPDEST PUSH1 0x40 MLOAD DUP1 PUSH1 0x80 ADD PUSH1 0x40 MSTORE DUP1 PUSH1 0x0 PUSH1 0x1 PUSH1 0x1 PUSH1 0xA0 SHL SUB AND DUP2 MSTORE PUSH1 0x20 ADD PUSH1 0x60 DUP2 MSTORE PUSH1 0x20 ADD PUSH1 0x60 DUP2 MSTORE PUSH1 0x20 ADD PUSH1 0x0 PUSH1 0x1 PUSH1 0x1 PUSH1 0xA0 SHL SUB AND DUP2 MSTORE POP SWAP1 JUMP JUMPDEST PUSH2 0x20A1 DUP1 PUSH3 0x154A DUP4 CODECOPY ADD SWAP1 JUMP JUMPDEST PUSH1 0x0 PUSH1 0x20 DUP3 DUP5 SUB SLT ISZERO PUSH3 0xF25 JUMPI PUSH1 0x0 DUP1 REVERT JUMPDEST POP CALLDATALOAD SWAP2 SWAP1 POP JUMP JUMPDEST PUSH1 0x0 DUP2 MLOAD DUP1 DUP5 MSTORE PUSH1 0x0 JUMPDEST DUP2 DUP2 LT ISZERO PUSH3 0xF54 JUMPI PUSH1 0x20 DUP2 DUP6 ADD DUP2 ADD MLOAD DUP7 DUP4 ADD DUP3 ADD MSTORE ADD PUSH3 0xF36 JUMP JUMPDEST POP PUSH1 0x0 PUSH1 0x20 DUP3 DUP7 ADD ADD MSTORE PUSH1 0x20 PUSH1 0x1F NOT PUSH1 0x1F DUP4 ADD AND DUP6 ADD ADD SWAP2 POP POP SWAP3 SWAP2 POP POP JUMP JUMPDEST PUSH1 0x0 PUSH1 0x1 DUP1 PUSH1 0xA0 SHL SUB DUP1 DUP4 MLOAD AND DUP5 MSTORE PUSH1 0x20 DUP4 ADD MLOAD PUSH1 0x80 PUSH1 0x20 DUP7 ADD MSTORE PUSH3 0xF9E PUSH1 0x80 DUP7 ADD DUP3 PUSH3 0xF2C JUMP JUMPDEST SWAP1 POP PUSH1 0x40 DUP5 ADD MLOAD DUP6 DUP3 SUB PUSH1 0x40 DUP8 ADD MSTORE PUSH3 0xFB9 DUP3 DUP3 PUSH3 0xF2C JUMP JUMPDEST PUSH1 0x60 SWAP6 DUP7 ADD MLOAD SWAP1 SWAP4 AND SWAP6 SWAP1 SWAP5 ADD SWAP5 SWAP1 SWAP5 MSTORE SWAP4 SWAP3 POP POP POP JUMP JUMPDEST PUSH1 0x20 DUP2 MSTORE PUSH1 0x0 PUSH3 0xFE6 PUSH1 0x20 DUP4 ADD DUP5 PUSH3 0xF74 JUMP JUMPDEST SWAP4 SWAP3 POP POP POP JUMP JUMPDEST PUSH4 0x4E487B71 PUSH1 0xE0 SHL PUSH1 0x0 MSTORE PUSH1 0x41 PUSH1 0x4 MSTORE PUSH1 0x24 PUSH1 0x0 REVERT JUMPDEST PUSH1 0x0 DUP3 PUSH1 0x1F DUP4 ADD SLT PUSH3 0x1015 JUMPI PUSH1 0x0 DUP1 REVERT JUMPDEST DUP2 CALLDATALOAD PUSH8 0xFFFFFFFFFFFFFFFF DUP1 DUP3 GT ISZERO PUSH3 0x1033 JUMPI PUSH3 0x1033 PUSH3 0xFED JUMP JUMPDEST PUSH1 0x40 MLOAD PUSH1 0x1F DUP4 ADD PUSH1 0x1F NOT SWAP1 DUP2 AND PUSH1 0x3F ADD AND DUP2 ADD SWAP1 DUP3 DUP3 GT DUP2 DUP4 LT OR ISZERO PUSH3 0x105E JUMPI PUSH3 0x105E PUSH3 0xFED JUMP JUMPDEST DUP2 PUSH1 0x40 MSTORE DUP4 DUP2 MSTORE DUP7 PUSH1 0x20 DUP6 DUP9 ADD ADD GT ISZERO PUSH3 0x1078 JUMPI PUSH1 0x0 DUP1 REVERT JUMPDEST DUP4 PUSH1 0x20 DUP8 ADD PUSH1 0x20 DUP4 ADD CALLDATACOPY PUSH1 0x0 PUSH1 0x20 DUP6 DUP4 ADD ADD MSTORE DUP1 SWAP5 POP POP POP POP POP SWAP3 SWAP2 POP POP JUMP JUMPDEST DUP1 CALLDATALOAD PUSH1 0xFF DUP2 AND DUP2 EQ PUSH3 0x10AA JUMPI PUSH1 0x0 DUP1 REVERT JUMPDEST SWAP2 SWAP1 POP JUMP JUMPDEST PUSH1 0x0 DUP1 PUSH1 0x0 DUP1 PUSH1 0x0 DUP1 PUSH1 0x0 DUP1 PUSH2 0x100 DUP10 DUP12 SUB SLT ISZERO PUSH3 0x10CD JUMPI PUSH1 0x0 DUP1 REVERT JUMPDEST DUP9 CALLDATALOAD PUSH8 0xFFFFFFFFFFFFFFFF DUP1 DUP3 GT ISZERO PUSH3 0x10E6 JUMPI PUSH1 0x0 DUP1 REVERT JUMPDEST PUSH3 0x10F4 DUP13 DUP4 DUP14 ADD PUSH3 0x1003 JUMP JUMPDEST SWAP10 POP PUSH1 0x20 DUP12 ADD CALLDATALOAD SWAP2 POP DUP1 DUP3 GT ISZERO PUSH3 0x110B JUMPI PUSH1 0x0 DUP1 REVERT JUMPDEST PUSH3 0x1119 DUP13 DUP4 DUP14 ADD PUSH3 0x1003 JUMP JUMPDEST SWAP9 POP PUSH3 0x1129 PUSH1 0x40 DUP13 ADD PUSH3 0x1098 JUMP JUMPDEST SWAP8 POP PUSH1 0x60 DUP12 ADD CALLDATALOAD SWAP7 POP PUSH1 0x80 DUP12 ADD CALLDATALOAD SWAP6 POP PUSH1 0xA0 DUP12 ADD CALLDATALOAD SWAP2 POP DUP1 DUP3 GT ISZERO PUSH3 0x114E JUMPI PUSH1 0x0 DUP1 REVERT JUMPDEST PUSH3 0x115C DUP13 DUP4 DUP14 ADD PUSH3 0x1003 JUMP JUMPDEST SWAP5 POP PUSH1 0xC0 DUP12 ADD CALLDATALOAD SWAP2 POP DUP1 DUP3 GT ISZERO PUSH3 0x1173 JUMPI PUSH1 0x0 DUP1 REVERT JUMPDEST PUSH3 0x1181 DUP13 DUP4 DUP14 ADD PUSH3 0x1003 JUMP JUMPDEST SWAP4 POP PUSH1 0xE0 DUP12 ADD CALLDATALOAD SWAP2 POP DUP1 DUP3 GT ISZERO PUSH3 0x1198 JUMPI PUSH1 0x0 DUP1 REVERT JUMPDEST POP PUSH3 0x11A7 DUP12 DUP3 DUP13 ADD PUSH3 0x1003 JUMP JUMPDEST SWAP2 POP POP SWAP3 SWAP6 SWAP9 POP SWAP3 SWAP6 SWAP9 SWAP1 SWAP4 SWAP7 POP JUMP JUMPDEST PUSH1 0x0 PUSH1 0x1 DUP1 PUSH1 0xA0 SHL SUB DUP1 DUP8 AND DUP4 MSTORE PUSH1 0x80 PUSH1 0x20 DUP5 ADD MSTORE PUSH3 0x11DB PUSH1 0x80 DUP5 ADD DUP8 PUSH3 0xF2C JUMP JUMPDEST DUP4 DUP2 SUB PUSH1 0x40 DUP6 ADD MSTORE PUSH3 0x11EF DUP2 DUP8 PUSH3 0xF2C JUMP JUMPDEST SWAP3 POP POP DUP1 DUP5 AND PUSH1 0x60 DUP5 ADD MSTORE POP SWAP6 SWAP5 POP POP POP POP POP JUMP JUMPDEST PUSH1 0x0 DUP1 PUSH1 0x40 DUP4 DUP6 SUB SLT ISZERO PUSH3 0x1218 JUMPI PUSH1 0x0 DUP1 REVERT JUMPDEST POP POP DUP1 CALLDATALOAD SWAP3 PUSH1 0x20 SWAP1 SWAP2 ADD CALLDATALOAD SWAP2 POP JUMP JUMPDEST PUSH1 0x0 PUSH1 0x20 DUP1 DUP4 ADD DUP2 DUP5 MSTORE DUP1 DUP6 MLOAD DUP1 DUP4 MSTORE PUSH1 0x40 DUP7 ADD SWAP2 POP PUSH1 0x40 DUP2 PUSH1 0x5 SHL DUP8 ADD ADD SWAP3 POP DUP4 DUP8 ADD PUSH1 0x0 JUMPDEST DUP3 DUP2 LT ISZERO PUSH3 0x1280 JUMPI PUSH1 0x3F NOT DUP9 DUP7 SUB ADD DUP5 MSTORE PUSH3 0x126D DUP6 DUP4 MLOAD PUSH3 0xF74 JUMP JUMPDEST SWAP5 POP SWAP3 DUP6 ADD SWAP3 SWAP1 DUP6 ADD SWAP1 PUSH1 0x1 ADD PUSH3 0x124E JUMP JUMPDEST POP SWAP3 SWAP8 SWAP7 POP POP POP POP POP POP POP JUMP JUMPDEST PUSH1 0x0 PUSH1 0x20 DUP3 DUP5 SUB SLT ISZERO PUSH3 0x12A0 JUMPI PUSH1 0x0 DUP1 REVERT JUMPDEST DUP2 CALLDATALOAD PUSH1 0x1 PUSH1 0x1 PUSH1 0xA0 SHL SUB DUP2 AND DUP2 EQ PUSH3 0xFE6 JUMPI PUSH1 0x0 DUP1 REVERT JUMPDEST PUSH4 0x4E487B71 PUSH1 0xE0 SHL PUSH1 0x0 MSTORE PUSH1 0x32 PUSH1 0x4 MSTORE PUSH1 0x24 PUSH1 0x0 REVERT JUMPDEST PUSH1 0x1 DUP2 DUP2 SHR SWAP1 DUP3 AND DUP1 PUSH3 0x12E3 JUMPI PUSH1 0x7F DUP3 AND SWAP2 POP JUMPDEST PUSH1 0x20 DUP3 LT DUP2 SUB PUSH3 0x1304 JUMPI PUSH4 0x4E487B71 PUSH1 0xE0 SHL PUSH1 0x0 MSTORE PUSH1 0x22 PUSH1 0x4 MSTORE PUSH1 0x24 PUSH1 0x0 REVERT JUMPDEST POP SWAP2 SWAP1 POP JUMP JUMPDEST PUSH4 0x4E487B71 PUSH1 0xE0 SHL PUSH1 0x0 MSTORE PUSH1 0x11 PUSH1 0x4 MSTORE PUSH1 0x24 PUSH1 0x0 REVERT JUMPDEST DUP2 DUP2 SUB DUP2 DUP2 GT ISZERO PUSH3 0xCFE JUMPI PUSH3 0xCFE PUSH3 0x130A JUMP JUMPDEST PUSH1 0x0 PUSH2 0x120 DUP1 DUP4 MSTORE PUSH3 0x134C DUP2 DUP5 ADD DUP14 PUSH3 0xF2C JUMP JUMPDEST SWAP1 POP DUP3 DUP2 SUB PUSH1 0x20 DUP5 ADD MSTORE PUSH3 0x1362 DUP2 DUP13 PUSH3 0xF2C JUMP JUMPDEST PUSH1 0xFF DUP12 AND PUSH1 0x40 DUP6 ADD MSTORE PUSH1 0x60 DUP5 ADD DUP11 SWAP1 MSTORE PUSH1 0x80 DUP5 ADD DUP10 SWAP1 MSTORE PUSH1 0x1 PUSH1 0x1 PUSH1 0xA0 SHL SUB DUP9 AND PUSH1 0xA0 DUP6 ADD MSTORE DUP4 DUP2 SUB PUSH1 0xC0 DUP6 ADD MSTORE SWAP1 POP PUSH3 0x139E DUP2 DUP8 PUSH3 0xF2C JUMP JUMPDEST SWAP1 POP DUP3 DUP2 SUB PUSH1 0xE0 DUP5 ADD MSTORE PUSH3 0x13B4 DUP2 DUP7 PUSH3 0xF2C JUMP JUMPDEST SWAP1 POP DUP3 DUP2 SUB PUSH2 0x100 DUP5 ADD MSTORE PUSH3 0x13CB DUP2 DUP6 PUSH3 0xF2C JUMP JUMPDEST SWAP13 SWAP12 POP POP POP POP POP POP POP POP POP POP POP POP JUMP JUMPDEST PUSH1 0x1F DUP3 GT ISZERO PUSH3 0x1429 JUMPI PUSH1 0x0 DUP2 DUP2 MSTORE PUSH1 0x20 DUP2 KECCAK256 PUSH1 0x1F DUP6 ADD PUSH1 0x5 SHR DUP2 ADD PUSH1 0x20 DUP7 LT ISZERO PUSH3 0x1404 JUMPI POP DUP1 JUMPDEST PUSH1 0x1F DUP6 ADD PUSH1 0x5 SHR DUP3 ADD SWAP2 POP JUMPDEST DUP2 DUP2 LT ISZERO PUSH3 0x1425 JUMPI DUP3 DUP2 SSTORE PUSH1 0x1 ADD PUSH3 0x1410 JUMP JUMPDEST POP POP POP JUMPDEST POP POP POP JUMP JUMPDEST DUP2 MLOAD PUSH8 0xFFFFFFFFFFFFFFFF DUP2 GT ISZERO PUSH3 0x144B JUMPI PUSH3 0x144B PUSH3 0xFED JUMP JUMPDEST PUSH3 0x1463 DUP2 PUSH3 0x145C DUP5 SLOAD PUSH3 0x12CE JUMP JUMPDEST DUP5 PUSH3 0x13DB JUMP JUMPDEST PUSH1 0x20 DUP1 PUSH1 0x1F DUP4 GT PUSH1 0x1 DUP2 EQ PUSH3 0x149B JUMPI PUSH1 0x0 DUP5 ISZERO PUSH3 0x1482 JUMPI POP DUP6 DUP4 ADD MLOAD JUMPDEST PUSH1 0x0 NOT PUSH1 0x3 DUP7 SWAP1 SHL SHR NOT AND PUSH1 0x1 DUP6 SWAP1 SHL OR DUP6 SSTORE PUSH3 0x1425 JUMP JUMPDEST PUSH1 0x0 DUP6 DUP2 MSTORE PUSH1 0x20 DUP2 KECCAK256 PUSH1 0x1F NOT DUP7 AND SWAP2 JUMPDEST DUP3 DUP2 LT ISZERO PUSH3 0x14CC JUMPI DUP9 DUP7 ADD MLOAD DUP3 SSTORE SWAP5 DUP5 ADD SWAP5 PUSH1 0x1 SWAP1 SWAP2 ADD SWAP1 DUP5 ADD PUSH3 0x14AB JUMP JUMPDEST POP DUP6 DUP3 LT ISZERO PUSH3 0x14EB JUMPI DUP8 DUP6 ADD MLOAD PUSH1 0x0 NOT PUSH1 0x3 DUP9 SWAP1 SHL PUSH1 0xF8 AND SHR NOT AND DUP2 SSTORE JUMPDEST POP POP POP POP POP PUSH1 0x1 SWAP1 DUP2 SHL ADD SWAP1 SSTORE POP JUMP JUMPDEST PUSH1 0x40 DUP2 MSTORE PUSH1 0x0 PUSH3 0x1510 PUSH1 0x40 DUP4 ADD DUP6 PUSH3 0xF2C JUMP JUMPDEST DUP3 DUP2 SUB PUSH1 0x20 DUP5 ADD MSTORE PUSH3 0x1524 DUP2 DUP6 PUSH3 0xF2C JUMP JUMPDEST SWAP6 SWAP5 POP POP POP POP POP JUMP JUMPDEST PUSH1 0x0 PUSH1 0x1 DUP3 ADD PUSH3 0x1542 JUMPI PUSH3 0x1542 PUSH3 0x130A JUMP JUMPDEST POP PUSH1 0x1 ADD SWAP1 JUMP INVALID PUSH1 0xA0 PUSH1 0x40 MSTORE CALLVALUE DUP1 ISZERO PUSH3 0x11 JUMPI PUSH1 0x0 DUP1 REVERT JUMPDEST POP PUSH1 0x40 MLOAD PUSH3 0x20A1 CODESIZE SUB DUP1 PUSH3 0x20A1 DUP4 CODECOPY DUP2 ADD PUSH1 0x40 DUP2 SWAP1 MSTORE PUSH3 0x34 SWAP2 PUSH3 0x520 JUMP JUMPDEST DUP9 DUP9 PUSH1 0x3 PUSH3 0x44 DUP4 DUP3 PUSH3 0x6C8 JUMP JUMPDEST POP PUSH1 0x4 PUSH3 0x53 DUP3 DUP3 PUSH3 0x6C8 JUMP JUMPDEST POP POP PUSH1 0x5 DUP1 SLOAD PUSH1 0xFF NOT AND SWAP1 SSTORE POP PUSH3 0x6B CALLER PUSH3 0x1B4 JUMP JUMPDEST PUSH1 0x0 DUP6 GT PUSH3 0xC1 JUMPI PUSH1 0x40 MLOAD PUSH3 0x461BCD PUSH1 0xE5 SHL DUP2 MSTORE PUSH1 0x20 PUSH1 0x4 DUP3 ADD MSTORE PUSH1 0x15 PUSH1 0x24 DUP3 ADD MSTORE PUSH32 0x456475426F7845524332303A2063617020697320300000000000000000000000 PUSH1 0x44 DUP3 ADD MSTORE PUSH1 0x64 ADD JUMPDEST PUSH1 0x40 MLOAD DUP1 SWAP2 SUB SWAP1 REVERT JUMPDEST DUP5 DUP7 GT ISZERO PUSH3 0x123 JUMPI PUSH1 0x40 MLOAD PUSH3 0x461BCD PUSH1 0xE5 SHL DUP2 MSTORE PUSH1 0x20 PUSH1 0x4 DUP3 ADD MSTORE PUSH1 0x27 PUSH1 0x24 DUP3 ADD MSTORE PUSH32 0x456475426F7845524332303A20696E697469616C20737570706C792065786365 PUSH1 0x44 DUP3 ADD MSTORE PUSH7 0x6564732063617 PUSH1 0xCC SHL PUSH1 0x64 DUP3 ADD MSTORE PUSH1 0x84 ADD PUSH3 0xB8 JUMP JUMPDEST PUSH1 0x5 DUP1 SLOAD PUSH1 0xFF PUSH1 0xA8 SHL NOT AND PUSH1 0x1 PUSH1 0xA8 SHL PUSH1 0xFF DUP11 AND MUL OR SWAP1 SSTORE PUSH1 0x80 DUP6 SWAP1 MSTORE PUSH3 0x14C DUP5 DUP8 PUSH3 0x20E JUMP JUMPDEST PUSH3 0x157 DUP5 PUSH3 0x2DF JUMP JUMPDEST PUSH1 0x0 NOT PUSH1 0x7 SSTORE PUSH1 0xA DUP1 SLOAD PUSH1 0x1 PUSH1 0x1 PUSH1 0xA0 SHL SUB NOT AND PUSH1 0x1 PUSH1 0x1 PUSH1 0xA0 SHL SUB DUP7 AND OR SWAP1 SSTORE PUSH1 0xB PUSH3 0x186 DUP5 DUP3 PUSH3 0x6C8 JUMP JUMPDEST POP PUSH1 0xC PUSH3 0x195 DUP4 DUP3 PUSH3 0x6C8 JUMP JUMPDEST POP PUSH1 0xD PUSH3 0x1A4 DUP3 DUP3 PUSH3 0x6C8 JUMP JUMPDEST POP POP POP POP POP POP POP POP POP POP PUSH3 0x7BC JUMP JUMPDEST PUSH1 0x5 DUP1 SLOAD PUSH1 0x1 PUSH1 0x1 PUSH1 0xA0 SHL SUB DUP4 DUP2 AND PUSH2 0x100 DUP2 DUP2 MUL PUSH2 0x100 PUSH1 0x1 PUSH1 0xA8 SHL SUB NOT DUP6 AND OR SWAP1 SWAP5 SSTORE PUSH1 0x40 MLOAD SWAP4 SWAP1 SWAP3 DIV AND SWAP2 DUP3 SWAP1 PUSH32 0x8BE0079C531659141344CD1FD0A4F28419497F9722A3DAAFE3B4186F6B6457E0 SWAP1 PUSH1 0x0 SWAP1 LOG3 POP POP JUMP JUMPDEST PUSH1 0x1 PUSH1 0x1 PUSH1 0xA0 SHL SUB DUP3 AND PUSH3 0x266 JUMPI PUSH1 0x40 MLOAD PUSH3 0x461BCD PUSH1 0xE5 SHL DUP2 MSTORE PUSH1 0x20 PUSH1 0x4 DUP3 ADD MSTORE PUSH1 0x1F PUSH1 0x24 DUP3 ADD MSTORE PUSH32 0x45524332303A206D696E7420746F20746865207A65726F206164647265737300 PUSH1 0x44 DUP3 ADD MSTORE PUSH1 0x64 ADD PUSH3 0xB8 JUMP JUMPDEST PUSH3 0x274 PUSH1 0x0 DUP4 DUP4 PUSH3 0x35E JUMP JUMPDEST DUP1 PUSH1 0x2 PUSH1 0x0 DUP3 DUP3 SLOAD PUSH3 0x288 SWAP2 SWAP1 PUSH3 0x794 JUMP JUMPDEST SWAP1 SWAP2 SSTORE POP POP PUSH1 0x1 PUSH1 0x1 PUSH1 0xA0 SHL SUB DUP3 AND PUSH1 0x0 DUP2 DUP2 MSTORE PUSH1 0x20 DUP2 DUP2 MSTORE PUSH1 0x40 DUP1 DUP4 KECCAK256 DUP1 SLOAD DUP7 ADD SWAP1 SSTORE MLOAD DUP5 DUP2 MSTORE PUSH32 0xDDF252AD1BE2C89B69C2B068FC378DAA952BA7F163C4A11628F55A4DF523B3EF SWAP2 ADD PUSH1 0x40 MLOAD DUP1 SWAP2 SUB SWAP1 LOG3 POP POP JUMP JUMPDEST PUSH3 0x2E9 PUSH3 0x380 JUMP JUMPDEST PUSH1 0x1 PUSH1 0x1 PUSH1 0xA0 SHL SUB DUP2 AND PUSH3 0x350 JUMPI PUSH1 0x40 MLOAD PUSH3 0x461BCD PUSH1 0xE5 SHL DUP2 MSTORE PUSH1 0x20 PUSH1 0x4 DUP3 ADD MSTORE PUSH1 0x26 PUSH1 0x24 DUP3 ADD MSTORE PUSH32 0x4F776E61626C653A206E6577206F776E657220697320746865207A65726F2061 PUSH1 0x44 DUP3 ADD MSTORE PUSH6 0x646472657373 PUSH1 0xD0 SHL PUSH1 0x64 DUP3 ADD MSTORE PUSH1 0x84 ADD PUSH3 0xB8 JUMP JUMPDEST PUSH3 0x35B DUP2 PUSH3 0x1B4 JUMP JUMPDEST POP JUMP JUMPDEST PUSH3 0x368 PUSH3 0x3E4 JUMP JUMPDEST PUSH3 0x37B DUP4 DUP4 DUP4 PUSH1 0x1 PUSH1 0x1 PUSH1 0xE0 SHL SUB DUP5 AND JUMP JUMPDEST POP POP POP JUMP JUMPDEST PUSH1 0x5 SLOAD PUSH1 0x1 PUSH1 0x1 PUSH1 0xA0 SHL SUB PUSH2 0x100 SWAP1 SWAP2 DIV AND CALLER EQ PUSH3 0x3E2 JUMPI PUSH1 0x40 MLOAD PUSH3 0x461BCD PUSH1 0xE5 SHL DUP2 MSTORE PUSH1 0x20 PUSH1 0x4 DUP3 ADD DUP2 SWAP1 MSTORE PUSH1 0x24 DUP3 ADD MSTORE PUSH32 0x4F776E61626C653A2063616C6C6572206973206E6F7420746865206F776E6572 PUSH1 0x44 DUP3 ADD MSTORE PUSH1 0x64 ADD PUSH3 0xB8 JUMP JUMPDEST JUMP JUMPDEST PUSH1 0x5 SLOAD PUSH1 0xFF AND ISZERO PUSH3 0x3E2 JUMPI PUSH1 0x40 MLOAD PUSH3 0x461BCD PUSH1 0xE5 SHL DUP2 MSTORE PUSH1 0x20 PUSH1 0x4 DUP3 ADD MSTORE PUSH1 0x10 PUSH1 0x24 DUP3 ADD MSTORE PUSH16 0x14185D5CD8589B194E881C185D5CD959 PUSH1 0x82 SHL PUSH1 0x44 DUP3 ADD MSTORE PUSH1 0x64 ADD PUSH3 0xB8 JUMP JUMPDEST PUSH4 0x4E487B71 PUSH1 0xE0 SHL PUSH1 0x0 MSTORE PUSH1 0x41 PUSH1 0x4 MSTORE PUSH1 0x24 PUSH1 0x0 REVERT JUMPDEST PUSH1 0x0 DUP3 PUSH1 0x1F DUP4 ADD SLT PUSH3 0x454 JUMPI PUSH1 0x0 DUP1 REVERT JUMPDEST DUP2 MLOAD PUSH1 0x1 PUSH1 0x1 PUSH1 0x40 SHL SUB DUP1 DUP3 GT ISZERO PUSH3 0x471 JUMPI PUSH3 0x471 PUSH3 0x42C JUMP JUMPDEST PUSH1 0x40 MLOAD PUSH1 0x1F DUP4 ADD PUSH1 0x1F NOT SWAP1 DUP2 AND PUSH1 0x3F ADD AND DUP2 ADD SWAP1 DUP3 DUP3 GT DUP2 DUP4 LT OR ISZERO PUSH3 0x49C JUMPI PUSH3 0x49C PUSH3 0x42C JUMP JUMPDEST DUP2 PUSH1 0x40 MSTORE DUP4 DUP2 MSTORE PUSH1 0x20 SWAP3 POP DUP7 DUP4 DUP6 DUP9 ADD ADD GT ISZERO PUSH3 0x4B9 JUMPI PUSH1 0x0 DUP1 REVERT JUMPDEST PUSH1 0x0 SWAP2 POP JUMPDEST DUP4 DUP3 LT ISZERO PUSH3 0x4DD JUMPI DUP6 DUP3 ADD DUP4 ADD MLOAD DUP2 DUP4 ADD DUP5 ADD MSTORE SWAP1 DUP3 ADD SWAP1 PUSH3 0x4BE JUMP JUMPDEST PUSH1 0x0 SWAP4 DUP2 ADD SWAP1 SWAP3 ADD SWAP3 SWAP1 SWAP3 MSTORE SWAP5 SWAP4 POP POP POP POP JUMP JUMPDEST DUP1 MLOAD PUSH1 0xFF DUP2 AND DUP2 EQ PUSH3 0x503 JUMPI PUSH1 0x0 DUP1 REVERT JUMPDEST SWAP2 SWAP1 POP JUMP JUMPDEST DUP1 MLOAD PUSH1 0x1 PUSH1 0x1 PUSH1 0xA0 SHL SUB DUP2 AND DUP2 EQ PUSH3 0x503 JUMPI PUSH1 0x0 DUP1 REVERT JUMPDEST PUSH1 0x0 DUP1 PUSH1 0x0 DUP1 PUSH1 0x0 DUP1 PUSH1 0x0 DUP1 PUSH1 0x0 PUSH2 0x120 DUP11 DUP13 SUB SLT ISZERO PUSH3 0x540 JUMPI PUSH1 0x0 DUP1 REVERT JUMPDEST DUP10 MLOAD PUSH1 0x1 PUSH1 0x1 PUSH1 0x40 SHL SUB DUP1 DUP3 GT ISZERO PUSH3 0x558 JUMPI PUSH1 0x0 DUP1 REVERT JUMPDEST PUSH3 0x566 DUP14 DUP4 DUP15 ADD PUSH3 0x442 JUMP JUMPDEST SWAP11 POP PUSH1 0x20 DUP13 ADD MLOAD SWAP2 POP DUP1 DUP3 GT ISZERO PUSH3 0x57D JUMPI PUSH1 0x0 DUP1 REVERT JUMPDEST PUSH3 0x58B DUP14 DUP4 DUP15 ADD PUSH3 0x442 JUMP JUMPDEST SWAP10 POP PUSH3 0x59B PUSH1 0x40 DUP14 ADD PUSH3 0x4F1 JUMP JUMPDEST SWAP9 POP PUSH1 0x60 DUP13 ADD MLOAD SWAP8 POP PUSH1 0x80 DUP13 ADD MLOAD SWAP7 POP PUSH3 0x5B9 PUSH1 0xA0 DUP14 ADD PUSH3 0x508 JUMP JUMPDEST SWAP6 POP PUSH1 0xC0 DUP13 ADD MLOAD SWAP2 POP DUP1 DUP3 GT ISZERO PUSH3 0x5D0 JUMPI PUSH1 0x0 DUP1 REVERT JUMPDEST PUSH3 0x5DE DUP14 DUP4 DUP15 ADD PUSH3 0x442 JUMP JUMPDEST SWAP5 POP PUSH1 0xE0 DUP13 ADD MLOAD SWAP2 POP DUP1 DUP3 GT ISZERO PUSH3 0x5F5 JUMPI PUSH1 0x0 DUP1 REVERT JUMPDEST PUSH3 0x603 DUP14 DUP4 DUP15 ADD PUSH3 0x442 JUMP JUMPDEST SWAP4 POP PUSH2 0x100 DUP13 ADD MLOAD SWAP2 POP DUP1 DUP3 GT ISZERO PUSH3 0x61B JUMPI PUSH1 0x0 DUP1 REVERT JUMPDEST POP PUSH3 0x62A DUP13 DUP3 DUP14 ADD PUSH3 0x442 JUMP JUMPDEST SWAP2 POP POP SWAP3 SWAP6 SWAP9 POP SWAP3 SWAP6 SWAP9 POP SWAP3 SWAP6 SWAP9 JUMP JUMPDEST PUSH1 0x1 DUP2 DUP2 SHR SWAP1 DUP3 AND DUP1 PUSH3 0x64F JUMPI PUSH1 0x7F DUP3 AND SWAP2 POP JUMPDEST PUSH1 0x20 DUP3 LT DUP2 SUB PUSH3 0x670 JUMPI PUSH4 0x4E487B71 PUSH1 0xE0 SHL PUSH1 0x0 MSTORE PUSH1 0x22 PUSH1 0x4 MSTORE PUSH1 0x24 PUSH1 0x0 REVERT JUMPDEST POP SWAP2 SWAP1 POP JUMP JUMPDEST PUSH1 0x1F DUP3 GT ISZERO PUSH3 0x37B JUMPI PUSH1 0x0 DUP2 DUP2 MSTORE PUSH1 0x20 DUP2 KECCAK256 PUSH1 0x1F DUP6 ADD PUSH1 0x5 SHR DUP2 ADD PUSH1 0x20 DUP7 LT ISZERO PUSH3 0x69F JUMPI POP DUP1 JUMPDEST PUSH1 0x1F DUP6 ADD PUSH1 0x5 SHR DUP3 ADD SWAP2 POP JUMPDEST DUP2 DUP2 LT ISZERO PUSH3 0x6C0 JUMPI DUP3 DUP2 SSTORE PUSH1 0x1 ADD PUSH3 0x6AB JUMP JUMPDEST POP POP POP POP POP POP JUMP JUMPDEST DUP2 MLOAD PUSH1 0x1 PUSH1 0x1 PUSH1 0x40 SHL SUB DUP2 GT ISZERO PUSH3 0x6E4 JUMPI PUSH3 0x6E4 PUSH3 0x42C JUMP JUMPDEST PUSH3 0x6FC DUP2 PUSH3 0x6F5 DUP5 SLOAD PUSH3 0x63A JUMP JUMPDEST DUP5 PUSH3 0x676 JUMP JUMPDEST PUSH1 0x20 DUP1 PUSH1 0x1F DUP4 GT PUSH1 0x1 DUP2 EQ PUSH3 0x734 JUMPI PUSH1 0x0 DUP5 ISZERO PUSH3 0x71B JUMPI POP DUP6 DUP4 ADD MLOAD JUMPDEST PUSH1 0x0 NOT PUSH1 0x3 DUP7 SWAP1 SHL SHR NOT AND PUSH1 0x1 DUP6 SWAP1 SHL OR DUP6 SSTORE PUSH3 0x6C0 JUMP JUMPDEST PUSH1 0x0 DUP6 DUP2 MSTORE PUSH1 0x20 DUP2 KECCAK256 PUSH1 0x1F NOT DUP7 AND SWAP2 JUMPDEST DUP3 DUP2 LT ISZERO PUSH3 0x765 JUMPI DUP9 DUP7 ADD MLOAD DUP3 SSTORE SWAP5 DUP5 ADD SWAP5 PUSH1 0x1 SWAP1 SWAP2 ADD SWAP1 DUP5 ADD PUSH3 0x744 JUMP JUMPDEST POP DUP6 DUP3 LT ISZERO PUSH3 0x784 JUMPI DUP8 DUP6 ADD MLOAD PUSH1 0x0 NOT PUSH1 0x3 DUP9 SWAP1 SHL PUSH1 0xF8 AND SHR NOT AND DUP2 SSTORE JUMPDEST POP POP POP POP POP PUSH1 0x1 SWAP1 DUP2 SHL ADD SWAP1 SSTORE POP JUMP JUMPDEST DUP1 DUP3 ADD DUP1 DUP3 GT ISZERO PUSH3 0x7B6 JUMPI PUSH4 0x4E487B71 PUSH1 0xE0 SHL PUSH1 0x0 MSTORE PUSH1 0x11 PUSH1 0x4 MSTORE PUSH1 0x24 PUSH1 0x0 REVERT JUMPDEST SWAP3 SWAP2 POP POP JUMP JUMPDEST PUSH1 0x80 MLOAD PUSH2 0x18C2 PUSH3 0x7DF PUSH1 0x0 CODECOPY PUSH1 0x0 DUP2 DUP2 PUSH2 0x2AA ADD MSTORE PUSH2 0x69E ADD MSTORE PUSH2 0x18C2 PUSH1 0x0 RETURN INVALID PUSH1 0x80 PUSH1 0x40 MSTORE CALLVALUE DUP1 ISZERO PUSH2 0x10 JUMPI PUSH1 0x0 DUP1 REVERT JUMPDEST POP PUSH1 0x4 CALLDATASIZE LT PUSH2 0x206 JUMPI PUSH1 0x0 CALLDATALOAD PUSH1 0xE0 SHR DUP1 PUSH4 0x883FF459 GT PUSH2 0x11A JUMPI DUP1 PUSH4 0xA9E75723 GT PUSH2 0xAD JUMPI DUP1 PUSH4 0xDB2A4570 GT PUSH2 0x7C JUMPI DUP1 PUSH4 0xDB2A4570 EQ PUSH2 0x432 JUMPI DUP1 PUSH4 0xDD62ED3E EQ PUSH2 0x445 JUMPI DUP1 PUSH4 0xE7F1BFCB EQ PUSH2 0x458 JUMPI DUP1 PUSH4 0xF2FDE38B EQ PUSH2 0x465 JUMPI DUP1 PUSH4 0xF9F92BE4 EQ PUSH2 0x478 JUMPI PUSH1 0x0 DUP1 REVERT JUMPDEST DUP1 PUSH4 0xA9E75723 EQ PUSH2 0x406 JUMPI DUP1 PUSH4 0xBEB0A416 EQ PUSH2 0x40F JUMPI DUP1 PUSH4 0xC415B95C EQ PUSH2 0x417 JUMPI DUP1 PUSH4 0xD2CE89E5 EQ PUSH2 0x42A JUMPI PUSH1 0x0 DUP1 REVERT JUMPDEST DUP1 PUSH4 0x9D11AAAA GT PUSH2 0xE9 JUMPI DUP1 PUSH4 0x9D11AAAA EQ PUSH2 0x3C4 JUMPI DUP1 PUSH4 0xA42DCE80 EQ PUSH2 0x3CD JUMPI DUP1 PUSH4 0xA457C2D7 EQ PUSH2 0x3E0 JUMPI DUP1 PUSH4 0xA9059CBB EQ PUSH2 0x3F3 JUMPI PUSH1 0x0 DUP1 REVERT JUMPDEST DUP1 PUSH4 0x883FF459 EQ PUSH2 0x36C JUMPI DUP1 PUSH4 0x8BF55409 EQ PUSH2 0x37F JUMPI DUP1 PUSH4 0x8DA5CB5B EQ PUSH2 0x392 JUMPI DUP1 PUSH4 0x95D89B41 EQ PUSH2 0x3BC JUMPI PUSH1 0x0 DUP1 REVERT JUMPDEST DUP1 PUSH4 0x3D72EAF2 GT PUSH2 0x19D JUMPI DUP1 PUSH4 0x5C975ABB GT PUSH2 0x16C JUMPI DUP1 PUSH4 0x5C975ABB EQ PUSH2 0x315 JUMPI DUP1 PUSH4 0x70A08231 EQ PUSH2 0x320 JUMPI DUP1 PUSH4 0x715018A6 EQ PUSH2 0x349 JUMPI DUP1 PUSH4 0x79CC6790 EQ PUSH2 0x351 JUMPI DUP1 PUSH4 0x8456CB59 EQ PUSH2 0x364 JUMPI PUSH1 0x0 DUP1 REVERT JUMPDEST DUP1 PUSH4 0x3D72EAF2 EQ PUSH2 0x2DF JUMPI DUP1 PUSH4 0x3F4BA83A EQ PUSH2 0x2E7 JUMPI DUP1 PUSH4 0x40C10F19 EQ PUSH2 0x2EF JUMPI DUP1 PUSH4 0x42966C68 EQ PUSH2 0x302 JUMPI PUSH1 0x0 DUP1 REVERT JUMPDEST DUP1 PUSH4 0x23B872DD GT PUSH2 0x1D9 JUMPI DUP1 PUSH4 0x23B872DD EQ PUSH2 0x273 JUMPI DUP1 PUSH4 0x313CE567 EQ PUSH2 0x286 JUMPI DUP1 PUSH4 0x355274EA EQ PUSH2 0x2A5 JUMPI DUP1 PUSH4 0x39509351 EQ PUSH2 0x2CC JUMPI PUSH1 0x0 DUP1 REVERT JUMPDEST DUP1 PUSH4 0x6FDDE03 EQ PUSH2 0x20B JUMPI DUP1 PUSH4 0x95EA7B3 EQ PUSH2 0x229 JUMPI DUP1 PUSH4 0x153B0D1E EQ PUSH2 0x24C JUMPI DUP1 PUSH4 0x18160DDD EQ PUSH2 0x261 JUMPI JUMPDEST PUSH1 0x0 DUP1 REVERT JUMPDEST PUSH2 0x213 PUSH2 0x49B JUMP JUMPDEST PUSH1 0x40 MLOAD PUSH2 0x220 SWAP2 SWAP1 PUSH2 0x140F JUMP JUMPDEST PUSH1 0x40 MLOAD DUP1 SWAP2 SUB SWAP1 RETURN JUMPDEST PUSH2 0x23C PUSH2 0x237 CALLDATASIZE PUSH1 0x4 PUSH2 0x143E JUMP JUMPDEST PUSH2 0x52D JUMP JUMPDEST PUSH1 0x40 MLOAD SWAP1 ISZERO ISZERO DUP2 MSTORE PUSH1 0x20 ADD PUSH2 0x220 JUMP JUMPDEST PUSH2 0x25F PUSH2 0x25A CALLDATASIZE PUSH1 0x4 PUSH2 0x1478 JUMP JUMPDEST PUSH2 0x547 JUMP JUMPDEST STOP JUMPDEST PUSH1 0x2 SLOAD JUMPDEST PUSH1 0x40 MLOAD SWAP1 DUP2 MSTORE PUSH1 0x20 ADD PUSH2 0x220 JUMP JUMPDEST PUSH2 0x23C PUSH2 0x281 CALLDATASIZE PUSH1 0x4 PUSH2 0x14AB JUMP JUMPDEST PUSH2 0x5AE JUMP JUMPDEST PUSH1 0x5 SLOAD PUSH1 0x1 PUSH1 0xA8 SHL SWAP1 DIV PUSH1 0xFF AND PUSH1 0x40 MLOAD PUSH1 0xFF SWAP1 SWAP2 AND DUP2 MSTORE PUSH1 0x20 ADD PUSH2 0x220 JUMP JUMPDEST PUSH2 0x265 PUSH32 0x0 DUP2 JUMP JUMPDEST PUSH2 0x23C PUSH2 0x2DA CALLDATASIZE PUSH1 0x4 PUSH2 0x143E JUMP JUMPDEST PUSH2 0x5D2 JUMP JUMPDEST PUSH2 0x213 PUSH2 0x5F4 JUMP JUMPDEST PUSH2 0x25F PUSH2 0x682 JUMP JUMPDEST PUSH2 0x25F PUSH2 0x2FD CALLDATASIZE PUSH1 0x4 PUSH2 0x143E JUMP JUMPDEST PUSH2 0x694 JUMP JUMPDEST PUSH2 0x25F PUSH2 0x310 CALLDATASIZE PUSH1 0x4 PUSH2 0x14E7 JUMP JUMPDEST PUSH2 0x732 JUMP JUMPDEST PUSH1 0x5 SLOAD PUSH1 0xFF AND PUSH2 0x23C JUMP JUMPDEST PUSH2 0x265 PUSH2 0x32E CALLDATASIZE PUSH1 0x4 PUSH2 0x1500 JUMP JUMPDEST PUSH1 0x1 PUSH1 0x1 PUSH1 0xA0 SHL SUB AND PUSH1 0x0 SWAP1 DUP2 MSTORE PUSH1 0x20 DUP2 SWAP1 MSTORE PUSH1 0x40 SWAP1 KECCAK256 SLOAD SWAP1 JUMP JUMPDEST PUSH2 0x25F PUSH2 0x73F JUMP JUMPDEST PUSH2 0x25F PUSH2 0x35F CALLDATASIZE PUSH1 0x4 PUSH2 0x143E JUMP JUMPDEST PUSH2 0x751 JUMP JUMPDEST PUSH2 0x25F PUSH2 0x766 JUMP JUMPDEST PUSH2 0x25F PUSH2 0x37A CALLDATASIZE PUSH1 0x4 PUSH2 0x151B JUMP JUMPDEST PUSH2 0x776 JUMP JUMPDEST PUSH2 0x25F PUSH2 0x38D CALLDATASIZE PUSH1 0x4 PUSH2 0x14E7 JUMP JUMPDEST PUSH2 0x833 JUMP JUMPDEST PUSH1 0x5 SLOAD PUSH2 0x100 SWAP1 DIV PUSH1 0x1 PUSH1 0x1 PUSH1 0xA0 SHL SUB AND JUMPDEST PUSH1 0x40 MLOAD PUSH1 0x1 PUSH1 0x1 PUSH1 0xA0 SHL SUB SWAP1 SWAP2 AND DUP2 MSTORE PUSH1 0x20 ADD PUSH2 0x220 JUMP JUMPDEST PUSH2 0x213 PUSH2 0x876 JUMP JUMPDEST PUSH2 0x265 PUSH1 0x9 SLOAD DUP2 JUMP JUMPDEST PUSH2 0x25F PUSH2 0x3DB CALLDATASIZE PUSH1 0x4 PUSH2 0x1500 JUMP JUMPDEST PUSH2 0x885 JUMP JUMPDEST PUSH2 0x23C PUSH2 0x3EE CALLDATASIZE PUSH1 0x4 PUSH2 0x143E JUMP JUMPDEST PUSH2 0x92D JUMP JUMPDEST PUSH2 0x23C PUSH2 0x401 CALLDATASIZE PUSH1 0x4 PUSH2 0x143E JUMP JUMPDEST PUSH2 0x9A8 JUMP JUMPDEST PUSH2 0x265 PUSH1 0x7 SLOAD DUP2 JUMP JUMPDEST PUSH2 0x213 PUSH2 0x9B6 JUMP JUMPDEST PUSH1 0xA SLOAD PUSH2 0x3A4 SWAP1 PUSH1 0x1 PUSH1 0x1 PUSH1 0xA0 SHL SUB AND DUP2 JUMP JUMPDEST PUSH2 0x213 PUSH2 0x9C3 JUMP JUMPDEST PUSH2 0x25F PUSH2 0x440 CALLDATASIZE PUSH1 0x4 PUSH2 0x15DA JUMP JUMPDEST PUSH2 0x9D0 JUMP JUMPDEST PUSH2 0x265 PUSH2 0x453 CALLDATASIZE PUSH1 0x4 PUSH2 0x1662 JUMP JUMPDEST PUSH2 0xA3F JUMP JUMPDEST PUSH1 0x8 SLOAD PUSH2 0x23C SWAP1 PUSH1 0xFF AND DUP2 JUMP JUMPDEST PUSH2 0x25F PUSH2 0x473 CALLDATASIZE PUSH1 0x4 PUSH2 0x1500 JUMP JUMPDEST PUSH2 0xA6A JUMP JUMPDEST PUSH2 0x23C PUSH2 0x486 CALLDATASIZE PUSH1 0x4 PUSH2 0x1500 JUMP JUMPDEST PUSH1 0x6 PUSH1 0x20 MSTORE PUSH1 0x0 SWAP1 DUP2 MSTORE PUSH1 0x40 SWAP1 KECCAK256 SLOAD PUSH1 0xFF AND DUP2 JUMP JUMPDEST PUSH1 0x60 PUSH1 0x3 DUP1 SLOAD PUSH2 0x4AA SWAP1 PUSH2 0x168C JUMP JUMPDEST DUP1 PUSH1 0x1F ADD PUSH1 0x20 DUP1 SWAP2 DIV MUL PUSH1 0x20 ADD PUSH1 0x40 MLOAD SWAP1 DUP2 ADD PUSH1 0x40 MSTORE DUP1 SWAP3 SWAP2 SWAP1 DUP2 DUP2 MSTORE PUSH1 0x20 ADD DUP3 DUP1 SLOAD PUSH2 0x4D6 SWAP1 PUSH2 0x168C JUMP JUMPDEST DUP1 ISZERO PUSH2 0x523 JUMPI DUP1 PUSH1 0x1F LT PUSH2 0x4F8 JUMPI PUSH2 0x100 DUP1 DUP4 SLOAD DIV MUL DUP4 MSTORE SWAP2 PUSH1 0x20 ADD SWAP2 PUSH2 0x523 JUMP JUMPDEST DUP3 ADD SWAP2 SWAP1 PUSH1 0x0 MSTORE PUSH1 0x20 PUSH1 0x0 KECCAK256 SWAP1 JUMPDEST DUP2 SLOAD DUP2 MSTORE SWAP1 PUSH1 0x1 ADD SWAP1 PUSH1 0x20 ADD DUP1 DUP4 GT PUSH2 0x506 JUMPI DUP3 SWAP1 SUB PUSH1 0x1F AND DUP3 ADD SWAP2 JUMPDEST POP POP POP POP POP SWAP1 POP SWAP1 JUMP JUMPDEST PUSH1 0x0 CALLER PUSH2 0x53B DUP2 DUP6 DUP6 PUSH2 0xAE0 JUMP JUMPDEST PUSH1 0x1 SWAP2 POP POP JUMPDEST SWAP3 SWAP2 POP POP JUMP JUMPDEST PUSH2 0x54F PUSH2 0xC04 JUMP JUMPDEST PUSH1 0x1 PUSH1 0x1 PUSH1 0xA0 SHL SUB DUP3 AND PUSH1 0x0 DUP2 DUP2 MSTORE PUSH1 0x6 PUSH1 0x20 SWAP1 DUP2 MSTORE PUSH1 0x40 SWAP2 DUP3 SWAP1 KECCAK256 DUP1 SLOAD PUSH1 0xFF NOT AND DUP6 ISZERO ISZERO SWAP1 DUP2 OR SWAP1 SWAP2 SSTORE SWAP2 MLOAD SWAP2 DUP3 MSTORE PUSH32 0xCF3473B85DF1594D47B6958F29A32BEA0ABFF9DD68296F7BF33443646793CFD8 SWAP2 ADD PUSH1 0x40 MLOAD DUP1 SWAP2 SUB SWAP1 LOG2 POP POP JUMP JUMPDEST PUSH1 0x0 CALLER PUSH2 0x5BC DUP6 DUP3 DUP6 PUSH2 0xC64 JUMP JUMPDEST PUSH2 0x5C7 DUP6 DUP6 DUP6 PUSH2 0xCDE JUMP JUMPDEST POP PUSH1 0x1 SWAP5 SWAP4 POP POP POP POP JUMP JUMPDEST PUSH1 0x0 CALLER PUSH2 0x53B DUP2 DUP6 DUP6 PUSH2 0x5E5 DUP4 DUP4 PUSH2 0xA3F JUMP JUMPDEST PUSH2 0x5EF SWAP2 SWAP1 PUSH2 0x16DC JUMP JUMPDEST PUSH2 0xAE0 JUMP JUMPDEST PUSH1 0xD DUP1 SLOAD PUSH2 0x601 SWAP1 PUSH2 0x168C JUMP JUMPDEST DUP1 PUSH1 0x1F ADD PUSH1 0x20 DUP1 SWAP2 DIV MUL PUSH1 0x20 ADD PUSH1 0x40 MLOAD SWAP1 DUP2 ADD PUSH1 0x40 MSTORE DUP1 SWAP3 SWAP2 SWAP1 DUP2 DUP2 MSTORE PUSH1 0x20 ADD DUP3 DUP1 SLOAD PUSH2 0x62D SWAP1 PUSH2 0x168C JUMP JUMPDEST DUP1 ISZERO PUSH2 0x67A JUMPI DUP1 PUSH1 0x1F LT PUSH2 0x64F JUMPI PUSH2 0x100 DUP1 DUP4 SLOAD DIV MUL DUP4 MSTORE SWAP2 PUSH1 0x20 ADD SWAP2 PUSH2 0x67A JUMP JUMPDEST DUP3 ADD SWAP2 SWAP1 PUSH1 0x0 MSTORE PUSH1 0x20 PUSH1 0x0 KECCAK256 SWAP1 JUMPDEST DUP2 SLOAD DUP2 MSTORE SWAP1 PUSH1 0x1 ADD SWAP1 PUSH1 0x20 ADD DUP1 DUP4 GT PUSH2 0x65D JUMPI DUP3 SWAP1 SUB PUSH1 0x1F AND DUP3 ADD SWAP2 JUMPDEST POP POP POP POP POP DUP2 JUMP JUMPDEST PUSH2 0x68A PUSH2 0xC04 JUMP JUMPDEST PUSH2 0x692 PUSH2 0xE6A JUMP JUMPDEST JUMP JUMPDEST PUSH2 0x69C PUSH2 0xC04 JUMP JUMPDEST PUSH32 0x0 DUP2 PUSH2 0x6C7 PUSH1 0x2 SLOAD SWAP1 JUMP JUMPDEST PUSH2 0x6D1 SWAP2 SWAP1 PUSH2 0x16DC JUMP JUMPDEST GT ISZERO PUSH2 0x724 JUMPI PUSH1 0x40 MLOAD PUSH3 0x461BCD PUSH1 0xE5 SHL DUP2 MSTORE PUSH1 0x20 PUSH1 0x4 DUP3 ADD MSTORE PUSH1 0x19 PUSH1 0x24 DUP3 ADD MSTORE PUSH32 0x456475426F7845524332303A2063617020657863656564656400000000000000 PUSH1 0x44 DUP3 ADD MSTORE PUSH1 0x64 ADD JUMPDEST PUSH1 0x40 MLOAD DUP1 SWAP2 SUB SWAP1 REVERT JUMPDEST PUSH2 0x72E DUP3 DUP3 PUSH2 0xEBC JUMP JUMPDEST POP POP JUMP JUMPDEST PUSH2 0x73C CALLER DUP3 PUSH2 0xF87 JUMP JUMPDEST POP JUMP JUMPDEST PUSH2 0x747 PUSH2 0xC04 JUMP JUMPDEST PUSH2 0x692 PUSH1 0x0 PUSH2 0x10C5 JUMP JUMPDEST PUSH2 0x75C DUP3 CALLER DUP4 PUSH2 0xC64 JUMP JUMPDEST PUSH2 0x72E DUP3 DUP3 PUSH2 0xF87 JUMP JUMPDEST PUSH2 0x76E PUSH2 0xC04 JUMP JUMPDEST PUSH2 0x692 PUSH2 0x111F JUMP JUMPDEST PUSH2 0x77E PUSH2 0xC04 JUMP JUMPDEST PUSH1 0x64 DUP2 GT ISZERO PUSH2 0x7E0 JUMPI PUSH1 0x40 MLOAD PUSH3 0x461BCD PUSH1 0xE5 SHL DUP2 MSTORE PUSH1 0x20 PUSH1 0x4 DUP3 ADD MSTORE PUSH1 0x28 PUSH1 0x24 DUP3 ADD MSTORE PUSH32 0x4665652070657263656E74616765206D757374206265206265747765656E2030 PUSH1 0x44 DUP3 ADD MSTORE PUSH8 0x20616E642031303 PUSH1 0xC4 SHL PUSH1 0x64 DUP3 ADD MSTORE PUSH1 0x84 ADD PUSH2 0x71B JUMP JUMPDEST PUSH1 0x8 DUP1 SLOAD PUSH1 0xFF NOT AND DUP4 ISZERO ISZERO SWAP1 DUP2 OR SWAP1 SWAP2 SSTORE PUSH1 0x9 DUP3 SWAP1 SSTORE PUSH1 0x40 DUP1 MLOAD SWAP2 DUP3 MSTORE PUSH1 0x20 DUP3 ADD DUP4 SWAP1 MSTORE PUSH32 0x5169651E0F3548DCE5A282EF160DA80C54150C9F2600B354C68DEBA0167B2D3F SWAP2 ADD PUSH1 0x40 MLOAD DUP1 SWAP2 SUB SWAP1 LOG1 POP POP JUMP JUMPDEST PUSH2 0x83B PUSH2 0xC04 JUMP JUMPDEST PUSH1 0x7 DUP2 SWAP1 SSTORE PUSH1 0x40 MLOAD DUP2 DUP2 MSTORE PUSH32 0xB81A465C2B79D7B689B78D9AAF5A787DD386B73A952BE0569F2FBC637AABB897 SWAP1 PUSH1 0x20 ADD PUSH1 0x40 MLOAD DUP1 SWAP2 SUB SWAP1 LOG1 POP JUMP JUMPDEST PUSH1 0x60 PUSH1 0x4 DUP1 SLOAD PUSH2 0x4AA SWAP1 PUSH2 0x168C JUMP JUMPDEST PUSH2 0x88D PUSH2 0xC04 JUMP JUMPDEST PUSH1 0x1 PUSH1 0x1 PUSH1 0xA0 SHL SUB DUP2 AND PUSH2 0x8E3 JUMPI PUSH1 0x40 MLOAD PUSH3 0x461BCD PUSH1 0xE5 SHL DUP2 MSTORE PUSH1 0x20 PUSH1 0x4 DUP3 ADD MSTORE PUSH1 0x1D PUSH1 0x24 DUP3 ADD MSTORE PUSH32 0x496E76616C69642066656520636F6C6C6563746F722061646472657373000000 PUSH1 0x44 DUP3 ADD MSTORE PUSH1 0x64 ADD PUSH2 0x71B JUMP JUMPDEST PUSH1 0xA DUP1 SLOAD PUSH1 0x1 PUSH1 0x1 PUSH1 0xA0 SHL SUB NOT AND PUSH1 0x1 PUSH1 0x1 PUSH1 0xA0 SHL SUB DUP4 AND SWAP1 DUP2 OR SWAP1 SWAP2 SSTORE PUSH1 0x40 MLOAD PUSH32 0xE5693914D19C789BDEE50A362998C0BC8D035A835F9871DA5D51152F0582C34F SWAP1 PUSH1 0x0 SWAP1 LOG2 POP JUMP JUMPDEST PUSH1 0x0 CALLER DUP2 PUSH2 0x93B DUP3 DUP7 PUSH2 0xA3F JUMP JUMPDEST SWAP1 POP DUP4 DUP2 LT ISZERO PUSH2 0x99B JUMPI PUSH1 0x40 MLOAD PUSH3 0x461BCD PUSH1 0xE5 SHL DUP2 MSTORE PUSH1 0x20 PUSH1 0x4 DUP3 ADD MSTORE PUSH1 0x25 PUSH1 0x24 DUP3 ADD MSTORE PUSH32 0x45524332303A2064656372656173656420616C6C6F77616E63652062656C6F77 PUSH1 0x44 DUP3 ADD MSTORE PUSH5 0x207A65726F PUSH1 0xD8 SHL PUSH1 0x64 DUP3 ADD MSTORE PUSH1 0x84 ADD PUSH2 0x71B JUMP JUMPDEST PUSH2 0x5C7 DUP3 DUP7 DUP7 DUP5 SUB PUSH2 0xAE0 JUMP JUMPDEST PUSH1 0x0 CALLER PUSH2 0x53B DUP2 DUP6 DUP6 PUSH2 0xCDE JUMP JUMPDEST PUSH1 0xC DUP1 SLOAD PUSH2 0x601 SWAP1 PUSH2 0x168C JUMP JUMPDEST PUSH1 0xB DUP1 SLOAD PUSH2 0x601 SWAP1 PUSH2 0x168C JUMP JUMPDEST PUSH2 0x9D8 PUSH2 0xC04 JUMP JUMPDEST PUSH1 0xB PUSH2 0x9E4 DUP5 DUP3 PUSH2 0x173D JUMP JUMPDEST POP PUSH1 0xC PUSH2 0x9F1 DUP4 DUP3 PUSH2 0x173D JUMP JUMPDEST POP PUSH1 0xD PUSH2 0x9FE DUP3 DUP3 PUSH2 0x173D JUMP JUMPDEST POP PUSH32 0x61B45807B5528344B8B2C26433A3AABEAD6C9DC6239E146E7BA7C812FDED07D0 DUP4 DUP4 DUP4 PUSH1 0x40 MLOAD PUSH2 0xA32 SWAP4 SWAP3 SWAP2 SWAP1 PUSH2 0x17FD JUMP JUMPDEST PUSH1 0x40 MLOAD DUP1 SWAP2 SUB SWAP1 LOG1 POP POP POP JUMP JUMPDEST PUSH1 0x1 PUSH1 0x1 PUSH1 0xA0 SHL SUB SWAP2 DUP3 AND PUSH1 0x0 SWAP1 DUP2 MSTORE PUSH1 0x1 PUSH1 0x20 SWAP1 DUP2 MSTORE PUSH1 0x40 DUP1 DUP4 KECCAK256 SWAP4 SWAP1 SWAP5 AND DUP3 MSTORE SWAP2 SWAP1 SWAP2 MSTORE KECCAK256 SLOAD SWAP1 JUMP JUMPDEST PUSH2 0xA72 PUSH2 0xC04 JUMP JUMPDEST PUSH1 0x1 PUSH1 0x1 PUSH1 0xA0 SHL SUB DUP2 AND PUSH2 0xAD7 JUMPI PUSH1 0x40 MLOAD PUSH3 0x461BCD PUSH1 0xE5 SHL DUP2 MSTORE PUSH1 0x20 PUSH1 0x4 DUP3 ADD MSTORE PUSH1 0x26 PUSH1 0x24 DUP3 ADD MSTORE PUSH32 0x4F776E61626C653A206E6577206F776E657220697320746865207A65726F2061 PUSH1 0x44 DUP3 ADD MSTORE PUSH6 0x646472657373 PUSH1 0xD0 SHL PUSH1 0x64 DUP3 ADD MSTORE PUSH1 0x84 ADD PUSH2 0x71B JUMP JUMPDEST PUSH2 0x73C DUP2 PUSH2 0x10C5 JUMP JUMPDEST PUSH1 0x1 PUSH1 0x1 PUSH1 0xA0 SHL SUB DUP4 AND PUSH2 0xB42 JUMPI PUSH1 0x40 MLOAD PUSH3 0x461BCD PUSH1 0xE5 SHL DUP2 MSTORE PUSH1 0x20 PUSH1 0x4 DUP3 ADD MSTORE PUSH1 0x24 DUP1 DUP3 ADD MSTORE PUSH32 0x45524332303A20617070726F76652066726F6D20746865207A65726F20616464 PUSH1 0x44 DUP3 ADD MSTORE PUSH4 0x72657373 PUSH1 0xE0 SHL PUSH1 0x64 DUP3 ADD MSTORE PUSH1 0x84 ADD PUSH2 0x71B JUMP JUMPDEST PUSH1 0x1 PUSH1 0x1 PUSH1 0xA0 SHL SUB DUP3 AND PUSH2 0xBA3 JUMPI PUSH1 0x40 MLOAD PUSH3 0x461BCD PUSH1 0xE5 SHL DUP2 MSTORE PUSH1 0x20 PUSH1 0x4 DUP3 ADD MSTORE PUSH1 0x22 PUSH1 0x24 DUP3 ADD MSTORE PUSH32 0x45524332303A20617070726F766520746F20746865207A65726F206164647265 PUSH1 0x44 DUP3 ADD MSTORE PUSH2 0x7373 PUSH1 0xF0 SHL PUSH1 0x64 DUP3 ADD MSTORE PUSH1 0x84 ADD PUSH2 0x71B JUMP JUMPDEST PUSH1 0x1 PUSH1 0x1 PUSH1 0xA0 SHL SUB DUP4 DUP2 AND PUSH1 0x0 DUP2 DUP2 MSTORE PUSH1 0x1 PUSH1 0x20 SWAP1 DUP2 MSTORE PUSH1 0x40 DUP1 DUP4 KECCAK256 SWAP5 DUP8 AND DUP1 DUP5 MSTORE SWAP5 DUP3 MSTORE SWAP2 DUP3 SWAP1 KECCAK256 DUP6 SWAP1 SSTORE SWAP1 MLOAD DUP5 DUP2 MSTORE PUSH32 0x8C5BE1E5EBEC7D5BD14F71427D1E84F3DD0314C0F7B2291E5B200AC8C7C3B925 SWAP2 ADD PUSH1 0x40 MLOAD DUP1 SWAP2 SUB SWAP1 LOG3 POP POP POP JUMP JUMPDEST PUSH1 0x5 SLOAD PUSH1 0x1 PUSH1 0x1 PUSH1 0xA0 SHL SUB PUSH2 0x100 SWAP1 SWAP2 DIV AND CALLER EQ PUSH2 0x692 JUMPI PUSH1 0x40 MLOAD PUSH3 0x461BCD PUSH1 0xE5 SHL DUP2 MSTORE PUSH1 0x20 PUSH1 0x4 DUP3 ADD DUP2 SWAP1 MSTORE PUSH1 0x24 DUP3 ADD MSTORE PUSH32 0x4F776E61626C653A2063616C6C6572206973206E6F7420746865206F776E6572 PUSH1 0x44 DUP3 ADD MSTORE PUSH1 0x64 ADD PUSH2 0x71B JUMP JUMPDEST PUSH1 0x0 PUSH2 0xC70 DUP5 DUP5 PUSH2 0xA3F JUMP JUMPDEST SWAP1 POP PUSH1 0x0 NOT DUP2 EQ PUSH2 0xCD8 JUMPI DUP2 DUP2 LT ISZERO PUSH2 0xCCB JUMPI PUSH1 0x40 MLOAD PUSH3 0x461BCD PUSH1 0xE5 SHL DUP2 MSTORE PUSH1 0x20 PUSH1 0x4 DUP3 ADD MSTORE PUSH1 0x1D PUSH1 0x24 DUP3 ADD MSTORE PUSH32 0x45524332303A20696E73756666696369656E7420616C6C6F77616E6365000000 PUSH1 0x44 DUP3 ADD MSTORE PUSH1 0x64 ADD PUSH2 0x71B JUMP JUMPDEST PUSH2 0xCD8 DUP5 DUP5 DUP5 DUP5 SUB PUSH2 0xAE0 JUMP JUMPDEST POP POP POP POP JUMP JUMPDEST PUSH1 0x1 PUSH1 0x1 PUSH1 0xA0 SHL SUB DUP4 AND PUSH1 0x0 SWAP1 DUP2 MSTORE PUSH1 0x6 PUSH1 0x20 MSTORE PUSH1 0x40 SWAP1 KECCAK256 SLOAD PUSH1 0xFF AND ISZERO DUP1 ISZERO PUSH2 0xD20 JUMPI POP PUSH1 0x1 PUSH1 0x1 PUSH1 0xA0 SHL SUB DUP3 AND PUSH1 0x0 SWAP1 DUP2 MSTORE PUSH1 0x6 PUSH1 0x20 MSTORE PUSH1 0x40 SWAP1 KECCAK256 SLOAD PUSH1 0xFF AND ISZERO JUMPDEST PUSH2 0xD62 JUMPI PUSH1 0x40 MLOAD PUSH3 0x461BCD PUSH1 0xE5 SHL DUP2 MSTORE PUSH1 0x20 PUSH1 0x4 DUP3 ADD MSTORE PUSH1 0x13 PUSH1 0x24 DUP3 ADD MSTORE PUSH19 0x426C61636B6C69737465642061646472657373 PUSH1 0x68 SHL PUSH1 0x44 DUP3 ADD MSTORE PUSH1 0x64 ADD PUSH2 0x71B JUMP JUMPDEST PUSH1 0x7 SLOAD DUP2 GT ISZERO PUSH2 0xDB4 JUMPI PUSH1 0x40 MLOAD PUSH3 0x461BCD PUSH1 0xE5 SHL DUP2 MSTORE PUSH1 0x20 PUSH1 0x4 DUP3 ADD MSTORE PUSH1 0x1F PUSH1 0x24 DUP3 ADD MSTORE PUSH32 0x5472616E7366657220616D6F756E742065786365656473206D6178696D756D00 PUSH1 0x44 DUP3 ADD MSTORE PUSH1 0x64 ADD PUSH2 0x71B JUMP JUMPDEST PUSH1 0x8 SLOAD PUSH1 0xFF AND DUP1 ISZERO PUSH2 0xDD9 JUMPI POP PUSH1 0x5 SLOAD PUSH1 0x1 PUSH1 0x1 PUSH1 0xA0 SHL SUB DUP5 DUP2 AND PUSH2 0x100 SWAP1 SWAP3 DIV AND EQ ISZERO JUMPDEST DUP1 ISZERO PUSH2 0xDF8 JUMPI POP PUSH1 0x5 SLOAD PUSH1 0x1 PUSH1 0x1 PUSH1 0xA0 SHL SUB DUP4 DUP2 AND PUSH2 0x100 SWAP1 SWAP3 DIV AND EQ ISZERO JUMPDEST ISZERO PUSH2 0xE5A JUMPI PUSH1 0x0 PUSH2 0xE1F PUSH1 0x64 PUSH2 0xE19 PUSH1 0x9 SLOAD DUP6 PUSH2 0x115C SWAP1 SWAP2 SWAP1 PUSH4 0xFFFFFFFF AND JUMP JUMPDEST SWAP1 PUSH2 0x116F JUMP JUMPDEST SWAP1 POP PUSH1 0x0 PUSH2 0xE2D DUP4 DUP4 PUSH2 0x117B JUMP JUMPDEST PUSH1 0xA SLOAD SWAP1 SWAP2 POP PUSH2 0xE48 SWAP1 DUP7 SWAP1 PUSH1 0x1 PUSH1 0x1 PUSH1 0xA0 SHL SUB AND DUP5 PUSH2 0x1187 JUMP JUMPDEST PUSH2 0xE53 DUP6 DUP6 DUP4 PUSH2 0x1187 JUMP JUMPDEST POP POP POP POP POP JUMP JUMPDEST PUSH2 0xE65 DUP4 DUP4 DUP4 PUSH2 0x1187 JUMP JUMPDEST POP POP POP JUMP JUMPDEST PUSH2 0xE72 PUSH2 0x1336 JUMP JUMPDEST PUSH1 0x5 DUP1 SLOAD PUSH1 0xFF NOT AND SWAP1 SSTORE PUSH32 0x5DB9EE0A495BF2E6FF9C91A7834C1BA4FDD244A5E8AA4E537BD38AEAE4B073AA CALLER JUMPDEST PUSH1 0x40 MLOAD PUSH1 0x1 PUSH1 0x1 PUSH1 0xA0 SHL SUB SWAP1 SWAP2 AND DUP2 MSTORE PUSH1 0x20 ADD PUSH1 0x40 MLOAD DUP1 SWAP2 SUB SWAP1 LOG1 JUMP JUMPDEST PUSH1 0x1 PUSH1 0x1 PUSH1 0xA0 SHL SUB DUP3 AND PUSH2 0xF12 JUMPI PUSH1 0x40 MLOAD PUSH3 0x461BCD PUSH1 0xE5 SHL DUP2 MSTORE PUSH1 0x20 PUSH1 0x4 DUP3 ADD MSTORE PUSH1 0x1F PUSH1 0x24 DUP3 ADD MSTORE PUSH32 0x45524332303A206D696E7420746F20746865207A65726F206164647265737300 PUSH1 0x44 DUP3 ADD MSTORE PUSH1 0x64 ADD PUSH2 0x71B JUMP JUMPDEST PUSH2 0xF1E PUSH1 0x0 DUP4 DUP4 PUSH2 0x137F JUMP JUMPDEST DUP1 PUSH1 0x2 PUSH1 0x0 DUP3 DUP3 SLOAD PUSH2 0xF30 SWAP2 SWAP1 PUSH2 0x16DC JUMP JUMPDEST SWAP1 SWAP2 SSTORE POP POP PUSH1 0x1 PUSH1 0x1 PUSH1 0xA0 SHL SUB DUP3 AND PUSH1 0x0 DUP2 DUP2 MSTORE PUSH1 0x20 DUP2 DUP2 MSTORE PUSH1 0x40 DUP1 DUP4 KECCAK256 DUP1 SLOAD DUP7 ADD SWAP1 SSTORE MLOAD DUP5 DUP2 MSTORE PUSH32 0xDDF252AD1BE2C89B69C2B068FC378DAA952BA7F163C4A11628F55A4DF523B3EF SWAP2 ADD PUSH1 0x40 MLOAD DUP1 SWAP2 SUB SWAP1 LOG3 POP POP JUMP JUMPDEST PUSH1 0x1 PUSH1 0x1 PUSH1 0xA0 SHL SUB DUP3 AND PUSH2 0xFE7 JUMPI PUSH1 0x40 MLOAD PUSH3 0x461BCD PUSH1 0xE5 SHL DUP2 MSTORE PUSH1 0x20 PUSH1 0x4 DUP3 ADD MSTORE PUSH1 0x21 PUSH1 0x24 DUP3 ADD MSTORE PUSH32 0x45524332303A206275726E2066726F6D20746865207A65726F20616464726573 PUSH1 0x44 DUP3 ADD MSTORE PUSH1 0x73 PUSH1 0xF8 SHL PUSH1 0x64 DUP3 ADD MSTORE PUSH1 0x84 ADD PUSH2 0x71B JUMP JUMPDEST PUSH2 0xFF3 DUP3 PUSH1 0x0 DUP4 PUSH2 0x137F JUMP JUMPDEST PUSH1 0x1 PUSH1 0x1 PUSH1 0xA0 SHL SUB DUP3 AND PUSH1 0x0 SWAP1 DUP2 MSTORE PUSH1 0x20 DUP2 SWAP1 MSTORE PUSH1 0x40 SWAP1 KECCAK256 SLOAD DUP2 DUP2 LT ISZERO PUSH2 0x1067 JUMPI PUSH1 0x40 MLOAD PUSH3 0x461BCD PUSH1 0xE5 SHL DUP2 MSTORE PUSH1 0x20 PUSH1 0x4 DUP3 ADD MSTORE PUSH1 0x22 PUSH1 0x24 DUP3 ADD MSTORE PUSH32 0x45524332303A206275726E20616D6F756E7420657863656564732062616C616E PUSH1 0x44 DUP3 ADD MSTORE PUSH2 0x6365 PUSH1 0xF0 SHL PUSH1 0x64 DUP3 ADD MSTORE PUSH1 0x84 ADD PUSH2 0x71B JUMP JUMPDEST PUSH1 0x1 PUSH1 0x1 PUSH1 0xA0 SHL SUB DUP4 AND PUSH1 0x0 DUP2 DUP2 MSTORE PUSH1 0x20 DUP2 DUP2 MSTORE PUSH1 0x40 DUP1 DUP4 KECCAK256 DUP7 DUP7 SUB SWAP1 SSTORE PUSH1 0x2 DUP1 SLOAD DUP8 SWAP1 SUB SWAP1 SSTORE MLOAD DUP6 DUP2 MSTORE SWAP2 SWAP3 SWAP2 PUSH32 0xDDF252AD1BE2C89B69C2B068FC378DAA952BA7F163C4A11628F55A4DF523B3EF SWAP2 ADD PUSH1 0x40 MLOAD DUP1 SWAP2 SUB SWAP1 LOG3 POP POP POP JUMP JUMPDEST PUSH1 0x5 DUP1 SLOAD PUSH1 0x1 PUSH1 0x1 PUSH1 0xA0 SHL SUB DUP4 DUP2 AND PUSH2 0x100 DUP2 DUP2 MUL PUSH2 0x100 PUSH1 0x1 PUSH1 0xA8 SHL SUB NOT DUP6 AND OR SWAP1 SWAP5 SSTORE PUSH1 0x40 MLOAD SWAP4 SWAP1 SWAP3 DIV AND SWAP2 DUP3 SWAP1 PUSH32 0x8BE0079C531659141344CD1FD0A4F28419497F9722A3DAAFE3B4186F6B6457E0 SWAP1 PUSH1 0x0 SWAP1 LOG3 POP POP JUMP JUMPDEST PUSH2 0x1127 PUSH2 0x1383 JUMP JUMPDEST PUSH1 0x5 DUP1 SLOAD PUSH1 0xFF NOT AND PUSH1 0x1 OR SWAP1 SSTORE PUSH32 0x62E78CEA01BEE320CD4E420270B5EA74000D11B0C9F74754EBDBFC544B05A258 PUSH2 0xE9F CALLER SWAP1 JUMP JUMPDEST PUSH1 0x0 PUSH2 0x1168 DUP3 DUP5 PUSH2 0x1840 JUMP JUMPDEST SWAP4 SWAP3 POP POP POP JUMP JUMPDEST PUSH1 0x0 PUSH2 0x1168 DUP3 DUP5 PUSH2 0x1857 JUMP JUMPDEST PUSH1 0x0 PUSH2 0x1168 DUP3 DUP5 PUSH2 0x1879 JUMP JUMPDEST PUSH1 0x1 PUSH1 0x1 PUSH1 0xA0 SHL SUB DUP4 AND PUSH2 0x11EB JUMPI PUSH1 0x40 MLOAD PUSH3 0x461BCD PUSH1 0xE5 SHL DUP2 MSTORE PUSH1 0x20 PUSH1 0x4 DUP3 ADD MSTORE PUSH1 0x25 PUSH1 0x24 DUP3 ADD MSTORE PUSH32 0x45524332303A207472616E736665722066726F6D20746865207A65726F206164 PUSH1 0x44 DUP3 ADD MSTORE PUSH5 0x6472657373 PUSH1 0xD8 SHL PUSH1 0x64 DUP3 ADD MSTORE PUSH1 0x84 ADD PUSH2 0x71B JUMP JUMPDEST PUSH1 0x1 PUSH1 0x1 PUSH1 0xA0 SHL SUB DUP3 AND PUSH2 0x124D JUMPI PUSH1 0x40 MLOAD PUSH3 0x461BCD PUSH1 0xE5 SHL DUP2 MSTORE PUSH1 0x20 PUSH1 0x4 DUP3 ADD MSTORE PUSH1 0x23 PUSH1 0x24 DUP3 ADD MSTORE PUSH32 0x45524332303A207472616E7366657220746F20746865207A65726F2061646472 PUSH1 0x44 DUP3 ADD MSTORE PUSH3 0x657373 PUSH1 0xE8 SHL PUSH1 0x64 DUP3 ADD MSTORE PUSH1 0x84 ADD PUSH2 0x71B JUMP JUMPDEST PUSH2 0x1258 DUP4 DUP4 DUP4 PUSH2 0x137F JUMP JUMPDEST PUSH1 0x1 PUSH1 0x1 PUSH1 0xA0 SHL SUB DUP4 AND PUSH1 0x0 SWAP1 DUP2 MSTORE PUSH1 0x20 DUP2 SWAP1 MSTORE PUSH1 0x40 SWAP1 KECCAK256 SLOAD DUP2 DUP2 LT ISZERO PUSH2 0x12D0 JUMPI PUSH1 0x40 MLOAD PUSH3 0x461BCD PUSH1 0xE5 SHL DUP2 MSTORE PUSH1 0x20 PUSH1 0x4 DUP3 ADD MSTORE PUSH1 0x26 PUSH1 0x24 DUP3 ADD MSTORE PUSH32 0x45524332303A207472616E7366657220616D6F756E7420657863656564732062 PUSH1 0x44 DUP3 ADD MSTORE PUSH6 0x616C616E6365 PUSH1 0xD0 SHL PUSH1 0x64 DUP3 ADD MSTORE PUSH1 0x84 ADD PUSH2 0x71B JUMP JUMPDEST PUSH1 0x1 PUSH1 0x1 PUSH1 0xA0 SHL SUB DUP5 DUP2 AND PUSH1 0x0 DUP2 DUP2 MSTORE PUSH1 0x20 DUP2 DUP2 MSTORE PUSH1 0x40 DUP1 DUP4 KECCAK256 DUP8 DUP8 SUB SWAP1 SSTORE SWAP4 DUP8 AND DUP1 DUP4 MSTORE SWAP2 DUP5 SWAP1 KECCAK256 DUP1 SLOAD DUP8 ADD SWAP1 SSTORE SWAP3 MLOAD DUP6 DUP2 MSTORE SWAP1 SWAP3 PUSH32 0xDDF252AD1BE2C89B69C2B068FC378DAA952BA7F163C4A11628F55A4DF523B3EF SWAP2 ADD PUSH1 0x40 MLOAD DUP1 SWAP2 SUB SWAP1 LOG3 PUSH2 0xCD8 JUMP JUMPDEST PUSH1 0x5 SLOAD PUSH1 0xFF AND PUSH2 0x692 JUMPI PUSH1 0x40 MLOAD PUSH3 0x461BCD PUSH1 0xE5 SHL DUP2 MSTORE PUSH1 0x20 PUSH1 0x4 DUP3 ADD MSTORE PUSH1 0x14 PUSH1 0x24 DUP3 ADD MSTORE PUSH20 0x14185D5CD8589B194E881B9BDD081C185D5CD959 PUSH1 0x62 SHL PUSH1 0x44 DUP3 ADD MSTORE PUSH1 0x64 ADD PUSH2 0x71B JUMP JUMPDEST PUSH2 0xE65 JUMPDEST PUSH1 0x5 SLOAD PUSH1 0xFF AND ISZERO PUSH2 0x692 JUMPI PUSH1 0x40 MLOAD PUSH3 0x461BCD PUSH1 0xE5 SHL DUP2 MSTORE PUSH1 0x20 PUSH1 0x4 DUP3 ADD MSTORE PUSH1 0x10 PUSH1 0x24 DUP3 ADD MSTORE PUSH16 0x14185D5CD8589B194E881C185D5CD959 PUSH1 0x82 SHL PUSH1 0x44 DUP3 ADD MSTORE PUSH1 0x64 ADD PUSH2 0x71B JUMP JUMPDEST PUSH1 0x0 DUP2 MLOAD DUP1 DUP5 MSTORE PUSH1 0x0 JUMPDEST DUP2 DUP2 LT ISZERO PUSH2 0x13EF JUMPI PUSH1 0x20 DUP2 DUP6 ADD DUP2 ADD MLOAD DUP7 DUP4 ADD DUP3 ADD MSTORE ADD PUSH2 0x13D3 JUMP JUMPDEST POP PUSH1 0x0 PUSH1 0x20 DUP3 DUP7 ADD ADD MSTORE PUSH1 0x20 PUSH1 0x1F NOT PUSH1 0x1F DUP4 ADD AND DUP6 ADD ADD SWAP2 POP POP SWAP3 SWAP2 POP POP JUMP JUMPDEST PUSH1 0x20 DUP2 MSTORE PUSH1 0x0 PUSH2 0x1168 PUSH1 0x20 DUP4 ADD DUP5 PUSH2 0x13C9 JUMP JUMPDEST DUP1 CALLDATALOAD PUSH1 0x1 PUSH1 0x1 PUSH1 0xA0 SHL SUB DUP2 AND DUP2 EQ PUSH2 0x1439 JUMPI PUSH1 0x0 DUP1 REVERT JUMPDEST SWAP2 SWAP1 POP JUMP JUMPDEST PUSH1 0x0 DUP1 PUSH1 0x40 DUP4 DUP6 SUB SLT ISZERO PUSH2 0x1451 JUMPI PUSH1 0x0 DUP1 REVERT JUMPDEST PUSH2 0x145A DUP4 PUSH2 0x1422 JUMP JUMPDEST SWAP5 PUSH1 0x20 SWAP4 SWAP1 SWAP4 ADD CALLDATALOAD SWAP4 POP POP POP JUMP JUMPDEST DUP1 CALLDATALOAD DUP1 ISZERO ISZERO DUP2 EQ PUSH2 0x1439 JUMPI PUSH1 0x0 DUP1 REVERT JUMPDEST PUSH1 0x0 DUP1 PUSH1 0x40 DUP4 DUP6 SUB SLT ISZERO PUSH2 0x148B JUMPI PUSH1 0x0 DUP1 REVERT JUMPDEST PUSH2 0x1494 DUP4 PUSH2 0x1422 JUMP JUMPDEST SWAP2 POP PUSH2 0x14A2 PUSH1 0x20 DUP5 ADD PUSH2 0x1468 JUMP JUMPDEST SWAP1 POP SWAP3 POP SWAP3 SWAP1 POP JUMP JUMPDEST PUSH1 0x0 DUP1 PUSH1 0x0 PUSH1 0x60 DUP5 DUP7 SUB SLT ISZERO PUSH2 0x14C0 JUMPI PUSH1 0x0 DUP1 REVERT JUMPDEST PUSH2 0x14C9 DUP5 PUSH2 0x1422 JUMP JUMPDEST SWAP3 POP PUSH2 0x14D7 PUSH1 0x20 DUP6 ADD PUSH2 0x1422 JUMP JUMPDEST SWAP2 POP PUSH1 0x40 DUP5 ADD CALLDATALOAD SWAP1 POP SWAP3 POP SWAP3 POP SWAP3 JUMP JUMPDEST PUSH1 0x0 PUSH1 0x20 DUP3 DUP5 SUB SLT ISZERO PUSH2 0x14F9 JUMPI PUSH1 0x0 DUP1 REVERT JUMPDEST POP CALLDATALOAD SWAP2 SWAP1 POP JUMP JUMPDEST PUSH1 0x0 PUSH1 0x20 DUP3 DUP5 SUB SLT ISZERO PUSH2 0x1512 JUMPI PUSH1 0x0 DUP1 REVERT JUMPDEST PUSH2 0x1168 DUP3 PUSH2 0x1422 JUMP JUMPDEST PUSH1 0x0 DUP1 PUSH1 0x40 DUP4 DUP6 SUB SLT ISZERO PUSH2 0x152E JUMPI PUSH1 0x0 DUP1 REVERT JUMPDEST PUSH2 0x145A DUP4 PUSH2 0x1468 JUMP JUMPDEST PUSH4 0x4E487B71 PUSH1 0xE0 SHL PUSH1 0x0 MSTORE PUSH1 0x41 PUSH1 0x4 MSTORE PUSH1 0x24 PUSH1 0x0 REVERT JUMPDEST PUSH1 0x0 DUP3 PUSH1 0x1F DUP4 ADD SLT PUSH2 0x155E JUMPI PUSH1 0x0 DUP1 REVERT JUMPDEST DUP2 CALLDATALOAD PUSH8 0xFFFFFFFFFFFFFFFF DUP1 DUP3 GT ISZERO PUSH2 0x1579 JUMPI PUSH2 0x1579 PUSH2 0x1537 JUMP JUMPDEST PUSH1 0x40 MLOAD PUSH1 0x1F DUP4 ADD PUSH1 0x1F NOT SWAP1 DUP2 AND PUSH1 0x3F ADD AND DUP2 ADD SWAP1 DUP3 DUP3 GT DUP2 DUP4 LT OR ISZERO PUSH2 0x15A1 JUMPI PUSH2 0x15A1 PUSH2 0x1537 JUMP JUMPDEST DUP2 PUSH1 0x40 MSTORE DUP4 DUP2 MSTORE DUP7 PUSH1 0x20 DUP6 DUP9 ADD ADD GT ISZERO PUSH2 0x15BA JUMPI PUSH1 0x0 DUP1 REVERT JUMPDEST DUP4 PUSH1 0x20 DUP8 ADD PUSH1 0x20 DUP4 ADD CALLDATACOPY PUSH1 0x0 PUSH1 0x20 DUP6 DUP4 ADD ADD MSTORE DUP1 SWAP5 POP POP POP POP POP SWAP3 SWAP2 POP POP JUMP JUMPDEST PUSH1 0x0 DUP1 PUSH1 0x0 PUSH1 0x60 DUP5 DUP7 SUB SLT ISZERO PUSH2 0x15EF JUMPI PUSH1 0x0 DUP1 REVERT JUMPDEST DUP4 CALLDATALOAD PUSH8 0xFFFFFFFFFFFFFFFF DUP1 DUP3 GT ISZERO PUSH2 0x1607 JUMPI PUSH1 0x0 DUP1 REVERT JUMPDEST PUSH2 0x1613 DUP8 DUP4 DUP9 ADD PUSH2 0x154D JUMP JUMPDEST SWAP5 POP PUSH1 0x20 DUP7 ADD CALLDATALOAD SWAP2 POP DUP1 DUP3 GT ISZERO PUSH2 0x1629 JUMPI PUSH1 0x0 DUP1 REVERT JUMPDEST PUSH2 0x1635 DUP8 DUP4 DUP9 ADD PUSH2 0x154D JUMP JUMPDEST SWAP4 POP PUSH1 0x40 DUP7 ADD CALLDATALOAD SWAP2 POP DUP1 DUP3 GT ISZERO PUSH2 0x164B JUMPI PUSH1 0x0 DUP1 REVERT JUMPDEST POP PUSH2 0x1658 DUP7 DUP3 DUP8 ADD PUSH2 0x154D JUMP JUMPDEST SWAP2 POP POP SWAP3 POP SWAP3 POP SWAP3 JUMP JUMPDEST PUSH1 0x0 DUP1 PUSH1 0x40 DUP4 DUP6 SUB SLT ISZERO PUSH2 0x1675 JUMPI PUSH1 0x0 DUP1 REVERT JUMPDEST PUSH2 0x167E DUP4 PUSH2 0x1422 JUMP JUMPDEST SWAP2 POP PUSH2 0x14A2 PUSH1 0x20 DUP5 ADD PUSH2 0x1422 JUMP JUMPDEST PUSH1 0x1 DUP2 DUP2 SHR SWAP1 DUP3 AND DUP1 PUSH2 0x16A0 JUMPI PUSH1 0x7F DUP3 AND SWAP2 POP JUMPDEST PUSH1 0x20 DUP3 LT DUP2 SUB PUSH2 0x16C0 JUMPI PUSH4 0x4E487B71 PUSH1 0xE0 SHL PUSH1 0x0 MSTORE PUSH1 0x22 PUSH1 0x4 MSTORE PUSH1 0x24 PUSH1 0x0 REVERT JUMPDEST POP SWAP2 SWAP1 POP JUMP JUMPDEST PUSH4 0x4E487B71 PUSH1 0xE0 SHL PUSH1 0x0 MSTORE PUSH1 0x11 PUSH1 0x4 MSTORE PUSH1 0x24 PUSH1 0x0 REVERT JUMPDEST DUP1 DUP3 ADD DUP1 DUP3 GT ISZERO PUSH2 0x541 JUMPI PUSH2 0x541 PUSH2 0x16C6 JUMP JUMPDEST PUSH1 0x1F DUP3 GT ISZERO PUSH2 0xE65 JUMPI PUSH1 0x0 DUP2 DUP2 MSTORE PUSH1 0x20 DUP2 KECCAK256 PUSH1 0x1F DUP6 ADD PUSH1 0x5 SHR DUP2 ADD PUSH1 0x20 DUP7 LT ISZERO PUSH2 0x1716 JUMPI POP DUP1 JUMPDEST PUSH1 0x1F DUP6 ADD PUSH1 0x5 SHR DUP3 ADD SWAP2 POP JUMPDEST DUP2 DUP2 LT ISZERO PUSH2 0x1735 JUMPI DUP3 DUP2 SSTORE PUSH1 0x1 ADD PUSH2 0x1722 JUMP JUMPDEST POP POP POP POP POP POP JUMP JUMPDEST DUP2 MLOAD PUSH8 0xFFFFFFFFFFFFFFFF DUP2 GT ISZERO PUSH2 0x1757 JUMPI PUSH2 0x1757 PUSH2 0x1537 JUMP JUMPDEST PUSH2 0x176B DUP2 PUSH2 0x1765 DUP5 SLOAD PUSH2 0x168C JUMP JUMPDEST DUP5 PUSH2 0x16EF JUMP JUMPDEST PUSH1 0x20 DUP1 PUSH1 0x1F DUP4 GT PUSH1 0x1 DUP2 EQ PUSH2 0x17A0 JUMPI PUSH1 0x0 DUP5 ISZERO PUSH2 0x1788 JUMPI POP DUP6 DUP4 ADD MLOAD JUMPDEST PUSH1 0x0 NOT PUSH1 0x3 DUP7 SWAP1 SHL SHR NOT AND PUSH1 0x1 DUP6 SWAP1 SHL OR DUP6 SSTORE PUSH2 0x1735 JUMP JUMPDEST PUSH1 0x0 DUP6 DUP2 MSTORE PUSH1 0x20 DUP2 KECCAK256 PUSH1 0x1F NOT DUP7 AND SWAP2 JUMPDEST DUP3 DUP2 LT ISZERO PUSH2 0x17CF JUMPI DUP9 DUP7 ADD MLOAD DUP3 SSTORE SWAP5 DUP5 ADD SWAP5 PUSH1 0x1 SWAP1 SWAP2 ADD SWAP1 DUP5 ADD PUSH2 0x17B0 JUMP JUMPDEST POP DUP6 DUP3 LT ISZERO PUSH2 0x17ED JUMPI DUP8 DUP6 ADD MLOAD PUSH1 0x0 NOT PUSH1 0x3 DUP9 SWAP1 SHL PUSH1 0xF8 AND SHR NOT AND DUP2 SSTORE JUMPDEST POP POP POP POP POP PUSH1 0x1 SWAP1 DUP2 SHL ADD SWAP1 SSTORE POP JUMP JUMPDEST PUSH1 0x60 DUP2 MSTORE PUSH1 0x0 PUSH2 0x1810 PUSH1 0x60 DUP4 ADD DUP7 PUSH2 0x13C9 JUMP JUMPDEST DUP3 DUP2 SUB PUSH1 0x20 DUP5 ADD MSTORE PUSH2 0x1822 DUP2 DUP7 PUSH2 0x13C9 JUMP JUMPDEST SWAP1 POP DUP3 DUP2 SUB PUSH1 0x40 DUP5 ADD MSTORE PUSH2 0x1836 DUP2 DUP6 PUSH2 0x13C9 JUMP JUMPDEST SWAP7 SWAP6 POP POP POP POP POP POP JUMP JUMPDEST DUP1 DUP3 MUL DUP2 ISZERO DUP3 DUP3 DIV DUP5 EQ OR PUSH2 0x541 JUMPI PUSH2 0x541 PUSH2 0x16C6 JUMP JUMPDEST PUSH1 0x0 DUP3 PUSH2 0x1874 JUMPI PUSH4 0x4E487B71 PUSH1 0xE0 SHL PUSH1 0x0 MSTORE PUSH1 0x12 PUSH1 0x4 MSTORE PUSH1 0x24 PUSH1 0x0 REVERT JUMPDEST POP DIV SWAP1 JUMP JUMPDEST DUP2 DUP2 SUB DUP2 DUP2 GT ISZERO PUSH2 0x541 JUMPI PUSH2 0x541 PUSH2 0x16C6 JUMP INVALID LOG2 PUSH5 0x6970667358 0x22 SLT KECCAK256 INVALID 0xE1 CALLCODE 0xE4 BLOCKHASH CHAINID INVALID SWAP7 TIMESTAMP 0x5C SELFBALANCE DUP15 0xAC 0xA8 CALLDATASIZE ISZERO 0xC6 0xA5 0xBA 0xA9 GASPRICE DUP9 EXP 0xB0 OR DUP1 COINBASE PUSH4 0xE5DD45DF PUSH5 0x736F6C6343 STOP ADDMOD SGT STOP CALLER LOG2 PUSH5 0x6970667358 0x22 SLT KECCAK256 SUB 0x2C 0xDB SWAP3 CODESIZE 0xD5 0xD3 0xBE 0x29 0xDA SWAP3 0xD8 DUP13 0xBE 0x26 0xAD SUB 0xCD CODESIZE 0x5D MLOAD DUP3 PUSH13 0xEAB505D6F4A3FEC33464736F6C PUSH4 0x43000813 STOP CALLER "},"methodIdentifiers":{"CREATION_FEE()":"49a2104d","createToken(string,string,uint8,uint256,uint256,string,string,string)":"d627b66d","createdTokens(uint256)":"d782d647","feeRecipient()":"46904840","getCreatedTokens(uint256,uint256)":"d90d374e","getTokenCount()":"78a89567","getTokenInfo(uint256)":"8c7a63ae","owner()":"8da5cb5b","renounceOwnership()":"715018a6","setFeeRecipient(address)":"e74b981b","transferOwnership(address)":"f2fde38b","withdrawFees()":"476343ee"}}}}}