{
  "_format": "hh-sol-artifact-1",
  "contractName": "EduBoxERC721Factory",
  "sourceName": "contracts/EduBoxERC721Factory.sol",
  "abi": [
    {
      "inputs": [
        {
          "internalType": "address",
          "name": "_feeRecipient",
          "type": "address"
        }
      ],
      "stateMutability": "nonpayable",
      "type": "constructor"
    },
    {
      "anonymous": false,
      "inputs": [
        {
          "indexed": true,
          "internalType": "address",
          "name": "owner",
          "type": "address"
        },
        {
          "indexed": true,
          "internalType": "address",
          "name": "nftContract",
          "type": "address"
        }
      ],
      "name": "NFTContractDeployed",
      "type": "event"
    },
    {
      "anonymous": false,
      "inputs": [
        {
          "indexed": true,
          "internalType": "address",
          "name": "previousOwner",
          "type": "address"
        },
        {
          "indexed": true,
          "internalType": "address",
          "name": "newOwner",
          "type": "address"
        }
      ],
      "name": "OwnershipTransferred",
      "type": "event"
    },
    {
      "inputs": [
        {
          "internalType": "string",
          "name": "name",
          "type": "string"
        },
        {
          "internalType": "string",
          "name": "symbol",
          "type": "string"
        },
        {
          "internalType": "string",
          "name": "baseTokenURI",
          "type": "string"
        }
      ],
      "name": "deployNFTContract",
      "outputs": [
        {
          "internalType": "address",
          "name": "",
          "type": "address"
        }
      ],
      "stateMutability": "payable",
      "type": "function"
    },
    {
      "inputs": [],
      "name": "deploymentFee",
      "outputs": [
        {
          "internalType": "uint256",
          "name": "",
          "type": "uint256"
        }
      ],
      "stateMutability": "view",
      "type": "function"
    },
    {
      "inputs": [],
      "name": "feeRecipient",
      "outputs": [
        {
          "internalType": "address",
          "name": "",
          "type": "address"
        }
      ],
      "stateMutability": "view",
      "type": "function"
    },
    {
      "inputs": [],
      "name": "owner",
      "outputs": [
        {
          "internalType": "address",
          "name": "",
          "type": "address"
        }
      ],
      "stateMutability": "view",
      "type": "function"
    },
    {
      "inputs": [],
      "name": "renounceOwnership",
      "outputs": [],
      "stateMutability": "nonpayable",
      "type": "function"
    },
    {
      "inputs": [
        {
          "internalType": "uint256",
          "name": "newFee",
          "type": "uint256"
        }
      ],
      "name": "setDeploymentFee",
      "outputs": [],
      "stateMutability": "nonpayable",
      "type": "function"
    },
    {
      "inputs": [
        {
          "internalType": "address",
          "name": "newRecipient",
          "type": "address"
        }
      ],
      "name": "setFeeRecipient",
      "outputs": [],
      "stateMutability": "nonpayable",
      "type": "function"
    },
    {
      "inputs": [
        {
          "internalType": "address",
          "name": "newOwner",
          "type": "address"
        }
      ],
      "name": "transferOwnership",
      "outputs": [],
      "stateMutability": "nonpayable",
      "type": "function"
    }
  ],
  "bytecode": "0x6080604052670de0b6b3a76400006001553480156200001d57600080fd5b5060405162004b3738038062004b378339818101604052810190620000439190620001ad565b6000620000556200013b60201b60201c565b9050806000806101000a81548173ffffffffffffffffffffffffffffffffffffffff021916908373ffffffffffffffffffffffffffffffffffffffff1602179055508073ffffffffffffffffffffffffffffffffffffffff16600073ffffffffffffffffffffffffffffffffffffffff167f8be0079c531659141344cd1fd0a4f28419497f9722a3daafe3b4186f6b6457e060405160405180910390a35080600260006101000a81548173ffffffffffffffffffffffffffffffffffffffff021916908373ffffffffffffffffffffffffffffffffffffffff16021790555050620001df565b600033905090565b600080fd5b600073ffffffffffffffffffffffffffffffffffffffff82169050919050565b6000620001758262000148565b9050919050565b620001878162000168565b81146200019357600080fd5b50565b600081519050620001a7816200017c565b92915050565b600060208284031215620001c657620001c562000143565b5b6000620001d68482850162000196565b91505092915050565b61494880620001ef6000396000f3fe608060405260043610620000865760003560e01c8063d002462b1162000055578063d002462b146200013b578063e74b981b1462000169578063f2cff57f1462000197578063f2fde38b14620001c75762000086565b806346904840146200008b57806365b8d32814620000bb578063715018a614620000f15780638da5cb5b146200010b575b600080fd5b3480156200009857600080fd5b50620000a3620001f5565b604051620000b291906200091a565b60405180910390f35b620000d96004803603810190620000d3919062000aad565b6200021b565b604051620000e891906200091a565b60405180910390f35b348015620000fe57600080fd5b506200010962000449565b005b3480156200011857600080fd5b50620001236200058a565b6040516200013291906200091a565b60405180910390f35b3480156200014857600080fd5b5062000167600480360381019062000161919062000ba1565b620005b3565b005b3480156200017657600080fd5b506200019560048036038101906200018f919062000c04565b62000640565b005b348015620001a457600080fd5b50620001af62000707565b604051620001be919062000c47565b60405180910390f35b348015620001d457600080fd5b50620001f36004803603810190620001ed919062000c04565b6200070d565b005b600260009054906101000a900473ffffffffffffffffffffffffffffffffffffffff1681565b600060015434101562000265576040517f08c379a00000000000000000000000000000000000000000000000000000000081526004016200025c9062000cc5565b60405180910390fd5b60008484846040516200027890620008c7565b620002869392919062000d5f565b604051809103906000f080158015620002a3573d6000803e3d6000fd5b5090508073ffffffffffffffffffffffffffffffffffffffff1663f2fde38b336040518263ffffffff1660e01b8152600401620002e191906200091a565b600060405180830381600087803b158015620002fc57600080fd5b505af115801562000311573d6000803e3d6000fd5b50505050600260009054906101000a900473ffffffffffffffffffffffffffffffffffffffff1673ffffffffffffffffffffffffffffffffffffffff166108fc6001549081150290604051600060405180830381858888f1935050505015801562000380573d6000803e3d6000fd5b50600154341115620003e4573373ffffffffffffffffffffffffffffffffffffffff166108fc60015434620003b6919062000de0565b9081150290604051600060405180830381858888f19350505050158015620003e2573d6000803e3d6000fd5b505b8073ffffffffffffffffffffffffffffffffffffffff163373ffffffffffffffffffffffffffffffffffffffff167f23db1d6024904c1be51321da8c4835a5eb05cfc490ee1c29cb5fb0826db4d15c60405160405180910390a3809150509392505050565b62000453620008bf565b73ffffffffffffffffffffffffffffffffffffffff16620004736200058a565b73ffffffffffffffffffffffffffffffffffffffff1614620004cc576040517f08c379a0000000000000000000000000000000000000000000000000000000008152600401620004c39062000e6b565b60405180910390fd5b600073ffffffffffffffffffffffffffffffffffffffff1660008054906101000a900473ffffffffffffffffffffffffffffffffffffffff1673ffffffffffffffffffffffffffffffffffffffff167f8be0079c531659141344cd1fd0a4f28419497f9722a3daafe3b4186f6b6457e060405160405180910390a360008060006101000a81548173ffffffffffffffffffffffffffffffffffffffff021916908373ffffffffffffffffffffffffffffffffffffffff160217905550565b60008060009054906101000a900473ffffffffffffffffffffffffffffffffffffffff16905090565b620005bd620008bf565b73ffffffffffffffffffffffffffffffffffffffff16620005dd6200058a565b73ffffffffffffffffffffffffffffffffffffffff161462000636576040517f08c379a00000000000000000000000000000000000000000000000000000000081526004016200062d9062000e6b565b60405180910390fd5b8060018190555050565b6200064a620008bf565b73ffffffffffffffffffffffffffffffffffffffff166200066a6200058a565b73ffffffffffffffffffffffffffffffffffffffff1614620006c3576040517f08c379a0000000000000000000000000000000000000000000000000000000008152600401620006ba9062000e6b565b60405180910390fd5b80600260006101000a81548173ffffffffffffffffffffffffffffffffffffffff021916908373ffffffffffffffffffffffffffffffffffffffff16021790555050565b60015481565b62000717620008bf565b73ffffffffffffffffffffffffffffffffffffffff16620007376200058a565b73ffffffffffffffffffffffffffffffffffffffff161462000790576040517f08c379a0000000000000000000000000000000000000000000000000000000008152600401620007879062000e6b565b60405180910390fd5b600073ffffffffffffffffffffffffffffffffffffffff168173ffffffffffffffffffffffffffffffffffffffff160362000802576040517f08c379a0000000000000000000000000000000000000000000000000000000008152600401620007f99062000f03565b60405180910390fd5b8073ffffffffffffffffffffffffffffffffffffffff1660008054906101000a900473ffffffffffffffffffffffffffffffffffffffff1673ffffffffffffffffffffffffffffffffffffffff167f8be0079c531659141344cd1fd0a4f28419497f9722a3daafe3b4186f6b6457e060405160405180910390a3806000806101000a81548173ffffffffffffffffffffffffffffffffffffffff021916908373ffffffffffffffffffffffffffffffffffffffff16021790555050565b600033905090565b6139ed8062000f2683390190565b600073ffffffffffffffffffffffffffffffffffffffff82169050919050565b60006200090282620008d5565b9050919050565b6200091481620008f5565b82525050565b600060208201905062000931600083018462000909565b92915050565b6000604051905090565b600080fd5b600080fd5b600080fd5b600080fd5b6000601f19601f8301169050919050565b7f4e487b7100000000000000000000000000000000000000000000000000000000600052604160045260246000fd5b620009a08262000955565b810181811067ffffffffffffffff82111715620009c257620009c162000966565b5b80604052505050565b6000620009d762000937565b9050620009e5828262000995565b919050565b600067ffffffffffffffff82111562000a085762000a0762000966565b5b62000a138262000955565b9050602081019050919050565b82818337600083830152505050565b600062000a4662000a4084620009ea565b620009cb565b90508281526020810184848401111562000a655762000a6462000950565b5b62000a7284828562000a20565b509392505050565b600082601f83011262000a925762000a916200094b565b5b813562000aa484826020860162000a2f565b91505092915050565b60008060006060848603121562000ac95762000ac862000941565b5b600084013567ffffffffffffffff81111562000aea5762000ae962000946565b5b62000af88682870162000a7a565b935050602084013567ffffffffffffffff81111562000b1c5762000b1b62000946565b5b62000b2a8682870162000a7a565b925050604084013567ffffffffffffffff81111562000b4e5762000b4d62000946565b5b62000b5c8682870162000a7a565b9150509250925092565b6000819050919050565b62000b7b8162000b66565b811462000b8757600080fd5b50565b60008135905062000b9b8162000b70565b92915050565b60006020828403121562000bba5762000bb962000941565b5b600062000bca8482850162000b8a565b91505092915050565b62000bde81620008f5565b811462000bea57600080fd5b50565b60008135905062000bfe8162000bd3565b92915050565b60006020828403121562000c1d5762000c1c62000941565b5b600062000c2d8482850162000bed565b91505092915050565b62000c418162000b66565b82525050565b600060208201905062000c5e600083018462000c36565b92915050565b600082825260208201905092915050565b7f496e73756666696369656e74206465706c6f796d656e74206665650000000000600082015250565b600062000cad601b8362000c64565b915062000cba8262000c75565b602082019050919050565b6000602082019050818103600083015262000ce08162000c9e565b9050919050565b600081519050919050565b60005b8381101562000d1257808201518184015260208101905062000cf5565b60008484015250505050565b600062000d2b8262000ce7565b62000d37818562000c64565b935062000d4981856020860162000cf2565b62000d548162000955565b840191505092915050565b6000606082019050818103600083015262000d7b818662000d1e565b9050818103602083015262000d91818562000d1e565b9050818103604083015262000da7818462000d1e565b9050949350505050565b7f4e487b7100000000000000000000000000000000000000000000000000000000600052601160045260246000fd5b600062000ded8262000b66565b915062000dfa8362000b66565b925082820390508181111562000e155762000e1462000db1565b5b92915050565b7f4f776e61626c653a2063616c6c6572206973206e6f7420746865206f776e6572600082015250565b600062000e5360208362000c64565b915062000e608262000e1b565b602082019050919050565b6000602082019050818103600083015262000e868162000e44565b9050919050565b7f4f776e61626c653a206e6577206f776e657220697320746865207a65726f206160008201527f6464726573730000000000000000000000000000000000000000000000000000602082015250565b600062000eeb60268362000c64565b915062000ef88262000e8d565b604082019050919050565b6000602082019050818103600083015262000f1e8162000edc565b905091905056fe60806040523480156200001157600080fd5b50604051620039ed380380620039ed833981810160405281019062000037919062000307565b828281600090816200004a91906200060b565b5080600190816200005c91906200060b565b5050506000620000716200016c60201b60201c565b905080600660006101000a81548173ffffffffffffffffffffffffffffffffffffffff021916908373ffffffffffffffffffffffffffffffffffffffff1602179055508073ffffffffffffffffffffffffffffffffffffffff16600073ffffffffffffffffffffffffffffffffffffffff167f8be0079c531659141344cd1fd0a4f28419497f9722a3daafe3b4186f6b6457e060405160405180910390a35080600890816200012191906200060b565b5033600960006101000a81548173ffffffffffffffffffffffffffffffffffffffff021916908373ffffffffffffffffffffffffffffffffffffffff160217905550505050620006f2565b600033905090565b6000604051905090565b600080fd5b600080fd5b600080fd5b600080fd5b6000601f19601f8301169050919050565b7f4e487b7100000000000000000000000000000000000000000000000000000000600052604160045260246000fd5b620001dd8262000192565b810181811067ffffffffffffffff82111715620001ff57620001fe620001a3565b5b80604052505050565b60006200021462000174565b9050620002228282620001d2565b919050565b600067ffffffffffffffff821115620002455762000244620001a3565b5b620002508262000192565b9050602081019050919050565b60005b838110156200027d57808201518184015260208101905062000260565b60008484015250505050565b6000620002a06200029a8462000227565b62000208565b905082815260208101848484011115620002bf57620002be6200018d565b5b620002cc8482856200025d565b509392505050565b600082601f830112620002ec57620002eb62000188565b5b8151620002fe84826020860162000289565b91505092915050565b6000806000606084860312156200032357620003226200017e565b5b600084015167ffffffffffffffff81111562000344576200034362000183565b5b6200035286828701620002d4565b935050602084015167ffffffffffffffff81111562000376576200037562000183565b5b6200038486828701620002d4565b925050604084015167ffffffffffffffff811115620003a857620003a762000183565b5b620003b686828701620002d4565b9150509250925092565b600081519050919050565b7f4e487b7100000000000000000000000000000000000000000000000000000000600052602260045260246000fd5b600060028204905060018216806200041357607f821691505b602082108103620004295762000428620003cb565b5b50919050565b60008190508160005260206000209050919050565b60006020601f8301049050919050565b600082821b905092915050565b600060088302620004937fffffffffffffffffffffffffffffffffffffffffffffffffffffffffffffffff8262000454565b6200049f868362000454565b95508019841693508086168417925050509392505050565b6000819050919050565b6000819050919050565b6000620004ec620004e6620004e084620004b7565b620004c1565b620004b7565b9050919050565b6000819050919050565b6200050883620004cb565b620005206200051782620004f3565b84845462000461565b825550505050565b600090565b6200053762000528565b62000544818484620004fd565b505050565b5b818110156200056c57620005606000826200052d565b6001810190506200054a565b5050565b601f821115620005bb5762000585816200042f565b620005908462000444565b81016020851015620005a0578190505b620005b8620005af8562000444565b83018262000549565b50505b505050565b600082821c905092915050565b6000620005e060001984600802620005c0565b1980831691505092915050565b6000620005fb8383620005cd565b9150826002028217905092915050565b6200061682620003c0565b67ffffffffffffffff811115620006325762000631620001a3565b5b6200063e8254620003fa565b6200064b82828562000570565b600060209050601f8311600181146200068357600084156200066e578287015190505b6200067a8582620005ed565b865550620006ea565b601f19841662000693866200042f565b60005b82811015620006bd5784890151825560018201915060208501945060208101905062000696565b86831015620006dd5784890151620006d9601f891682620005cd565b8355505b6001600288020188555050505b505050505050565b6132eb80620007026000396000f3fe608060405234801561001057600080fd5b50600436106101215760003560e01c8063715018a6116100ad578063b88d4fde11610071578063b88d4fde146102f4578063c87b56dd14610310578063e985e9c514610340578063eacabe1414610370578063f2fde38b146103a057610121565b8063715018a6146102745780638da5cb5b1461027e57806395d89b411461029c578063966dae0e146102ba578063a22cb465146102d857610121565b806323b872dd116100f457806323b872dd146101c057806342842e0e146101dc57806355f804b3146101f85780636352211e1461021457806370a082311461024457610121565b806301ffc9a71461012657806306fdde0314610156578063081812fc14610174578063095ea7b3146101a4575b600080fd5b610140600480360381019061013b9190611dd9565b6103bc565b60405161014d9190611e21565b60405180910390f35b61015e61049e565b60405161016b9190611ecc565b60405180910390f35b61018e60048036038101906101899190611f24565b610530565b60405161019b9190611f92565b60405180910390f35b6101be60048036038101906101b99190611fd9565b6105b5565b005b6101da60048036038101906101d59190612019565b6106cc565b005b6101f660048036038101906101f19190612019565b61072c565b005b610212600480360381019061020d91906121a1565b61074c565b005b61022e60048036038101906102299190611f24565b6107db565b60405161023b9190611f92565b60405180910390f35b61025e600480360381019061025991906121ea565b61088c565b60405161026b9190612226565b60405180910390f35b61027c610943565b005b610286610a80565b6040516102939190611f92565b60405180910390f35b6102a4610aaa565b6040516102b19190611ecc565b60405180910390f35b6102c2610b3c565b6040516102cf9190611f92565b60405180910390f35b6102f260048036038101906102ed919061226d565b610b62565b005b61030e6004803603810190610309919061234e565b610ce2565b005b61032a60048036038101906103259190611f24565b610d44565b6040516103379190611ecc565b60405180910390f35b61035a600480360381019061035591906123d1565b610e95565b6040516103679190611e21565b60405180910390f35b61038a60048036038101906103859190612411565b610f29565b6040516103979190612226565b60405180910390f35b6103ba60048036038101906103b591906121ea565b610ff4565b005b60007f80ac58cd000000000000000000000000000000000000000000000000000000007bffffffffffffffffffffffffffffffffffffffffffffffffffffffff1916827bffffffffffffffffffffffffffffffffffffffffffffffffffffffff1916148061048757507f5b5e139f000000000000000000000000000000000000000000000000000000007bffffffffffffffffffffffffffffffffffffffffffffffffffffffff1916827bffffffffffffffffffffffffffffffffffffffffffffffffffffffff1916145b8061049757506104968261119f565b5b9050919050565b6060600080546104ad9061249c565b80601f01602080910402602001604051908101604052809291908181526020018280546104d99061249c565b80156105265780601f106104fb57610100808354040283529160200191610526565b820191906000526020600020905b81548152906001019060200180831161050957829003601f168201915b5050505050905090565b600061053b82611209565b61057a576040517f08c379a00000000000000000000000000000000000000000000000000000000081526004016105719061253f565b60405180910390fd5b6004600083815260200190815260200160002060009054906101000a900473ffffffffffffffffffffffffffffffffffffffff169050919050565b60006105c0826107db565b90508073ffffffffffffffffffffffffffffffffffffffff168373ffffffffffffffffffffffffffffffffffffffff1603610630576040517f08c379a0000000000000000000000000000000000000000000000000000000008152600401610627906125d1565b60405180910390fd5b8073ffffffffffffffffffffffffffffffffffffffff1661064f611275565b73ffffffffffffffffffffffffffffffffffffffff16148061067e575061067d81610678611275565b610e95565b5b6106bd576040517f08c379a00000000000000000000000000000000000000000000000000000000081526004016106b490612663565b60405180910390fd5b6106c7838361127d565b505050565b6106dd6106d7611275565b82611336565b61071c576040517f08c379a0000000000000000000000000000000000000000000000000000000008152600401610713906126f5565b60405180910390fd5b610727838383611414565b505050565b61074783838360405180602001604052806000815250610ce2565b505050565b610754611275565b73ffffffffffffffffffffffffffffffffffffffff16610772610a80565b73ffffffffffffffffffffffffffffffffffffffff16146107c8576040517f08c379a00000000000000000000000000000000000000000000000000000000081526004016107bf90612761565b60405180910390fd5b80600890816107d7919061292d565b5050565b6000806002600084815260200190815260200160002060009054906101000a900473ffffffffffffffffffffffffffffffffffffffff169050600073ffffffffffffffffffffffffffffffffffffffff168173ffffffffffffffffffffffffffffffffffffffff1603610883576040517f08c379a000000000000000000000000000000000000000000000000000000000815260040161087a90612a71565b60405180910390fd5b80915050919050565b60008073ffffffffffffffffffffffffffffffffffffffff168273ffffffffffffffffffffffffffffffffffffffff16036108fc576040517f08c379a00000000000000000000000000000000000000000000000000000000081526004016108f390612b03565b60405180910390fd5b600360008373ffffffffffffffffffffffffffffffffffffffff1673ffffffffffffffffffffffffffffffffffffffff168152602001908152602001600020549050919050565b61094b611275565b73ffffffffffffffffffffffffffffffffffffffff16610969610a80565b73ffffffffffffffffffffffffffffffffffffffff16146109bf576040517f08c379a00000000000000000000000000000000000000000000000000000000081526004016109b690612761565b60405180910390fd5b600073ffffffffffffffffffffffffffffffffffffffff16600660009054906101000a900473ffffffffffffffffffffffffffffffffffffffff1673ffffffffffffffffffffffffffffffffffffffff167f8be0079c531659141344cd1fd0a4f28419497f9722a3daafe3b4186f6b6457e060405160405180910390a36000600660006101000a81548173ffffffffffffffffffffffffffffffffffffffff021916908373ffffffffffffffffffffffffffffffffffffffff160217905550565b6000600660009054906101000a900473ffffffffffffffffffffffffffffffffffffffff16905090565b606060018054610ab99061249c565b80601f0160208091040260200160405190810160405280929190818152602001828054610ae59061249c565b8015610b325780601f10610b0757610100808354040283529160200191610b32565b820191906000526020600020905b815481529060010190602001808311610b1557829003601f168201915b5050505050905090565b600960009054906101000a900473ffffffffffffffffffffffffffffffffffffffff1681565b610b6a611275565b73ffffffffffffffffffffffffffffffffffffffff168273ffffffffffffffffffffffffffffffffffffffff1603610bd7576040517f08c379a0000000000000000000000000000000000000000000000000000000008152600401610bce90612b6f565b60405180910390fd5b8060056000610be4611275565b73ffffffffffffffffffffffffffffffffffffffff1673ffffffffffffffffffffffffffffffffffffffff16815260200190815260200160002060008473ffffffffffffffffffffffffffffffffffffffff1673ffffffffffffffffffffffffffffffffffffffff16815260200190815260200160002060006101000a81548160ff0219169083151502179055508173ffffffffffffffffffffffffffffffffffffffff16610c91611275565b73ffffffffffffffffffffffffffffffffffffffff167f17307eab39ab6107e8899845ad3d59bd9653f200f220920489ca2b5937696c3183604051610cd69190611e21565b60405180910390a35050565b610cf3610ced611275565b83611336565b610d32576040517f08c379a0000000000000000000000000000000000000000000000000000000008152600401610d29906126f5565b60405180910390fd5b610d3e8484848461166f565b50505050565b6060610d4f82611209565b610d8e576040517f08c379a0000000000000000000000000000000000000000000000000000000008152600401610d8590612c01565b60405180910390fd5b6000600a60008481526020019081526020016000208054610dae9061249c565b80601f0160208091040260200160405190810160405280929190818152602001828054610dda9061249c565b8015610e275780601f10610dfc57610100808354040283529160200191610e27565b820191906000526020600020905b815481529060010190602001808311610e0a57829003601f168201915b505050505090506000610e386116cb565b90506000815103610e4d578192505050610e90565b600082511115610e82578082604051602001610e6a929190612c5d565b60405160208183030381529060405292505050610e90565b610e8b8461175d565b925050505b919050565b6000600560008473ffffffffffffffffffffffffffffffffffffffff1673ffffffffffffffffffffffffffffffffffffffff16815260200190815260200160002060008373ffffffffffffffffffffffffffffffffffffffff1673ffffffffffffffffffffffffffffffffffffffff16815260200190815260200160002060009054906101000a900460ff16905092915050565b6000610f33611275565b73ffffffffffffffffffffffffffffffffffffffff16610f51610a80565b73ffffffffffffffffffffffffffffffffffffffff1614610fa7576040517f08c379a0000000000000000000000000000000000000000000000000000000008152600401610f9e90612761565b60405180910390fd5b610fb16007611804565b6000610fbd600761181a565b9050610fc98482611828565b82600a60008381526020019081526020016000209081610fe9919061292d565b508091505092915050565b610ffc611275565b73ffffffffffffffffffffffffffffffffffffffff1661101a610a80565b73ffffffffffffffffffffffffffffffffffffffff1614611070576040517f08c379a000000000000000000000000000000000000000000000000000000000815260040161106790612761565b60405180910390fd5b600073ffffffffffffffffffffffffffffffffffffffff168173ffffffffffffffffffffffffffffffffffffffff16036110df576040517f08c379a00000000000000000000000000000000000000000000000000000000081526004016110d690612cf3565b60405180910390fd5b8073ffffffffffffffffffffffffffffffffffffffff16600660009054906101000a900473ffffffffffffffffffffffffffffffffffffffff1673ffffffffffffffffffffffffffffffffffffffff167f8be0079c531659141344cd1fd0a4f28419497f9722a3daafe3b4186f6b6457e060405160405180910390a380600660006101000a81548173ffffffffffffffffffffffffffffffffffffffff021916908373ffffffffffffffffffffffffffffffffffffffff16021790555050565b60007f01ffc9a7000000000000000000000000000000000000000000000000000000007bffffffffffffffffffffffffffffffffffffffffffffffffffffffff1916827bffffffffffffffffffffffffffffffffffffffffffffffffffffffff1916149050919050565b60008073ffffffffffffffffffffffffffffffffffffffff166002600084815260200190815260200160002060009054906101000a900473ffffffffffffffffffffffffffffffffffffffff1673ffffffffffffffffffffffffffffffffffffffff1614159050919050565b600033905090565b816004600083815260200190815260200160002060006101000a81548173ffffffffffffffffffffffffffffffffffffffff021916908373ffffffffffffffffffffffffffffffffffffffff160217905550808273ffffffffffffffffffffffffffffffffffffffff166112f0836107db565b73ffffffffffffffffffffffffffffffffffffffff167f8c5be1e5ebec7d5bd14f71427d1e84f3dd0314c0f7b2291e5b200ac8c7c3b92560405160405180910390a45050565b600061134182611209565b611380576040517f08c379a000000000000000000000000000000000000000000000000000000000815260040161137790612d85565b60405180910390fd5b600061138b836107db565b90508073ffffffffffffffffffffffffffffffffffffffff168473ffffffffffffffffffffffffffffffffffffffff1614806113fa57508373ffffffffffffffffffffffffffffffffffffffff166113e284610530565b73ffffffffffffffffffffffffffffffffffffffff16145b8061140b575061140a8185610e95565b5b91505092915050565b8273ffffffffffffffffffffffffffffffffffffffff16611434826107db565b73ffffffffffffffffffffffffffffffffffffffff161461148a576040517f08c379a000000000000000000000000000000000000000000000000000000000815260040161148190612e17565b60405180910390fd5b600073ffffffffffffffffffffffffffffffffffffffff168273ffffffffffffffffffffffffffffffffffffffff16036114f9576040517f08c379a00000000000000000000000000000000000000000000000000000000081526004016114f090612ea9565b60405180910390fd5b611504838383611846565b61150f60008261127d565b6001600360008573ffffffffffffffffffffffffffffffffffffffff1673ffffffffffffffffffffffffffffffffffffffff168152602001908152602001600020600082825461155f9190612ef8565b925050819055506001600360008473ffffffffffffffffffffffffffffffffffffffff1673ffffffffffffffffffffffffffffffffffffffff16815260200190815260200160002060008282546115b69190612f2c565b92505081905550816002600083815260200190815260200160002060006101000a81548173ffffffffffffffffffffffffffffffffffffffff021916908373ffffffffffffffffffffffffffffffffffffffff160217905550808273ffffffffffffffffffffffffffffffffffffffff168473ffffffffffffffffffffffffffffffffffffffff167fddf252ad1be2c89b69c2b068fc378daa952ba7f163c4a11628f55a4df523b3ef60405160405180910390a4505050565b61167a848484611414565b6116868484848461184b565b6116c5576040517f08c379a00000000000000000000000000000000000000000000000000000000081526004016116bc90612fd2565b60405180910390fd5b50505050565b6060600880546116da9061249c565b80601f01602080910402602001604051908101604052809291908181526020018280546117069061249c565b80156117535780601f1061172857610100808354040283529160200191611753565b820191906000526020600020905b81548152906001019060200180831161173657829003601f168201915b5050505050905090565b606061176882611209565b6117a7576040517f08c379a000000000000000000000000000000000000000000000000000000000815260040161179e90612c01565b60405180910390fd5b60006117b16116cb565b905060008151116117d157604051806020016040528060008152506117fc565b806117db846119d2565b6040516020016117ec929190612c5d565b6040516020818303038152906040525b915050919050565b6001816000016000828254019250508190555050565b600081600001549050919050565b611842828260405180602001604052806000815250611b32565b5050565b505050565b600061186c8473ffffffffffffffffffffffffffffffffffffffff16611b8d565b156119c5578373ffffffffffffffffffffffffffffffffffffffff1663150b7a02611895611275565b8786866040518563ffffffff1660e01b81526004016118b79493929190613047565b6020604051808303816000875af19250505080156118f357506040513d601f19601f820116820180604052508101906118f091906130a8565b60015b611975573d8060008114611923576040519150601f19603f3d011682016040523d82523d6000602084013e611928565b606091505b50600081510361196d576040517f08c379a000000000000000000000000000000000000000000000000000000000815260040161196490612fd2565b60405180910390fd5b805181602001fd5b63150b7a0260e01b7bffffffffffffffffffffffffffffffffffffffffffffffffffffffff1916817bffffffffffffffffffffffffffffffffffffffffffffffffffffffff1916149150506119ca565b600190505b949350505050565b606060008203611a19576040518060400160405280600181526020017f30000000000000000000000000000000000000000000000000000000000000008152509050611b2d565b600082905060005b60008214611a4b578080611a34906130d5565b915050600a82611a44919061314c565b9150611a21565b60008167ffffffffffffffff811115611a6757611a66612076565b5b6040519080825280601f01601f191660200182016040528015611a995781602001600182028036833780820191505090505b5090505b60008514611b2657600182611ab29190612ef8565b9150600a85611ac1919061317d565b6030611acd9190612f2c565b60f81b818381518110611ae357611ae26131ae565b5b60200101907effffffffffffffffffffffffffffffffffffffffffffffffffffffffffffff1916908160001a905350600a85611b1f919061314c565b9450611a9d565b8093505050505b919050565b611b3c8383611ba0565b611b49600084848461184b565b611b88576040517f08c379a0000000000000000000000000000000000000000000000000000000008152600401611b7f90612fd2565b60405180910390fd5b505050565b600080823b905060008111915050919050565b600073ffffffffffffffffffffffffffffffffffffffff168273ffffffffffffffffffffffffffffffffffffffff1603611c0f576040517f08c379a0000000000000000000000000000000000000000000000000000000008152600401611c0690613229565b60405180910390fd5b611c1881611209565b15611c58576040517f08c379a0000000000000000000000000000000000000000000000000000000008152600401611c4f90613295565b60405180910390fd5b611c6460008383611846565b6001600360008473ffffffffffffffffffffffffffffffffffffffff1673ffffffffffffffffffffffffffffffffffffffff1681526020019081526020016000206000828254611cb49190612f2c565b92505081905550816002600083815260200190815260200160002060006101000a81548173ffffffffffffffffffffffffffffffffffffffff021916908373ffffffffffffffffffffffffffffffffffffffff160217905550808273ffffffffffffffffffffffffffffffffffffffff16600073ffffffffffffffffffffffffffffffffffffffff167fddf252ad1be2c89b69c2b068fc378daa952ba7f163c4a11628f55a4df523b3ef60405160405180910390a45050565b6000604051905090565b600080fd5b600080fd5b60007fffffffff0000000000000000000000000000000000000000000000000000000082169050919050565b611db681611d81565b8114611dc157600080fd5b50565b600081359050611dd381611dad565b92915050565b600060208284031215611def57611dee611d77565b5b6000611dfd84828501611dc4565b91505092915050565b60008115159050919050565b611e1b81611e06565b82525050565b6000602082019050611e366000830184611e12565b92915050565b600081519050919050565b600082825260208201905092915050565b60005b83811015611e76578082015181840152602081019050611e5b565b60008484015250505050565b6000601f19601f8301169050919050565b6000611e9e82611e3c565b611ea88185611e47565b9350611eb8818560208601611e58565b611ec181611e82565b840191505092915050565b60006020820190508181036000830152611ee68184611e93565b905092915050565b6000819050919050565b611f0181611eee565b8114611f0c57600080fd5b50565b600081359050611f1e81611ef8565b92915050565b600060208284031215611f3a57611f39611d77565b5b6000611f4884828501611f0f565b91505092915050565b600073ffffffffffffffffffffffffffffffffffffffff82169050919050565b6000611f7c82611f51565b9050919050565b611f8c81611f71565b82525050565b6000602082019050611fa76000830184611f83565b92915050565b611fb681611f71565b8114611fc157600080fd5b50565b600081359050611fd381611fad565b92915050565b60008060408385031215611ff057611fef611d77565b5b6000611ffe85828601611fc4565b925050602061200f85828601611f0f565b9150509250929050565b60008060006060848603121561203257612031611d77565b5b600061204086828701611fc4565b935050602061205186828701611fc4565b925050604061206286828701611f0f565b9150509250925092565b600080fd5b600080fd5b7f4e487b7100000000000000000000000000000000000000000000000000000000600052604160045260246000fd5b6120ae82611e82565b810181811067ffffffffffffffff821117156120cd576120cc612076565b5b80604052505050565b60006120e0611d6d565b90506120ec82826120a5565b919050565b600067ffffffffffffffff82111561210c5761210b612076565b5b61211582611e82565b9050602081019050919050565b82818337600083830152505050565b600061214461213f846120f1565b6120d6565b9050828152602081018484840111156121605761215f612071565b5b61216b848285612122565b509392505050565b600082601f8301126121885761218761206c565b5b8135612198848260208601612131565b91505092915050565b6000602082840312156121b7576121b6611d77565b5b600082013567ffffffffffffffff8111156121d5576121d4611d7c565b5b6121e184828501612173565b91505092915050565b600060208284031215612200576121ff611d77565b5b600061220e84828501611fc4565b91505092915050565b61222081611eee565b82525050565b600060208201905061223b6000830184612217565b92915050565b61224a81611e06565b811461225557600080fd5b50565b60008135905061226781612241565b92915050565b6000806040838503121561228457612283611d77565b5b600061229285828601611fc4565b92505060206122a385828601612258565b9150509250929050565b600067ffffffffffffffff8211156122c8576122c7612076565b5b6122d182611e82565b9050602081019050919050565b60006122f16122ec846122ad565b6120d6565b90508281526020810184848401111561230d5761230c612071565b5b612318848285612122565b509392505050565b600082601f8301126123355761233461206c565b5b81356123458482602086016122de565b91505092915050565b6000806000806080858703121561236857612367611d77565b5b600061237687828801611fc4565b945050602061238787828801611fc4565b935050604061239887828801611f0f565b925050606085013567ffffffffffffffff8111156123b9576123b8611d7c565b5b6123c587828801612320565b91505092959194509250565b600080604083850312156123e8576123e7611d77565b5b60006123f685828601611fc4565b925050602061240785828601611fc4565b9150509250929050565b6000806040838503121561242857612427611d77565b5b600061243685828601611fc4565b925050602083013567ffffffffffffffff81111561245757612456611d7c565b5b61246385828601612173565b9150509250929050565b7f4e487b7100000000000000000000000000000000000000000000000000000000600052602260045260246000fd5b600060028204905060018216806124b457607f821691505b6020821081036124c7576124c661246d565b5b50919050565b7f4552433732313a20617070726f76656420717565727920666f72206e6f6e657860008201527f697374656e7420746f6b656e0000000000000000000000000000000000000000602082015250565b6000612529602c83611e47565b9150612534826124cd565b604082019050919050565b600060208201905081810360008301526125588161251c565b9050919050565b7f4552433732313a20617070726f76616c20746f2063757272656e74206f776e6560008201527f7200000000000000000000000000000000000000000000000000000000000000602082015250565b60006125bb602183611e47565b91506125c68261255f565b604082019050919050565b600060208201905081810360008301526125ea816125ae565b9050919050565b7f4552433732313a20617070726f76652063616c6c6572206973206e6f74206f7760008201527f6e6572206e6f7220617070726f76656420666f7220616c6c0000000000000000602082015250565b600061264d603883611e47565b9150612658826125f1565b604082019050919050565b6000602082019050818103600083015261267c81612640565b9050919050565b7f4552433732313a207472616e736665722063616c6c6572206973206e6f74206f60008201527f776e6572206e6f7220617070726f766564000000000000000000000000000000602082015250565b60006126df603183611e47565b91506126ea82612683565b604082019050919050565b6000602082019050818103600083015261270e816126d2565b9050919050565b7f4f776e61626c653a2063616c6c6572206973206e6f7420746865206f776e6572600082015250565b600061274b602083611e47565b915061275682612715565b602082019050919050565b6000602082019050818103600083015261277a8161273e565b9050919050565b60008190508160005260206000209050919050565b60006020601f8301049050919050565b600082821b905092915050565b6000600883026127e37fffffffffffffffffffffffffffffffffffffffffffffffffffffffffffffffff826127a6565b6127ed86836127a6565b95508019841693508086168417925050509392505050565b6000819050919050565b600061282a61282561282084611eee565b612805565b611eee565b9050919050565b6000819050919050565b6128448361280f565b61285861285082612831565b8484546127b3565b825550505050565b600090565b61286d612860565b61287881848461283b565b505050565b5b8181101561289c57612891600082612865565b60018101905061287e565b5050565b601f8211156128e1576128b281612781565b6128bb84612796565b810160208510156128ca578190505b6128de6128d685612796565b83018261287d565b50505b505050565b600082821c905092915050565b6000612904600019846008026128e6565b1980831691505092915050565b600061291d83836128f3565b9150826002028217905092915050565b61293682611e3c565b67ffffffffffffffff81111561294f5761294e612076565b5b612959825461249c565b6129648282856128a0565b600060209050601f8311600181146129975760008415612985578287015190505b61298f8582612911565b8655506129f7565b601f1984166129a586612781565b60005b828110156129cd578489015182556001820191506020850194506020810190506129a8565b868310156129ea57848901516129e6601f8916826128f3565b8355505b6001600288020188555050505b505050505050565b7f4552433732313a206f776e657220717565727920666f72206e6f6e657869737460008201527f656e7420746f6b656e0000000000000000000000000000000000000000000000602082015250565b6000612a5b602983611e47565b9150612a66826129ff565b604082019050919050565b60006020820190508181036000830152612a8a81612a4e565b9050919050565b7f4552433732313a2062616c616e636520717565727920666f7220746865207a6560008201527f726f206164647265737300000000000000000000000000000000000000000000602082015250565b6000612aed602a83611e47565b9150612af882612a91565b604082019050919050565b60006020820190508181036000830152612b1c81612ae0565b9050919050565b7f4552433732313a20617070726f766520746f2063616c6c657200000000000000600082015250565b6000612b59601983611e47565b9150612b6482612b23565b602082019050919050565b60006020820190508181036000830152612b8881612b4c565b9050919050565b7f4552433732314d657461646174613a2055524920717565727920666f72206e6f60008201527f6e6578697374656e7420746f6b656e0000000000000000000000000000000000602082015250565b6000612beb602f83611e47565b9150612bf682612b8f565b604082019050919050565b60006020820190508181036000830152612c1a81612bde565b9050919050565b600081905092915050565b6000612c3782611e3c565b612c418185612c21565b9350612c51818560208601611e58565b80840191505092915050565b6000612c698285612c2c565b9150612c758284612c2c565b91508190509392505050565b7f4f776e61626c653a206e6577206f776e657220697320746865207a65726f206160008201527f6464726573730000000000000000000000000000000000000000000000000000602082015250565b6000612cdd602683611e47565b9150612ce882612c81565b604082019050919050565b60006020820190508181036000830152612d0c81612cd0565b9050919050565b7f4552433732313a206f70657261746f7220717565727920666f72206e6f6e657860008201527f697374656e7420746f6b656e0000000000000000000000000000000000000000602082015250565b6000612d6f602c83611e47565b9150612d7a82612d13565b604082019050919050565b60006020820190508181036000830152612d9e81612d62565b9050919050565b7f4552433732313a207472616e73666572206f6620746f6b656e2074686174206960008201527f73206e6f74206f776e0000000000000000000000000000000000000000000000602082015250565b6000612e01602983611e47565b9150612e0c82612da5565b604082019050919050565b60006020820190508181036000830152612e3081612df4565b9050919050565b7f4552433732313a207472616e7366657220746f20746865207a65726f2061646460008201527f7265737300000000000000000000000000000000000000000000000000000000602082015250565b6000612e93602483611e47565b9150612e9e82612e37565b604082019050919050565b60006020820190508181036000830152612ec281612e86565b9050919050565b7f4e487b7100000000000000000000000000000000000000000000000000000000600052601160045260246000fd5b6000612f0382611eee565b9150612f0e83611eee565b9250828203905081811115612f2657612f25612ec9565b5b92915050565b6000612f3782611eee565b9150612f4283611eee565b9250828201905080821115612f5a57612f59612ec9565b5b92915050565b7f4552433732313a207472616e7366657220746f206e6f6e20455243373231526560008201527f63656976657220696d706c656d656e7465720000000000000000000000000000602082015250565b6000612fbc603283611e47565b9150612fc782612f60565b604082019050919050565b60006020820190508181036000830152612feb81612faf565b9050919050565b600081519050919050565b600082825260208201905092915050565b600061301982612ff2565b6130238185612ffd565b9350613033818560208601611e58565b61303c81611e82565b840191505092915050565b600060808201905061305c6000830187611f83565b6130696020830186611f83565b6130766040830185612217565b8181036060830152613088818461300e565b905095945050505050565b6000815190506130a281611dad565b92915050565b6000602082840312156130be576130bd611d77565b5b60006130cc84828501613093565b91505092915050565b60006130e082611eee565b91507fffffffffffffffffffffffffffffffffffffffffffffffffffffffffffffffff820361311257613111612ec9565b5b600182019050919050565b7f4e487b7100000000000000000000000000000000000000000000000000000000600052601260045260246000fd5b600061315782611eee565b915061316283611eee565b9250826131725761317161311d565b5b828204905092915050565b600061318882611eee565b915061319383611eee565b9250826131a3576131a261311d565b5b828206905092915050565b7f4e487b7100000000000000000000000000000000000000000000000000000000600052603260045260246000fd5b7f4552433732313a206d696e7420746f20746865207a65726f2061646472657373600082015250565b6000613213602083611e47565b915061321e826131dd565b602082019050919050565b6000602082019050818103600083015261324281613206565b9050919050565b7f4552433732313a20746f6b656e20616c7265616479206d696e74656400000000600082015250565b600061327f601c83611e47565b915061328a82613249565b602082019050919050565b600060208201905081810360008301526132ae81613272565b905091905056fea26469706673582212203d3ada550fe4578e9da578c46e86a41df35f3784cfb36b3d75bcb669bf54147f64736f6c63430008130033a2646970667358221220977c03a486c572499c2a602ab677372afa3479e5f1de3d17e3e439ddcafb41fe64736f6c63430008130033",
  "linkReferences": {},
  "deployedLinkReferences": {}
}