{
  "_format": "hh-sol-artifact-1",
  "contractName": "EduBoxERC20Factory",
  "sourceName": "contracts/EduBoxERC20Factory.sol",
  "abi": [
    {
      "inputs": [],
      "stateMutability": "nonpayable",
      "type": "constructor"
    },
    {
      "anonymous": false,
      "inputs": [
        {
          "indexed": true,
          "internalType": "address",
          "name": "newRecipient",
          "type": "address"
        }
      ],
      "name": "FeeRecipientUpdated",
      "type": "event"
    },
    {
      "anonymous": false,
      "inputs": [
        {
          "indexed": true,
          "internalType": "address",
          "name": "previousOwner",
          "type": "address"
        },
        {
          "indexed": true,
          "internalType": "address",
          "name": "newOwner",
          "type": "address"
        }
      ],
      "name": "OwnershipTransferred",
      "type": "event"
    },
    {
      "anonymous": false,
      "inputs": [
        {
          "indexed": true,
          "internalType": "address",
          "name": "tokenAddress",
          "type": "address"
        },
        {
          "indexed": false,
          "internalType": "string",
          "name": "name",
          "type": "string"
        },
        {
          "indexed": false,
          "internalType": "string",
          "name": "symbol",
          "type": "string"
        },
        {
          "indexed": true,
          "internalType": "address",
          "name": "owner",
          "type": "address"
        }
      ],
      "name": "TokenCreated",
      "type": "event"
    },
    {
      "inputs": [],
      "name": "CREATION_FEE",
      "outputs": [
        {
          "internalType": "uint256",
          "name": "",
          "type": "uint256"
        }
      ],
      "stateMutability": "view",
      "type": "function"
    },
    {
      "inputs": [
        {
          "internalType": "string",
          "name": "name",
          "type": "string"
        },
        {
          "internalType": "string",
          "name": "symbol",
          "type": "string"
        },
        {
          "internalType": "uint8",
          "name": "decimals",
          "type": "uint8"
        },
        {
          "internalType": "uint256",
          "name": "initialSupply",
          "type": "uint256"
        },
        {
          "internalType": "uint256",
          "name": "cap",
          "type": "uint256"
        },
        {
          "internalType": "string",
          "name": "logoURL",
          "type": "string"
        },
        {
          "internalType": "string",
          "name": "website",
          "type": "string"
        },
        {
          "internalType": "string",
          "name": "socialMediaLinks",
          "type": "string"
        }
      ],
      "name": "createToken",
      "outputs": [],
      "stateMutability": "payable",
      "type": "function"
    },
    {
      "inputs": [
        {
          "internalType": "uint256",
          "name": "",
          "type": "uint256"
        }
      ],
      "name": "createdTokens",
      "outputs": [
        {
          "internalType": "address",
          "name": "tokenAddress",
          "type": "address"
        },
        {
          "internalType": "string",
          "name": "name",
          "type": "string"
        },
        {
          "internalType": "string",
          "name": "symbol",
          "type": "string"
        },
        {
          "internalType": "address",
          "name": "owner",
          "type": "address"
        }
      ],
      "stateMutability": "view",
      "type": "function"
    },
    {
      "inputs": [],
      "name": "feeRecipient",
      "outputs": [
        {
          "internalType": "address",
          "name": "",
          "type": "address"
        }
      ],
      "stateMutability": "view",
      "type": "function"
    },
    {
      "inputs": [
        {
          "internalType": "uint256",
          "name": "start",
          "type": "uint256"
        },
        {
          "internalType": "uint256",
          "name": "end",
          "type": "uint256"
        }
      ],
      "name": "getCreatedTokens",
      "outputs": [
        {
          "components": [
            {
              "internalType": "address",
              "name": "tokenAddress",
              "type": "address"
            },
            {
              "internalType": "string",
              "name": "name",
              "type": "string"
            },
            {
              "internalType": "string",
              "name": "symbol",
              "type": "string"
            },
            {
              "internalType": "address",
              "name": "owner",
              "type": "address"
            }
          ],
          "internalType": "struct EduBoxERC20Factory.TokenInfo[]",
          "name": "",
          "type": "tuple[]"
        }
      ],
      "stateMutability": "view",
      "type": "function"
    },
    {
      "inputs": [],
      "name": "getTokenCount",
      "outputs": [
        {
          "internalType": "uint256",
          "name": "",
          "type": "uint256"
        }
      ],
      "stateMutability": "view",
      "type": "function"
    },
    {
      "inputs": [
        {
          "internalType": "uint256",
          "name": "index",
          "type": "uint256"
        }
      ],
      "name": "getTokenInfo",
      "outputs": [
        {
          "components": [
            {
              "internalType": "address",
              "name": "tokenAddress",
              "type": "address"
            },
            {
              "internalType": "string",
              "name": "name",
              "type": "string"
            },
            {
              "internalType": "string",
              "name": "symbol",
              "type": "string"
            },
            {
              "internalType": "address",
              "name": "owner",
              "type": "address"
            }
          ],
          "internalType": "struct EduBoxERC20Factory.TokenInfo",
          "name": "",
          "type": "tuple"
        }
      ],
      "stateMutability": "view",
      "type": "function"
    },
    {
      "inputs": [],
      "name": "owner",
      "outputs": [
        {
          "internalType": "address",
          "name": "",
          "type": "address"
        }
      ],
      "stateMutability": "view",
      "type": "function"
    },
    {
      "inputs": [],
      "name": "renounceOwnership",
      "outputs": [],
      "stateMutability": "nonpayable",
      "type": "function"
    },
    {
      "inputs": [
        {
          "internalType": "address",
          "name": "_newRecipient",
          "type": "address"
        }
      ],
      "name": "setFeeRecipient",
      "outputs": [],
      "stateMutability": "nonpayable",
      "type": "function"
    },
    {
      "inputs": [
        {
          "internalType": "address",
          "name": "newOwner",
          "type": "address"
        }
      ],
      "name": "transferOwnership",
      "outputs": [],
      "stateMutability": "nonpayable",
      "type": "function"
    },
    {
      "inputs": [],
      "name": "withdrawFees",
      "outputs": [],
      "stateMutability": "nonpayable",
      "type": "function"
    }
  ],
  "bytecode": "0x608060405234801561001057600080fd5b5061001a33610045565b600180546001600160a01b0319167389486a59fb05196745c50e80f9ace761e919d77d179055610095565b600080546001600160a01b038381166001600160a01b0319831681178455604051919092169283917f8be0079c531659141344cd1fd0a4f28419497f9722a3daafe3b4186f6b6457e09190a35050565b613620806100a46000396000f3fe608060405260043610620000b55760003560e01c80638da5cb5b116200006c5780638da5cb5b14620001a3578063d627b66d14620001c3578063d782d64714620001da578063d90d374e1462000211578063e74b981b1462000245578063f2fde38b146200026a57600080fd5b80634690484014620000ba578063476343ee14620000f957806349a2104d1462000113578063715018a6146200014057806378a8956714620001585780638c7a63ae146200016f575b600080fd5b348015620000c757600080fd5b50600154620000dc906001600160a01b031681565b6040516001600160a01b0390911681526020015b60405180910390f35b3480156200010657600080fd5b50620001116200028f565b005b3480156200012057600080fd5b5062000131670de0b6b3a764000081565b604051908152602001620000f0565b3480156200014d57600080fd5b5062000111620002d7565b3480156200016557600080fd5b5060025462000131565b3480156200017c57600080fd5b50620001946200018e36600462000f12565b620002ef565b604051620000f0919062000fd1565b348015620001b057600080fd5b506000546001600160a01b0316620000dc565b62000111620001d4366004620010af565b620004e5565b348015620001e757600080fd5b50620001ff620001f936600462000f12565b620008bb565b604051620000f09493929190620011b7565b3480156200021e57600080fd5b50620002366200023036600462001204565b62000a2b565b604051620000f0919062001227565b3480156200025257600080fd5b5062000111620002643660046200128d565b62000d04565b3480156200027757600080fd5b5062000111620002893660046200128d565b62000da2565b6200029962000e1e565b600080546040516001600160a01b03909116914780156108fc02929091818181858888f19350505050158015620002d4573d6000803e3d6000fd5b50565b620002e162000e1e565b620002ed600062000e7a565b565b620002f962000eca565b6002548210620003505760405162461bcd60e51b815260206004820152601960248201527f546f6b656e20696e646578206f7574206f6620626f756e64730000000000000060448201526064015b60405180910390fd5b60028281548110620003665762000366620012b8565b6000918252602091829020604080516080810190915260049092020180546001600160a01b031682526001810180549293919291840191620003a890620012ce565b80601f0160208091040260200160405190810160405280929190818152602001828054620003d690620012ce565b8015620004275780601f10620003fb5761010080835404028352916020019162000427565b820191906000526020600020905b8154815290600101906020018083116200040957829003601f168201915b505050505081526020016002820180546200044290620012ce565b80601f01602080910402602001604051908101604052809291908181526020018280546200047090620012ce565b8015620004c15780601f106200049557610100808354040283529160200191620004c1565b820191906000526020600020905b815481529060010190602001808311620004a357829003601f168201915b5050509183525050600391909101546001600160a01b031660209091015292915050565b670de0b6b3a76400003410156200053f5760405162461bcd60e51b815260206004820152601960248201527f496e73756666696369656e74206372656174696f6e2066656500000000000000604482015260640162000347565b6000885111620005895760405162461bcd60e51b81526020600482015260146024820152734e616d652063616e6e6f7420626520656d70747960601b604482015260640162000347565b6000875111620005d55760405162461bcd60e51b815260206004820152601660248201527553796d626f6c2063616e6e6f7420626520656d70747960501b604482015260640162000347565b60008511620006355760405162461bcd60e51b815260206004820152602560248201527f496e697469616c20737570706c79206d75737420626520677265617465722074604482015264068616e20360dc1b606482015260840162000347565b84841015620006a35760405162461bcd60e51b815260206004820152603360248201527f436170206d7573742062652067726561746572207468616e206f7220657175616044820152726c20746f20696e697469616c20737570706c7960681b606482015260840162000347565b6001546040516001600160a01b0390911690600090670de0b6b3a76400009082818181858883f19350505050158015620006e1573d6000803e3d6000fd5b50670de0b6b3a76400003411156200073657336108fc6200070b670de0b6b3a76400003462001320565b6040518115909202916000818181858888f1935050505015801562000734573d6000803e3d6000fd5b505b60008888888888338989896040516200074f9062000f04565b620007639998979695949392919062001336565b604051809103906000f08015801562000780573d6000803e3d6000fd5b50604080516080810182526001600160a01b038381168252602082018d81529282018c90523360608301526002805460018101825560009190915282517f405787fa12a823e0f2b7631cc41b3ba8828b3321ca811111fa75cd3aa3bb5ace600490920291820180546001600160a01b031916919093161782559251939450909290917f405787fa12a823e0f2b7631cc41b3ba8828b3321ca811111fa75cd3aa3bb5acf01906200083190826200142e565b50604082015160028201906200084890826200142e565b5060609190910151600390910180546001600160a01b0319166001600160a01b0392831617905560405133918316907f6596c1670eb3390048d23721809c3da5d3f531375ac0e2cab0f77a808ed6433190620008a8908d908d90620014fb565b60405180910390a3505050505050505050565b60028181548110620008cc57600080fd5b6000918252602090912060049091020180546001820180546001600160a01b03909216935090620008fd90620012ce565b80601f01602080910402602001604051908101604052809291908181526020018280546200092b90620012ce565b80156200097c5780601f1062000950576101008083540402835291602001916200097c565b820191906000526020600020905b8154815290600101906020018083116200095e57829003601f168201915b5050505050908060020180546200099390620012ce565b80601f0160208091040260200160405190810160405280929190818152602001828054620009c190620012ce565b801562000a125780601f10620009e65761010080835404028352916020019162000a12565b820191906000526020600020905b815481529060010190602001808311620009f457829003601f168201915b505050600390930154919250506001600160a01b031684565b606081831062000a6e5760405162461bcd60e51b815260206004820152600d60248201526c496e76616c69642072616e676560981b604482015260640162000347565b60025482111562000ab65760405162461bcd60e51b8152602060048201526011602482015270456e64206f7574206f6620626f756e647360781b604482015260640162000347565b600062000ac4848462001320565b67ffffffffffffffff81111562000adf5762000adf62000fed565b60405190808252806020026020018201604052801562000b1c57816020015b62000b0862000eca565b81526020019060019003908162000afe5790505b509050835b8381101562000cfa576002818154811062000b405762000b40620012b8565b6000918252602091829020604080516080810190915260049092020180546001600160a01b03168252600181018054929391929184019162000b8290620012ce565b80601f016020809104026020016040519081016040528092919081815260200182805462000bb090620012ce565b801562000c015780601f1062000bd55761010080835404028352916020019162000c01565b820191906000526020600020905b81548152906001019060200180831162000be357829003601f168201915b5050505050815260200160028201805462000c1c90620012ce565b80601f016020809104026020016040519081016040528092919081815260200182805462000c4a90620012ce565b801562000c9b5780601f1062000c6f5761010080835404028352916020019162000c9b565b820191906000526020600020905b81548152906001019060200180831162000c7d57829003601f168201915b5050509183525050600391909101546001600160a01b03166020909101528262000cc6878462001320565b8151811062000cd95762000cd9620012b8565b6020026020010181905250808062000cf1906200152d565b91505062000b21565b5090505b92915050565b62000d0e62000e1e565b6001600160a01b03811662000d585760405162461bcd60e51b815260206004820152600f60248201526e496e76616c6964206164647265737360881b604482015260640162000347565b600180546001600160a01b0319166001600160a01b0383169081179091556040517f7a7b5a0a132f9e0581eb8527f66eae9ee89c2a3e79d4ac7e41a1f1f4d48a7fc290600090a250565b62000dac62000e1e565b6001600160a01b03811662000e135760405162461bcd60e51b815260206004820152602660248201527f4f776e61626c653a206e6577206f776e657220697320746865207a65726f206160448201526564647265737360d01b606482015260840162000347565b620002d48162000e7a565b6000546001600160a01b03163314620002ed5760405162461bcd60e51b815260206004820181905260248201527f4f776e61626c653a2063616c6c6572206973206e6f7420746865206f776e6572604482015260640162000347565b600080546001600160a01b038381166001600160a01b0319831681178455604051919092169283917f8be0079c531659141344cd1fd0a4f28419497f9722a3daafe3b4186f6b6457e09190a35050565b604051806080016040528060006001600160a01b03168152602001606081526020016060815260200160006001600160a01b031681525090565b6120a1806200154a83390190565b60006020828403121562000f2557600080fd5b5035919050565b6000815180845260005b8181101562000f545760208185018101518683018201520162000f36565b506000602082860101526020601f19601f83011685010191505092915050565b600060018060a01b0380835116845260208301516080602086015262000f9e608086018262000f2c565b90506040840151858203604087015262000fb9828262000f2c565b60609586015190931695909401949094529392505050565b60208152600062000fe6602083018462000f74565b9392505050565b634e487b7160e01b600052604160045260246000fd5b600082601f8301126200101557600080fd5b813567ffffffffffffffff8082111562001033576200103362000fed565b604051601f8301601f19908116603f011681019082821181831017156200105e576200105e62000fed565b816040528381528660208588010111156200107857600080fd5b836020870160208301376000602085830101528094505050505092915050565b803560ff81168114620010aa57600080fd5b919050565b600080600080600080600080610100898b031215620010cd57600080fd5b883567ffffffffffffffff80821115620010e657600080fd5b620010f48c838d0162001003565b995060208b01359150808211156200110b57600080fd5b620011198c838d0162001003565b98506200112960408c0162001098565b975060608b0135965060808b0135955060a08b01359150808211156200114e57600080fd5b6200115c8c838d0162001003565b945060c08b01359150808211156200117357600080fd5b620011818c838d0162001003565b935060e08b01359150808211156200119857600080fd5b50620011a78b828c0162001003565b9150509295985092959890939650565b600060018060a01b03808716835260806020840152620011db608084018762000f2c565b8381036040850152620011ef818762000f2c565b92505080841660608401525095945050505050565b600080604083850312156200121857600080fd5b50508035926020909101359150565b6000602080830181845280855180835260408601915060408160051b870101925083870160005b828110156200128057603f198886030184526200126d85835162000f74565b945092850192908501906001016200124e565b5092979650505050505050565b600060208284031215620012a057600080fd5b81356001600160a01b038116811462000fe657600080fd5b634e487b7160e01b600052603260045260246000fd5b600181811c90821680620012e357607f821691505b6020821081036200130457634e487b7160e01b600052602260045260246000fd5b50919050565b634e487b7160e01b600052601160045260246000fd5b8181038181111562000cfe5762000cfe6200130a565b60006101208083526200134c8184018d62000f2c565b9050828103602084015262001362818c62000f2c565b60ff8b166040850152606084018a9052608084018990526001600160a01b03881660a085015283810360c085015290506200139e818762000f2c565b905082810360e0840152620013b4818662000f2c565b9050828103610100840152620013cb818562000f2c565b9c9b505050505050505050505050565b601f8211156200142957600081815260208120601f850160051c81016020861015620014045750805b601f850160051c820191505b81811015620014255782815560010162001410565b5050505b505050565b815167ffffffffffffffff8111156200144b576200144b62000fed565b62001463816200145c8454620012ce565b84620013db565b602080601f8311600181146200149b5760008415620014825750858301515b600019600386901b1c1916600185901b17855562001425565b600085815260208120601f198616915b82811015620014cc57888601518255948401946001909101908401620014ab565b5085821015620014eb5787850151600019600388901b60f8161c191681555b5050505050600190811b01905550565b60408152600062001510604083018562000f2c565b828103602084015262001524818562000f2c565b95945050505050565b6000600182016200154257620015426200130a565b506001019056fe60a06040523480156200001157600080fd5b50604051620020a1380380620020a1833981016040819052620000349162000520565b88886003620000448382620006c8565b506004620000538282620006c8565b50506005805460ff19169055506200006b33620001b4565b60008511620000c15760405162461bcd60e51b815260206004820152601560248201527f456475426f7845524332303a206361702069732030000000000000000000000060448201526064015b60405180910390fd5b84861115620001235760405162461bcd60e51b815260206004820152602760248201527f456475426f7845524332303a20696e697469616c20737570706c7920657863656044820152660656473206361760cc1b6064820152608401620000b8565b6005805460ff60a81b1916600160a81b60ff8a160217905560808590526200014c84876200020e565b6200015784620002df565b600019600755600a80546001600160a01b0319166001600160a01b038616179055600b620001868482620006c8565b50600c620001958382620006c8565b50600d620001a48282620006c8565b50505050505050505050620007bc565b600580546001600160a01b03838116610100818102610100600160a81b031985161790945560405193909204169182907f8be0079c531659141344cd1fd0a4f28419497f9722a3daafe3b4186f6b6457e090600090a35050565b6001600160a01b038216620002665760405162461bcd60e51b815260206004820152601f60248201527f45524332303a206d696e7420746f20746865207a65726f2061646472657373006044820152606401620000b8565b62000274600083836200035e565b806002600082825462000288919062000794565b90915550506001600160a01b038216600081815260208181526040808320805486019055518481527fddf252ad1be2c89b69c2b068fc378daa952ba7f163c4a11628f55a4df523b3ef910160405180910390a35050565b620002e962000380565b6001600160a01b038116620003505760405162461bcd60e51b815260206004820152602660248201527f4f776e61626c653a206e6577206f776e657220697320746865207a65726f206160448201526564647265737360d01b6064820152608401620000b8565b6200035b81620001b4565b50565b62000368620003e4565b6200037b8383836001600160e01b038416565b505050565b6005546001600160a01b03610100909104163314620003e25760405162461bcd60e51b815260206004820181905260248201527f4f776e61626c653a2063616c6c6572206973206e6f7420746865206f776e65726044820152606401620000b8565b565b60055460ff1615620003e25760405162461bcd60e51b815260206004820152601060248201526f14185d5cd8589b194e881c185d5cd95960821b6044820152606401620000b8565b634e487b7160e01b600052604160045260246000fd5b600082601f8301126200045457600080fd5b81516001600160401b03808211156200047157620004716200042c565b604051601f8301601f19908116603f011681019082821181831017156200049c576200049c6200042c565b81604052838152602092508683858801011115620004b957600080fd5b600091505b83821015620004dd5785820183015181830184015290820190620004be565b600093810190920192909252949350505050565b805160ff811681146200050357600080fd5b919050565b80516001600160a01b03811681146200050357600080fd5b60008060008060008060008060006101208a8c0312156200054057600080fd5b89516001600160401b03808211156200055857600080fd5b620005668d838e0162000442565b9a5060208c01519150808211156200057d57600080fd5b6200058b8d838e0162000442565b99506200059b60408d01620004f1565b985060608c0151975060808c01519650620005b960a08d0162000508565b955060c08c0151915080821115620005d057600080fd5b620005de8d838e0162000442565b945060e08c0151915080821115620005f557600080fd5b620006038d838e0162000442565b93506101008c01519150808211156200061b57600080fd5b506200062a8c828d0162000442565b9150509295985092959850929598565b600181811c908216806200064f57607f821691505b6020821081036200067057634e487b7160e01b600052602260045260246000fd5b50919050565b601f8211156200037b57600081815260208120601f850160051c810160208610156200069f5750805b601f850160051c820191505b81811015620006c057828155600101620006ab565b505050505050565b81516001600160401b03811115620006e457620006e46200042c565b620006fc81620006f584546200063a565b8462000676565b602080601f8311600181146200073457600084156200071b5750858301515b600019600386901b1c1916600185901b178555620006c0565b600085815260208120601f198616915b82811015620007655788860151825594840194600190910190840162000744565b5085821015620007845787850151600019600388901b60f8161c191681555b5050505050600190811b01905550565b80820180821115620007b657634e487b7160e01b600052601160045260246000fd5b92915050565b6080516118c2620007df600039600081816102aa015261069e01526118c26000f3fe608060405234801561001057600080fd5b50600436106102065760003560e01c8063883ff4591161011a578063a9e75723116100ad578063db2a45701161007c578063db2a457014610432578063dd62ed3e14610445578063e7f1bfcb14610458578063f2fde38b14610465578063f9f92be41461047857600080fd5b8063a9e7572314610406578063beb0a4161461040f578063c415b95c14610417578063d2ce89e51461042a57600080fd5b80639d11aaaa116100e95780639d11aaaa146103c4578063a42dce80146103cd578063a457c2d7146103e0578063a9059cbb146103f357600080fd5b8063883ff4591461036c5780638bf554091461037f5780638da5cb5b1461039257806395d89b41146103bc57600080fd5b80633d72eaf21161019d5780635c975abb1161016c5780635c975abb1461031557806370a0823114610320578063715018a61461034957806379cc6790146103515780638456cb591461036457600080fd5b80633d72eaf2146102df5780633f4ba83a146102e757806340c10f19146102ef57806342966c681461030257600080fd5b806323b872dd116101d957806323b872dd14610273578063313ce56714610286578063355274ea146102a557806339509351146102cc57600080fd5b806306fdde031461020b578063095ea7b314610229578063153b0d1e1461024c57806318160ddd14610261575b600080fd5b61021361049b565b604051610220919061140f565b60405180910390f35b61023c61023736600461143e565b61052d565b6040519015158152602001610220565b61025f61025a366004611478565b610547565b005b6002545b604051908152602001610220565b61023c6102813660046114ab565b6105ae565b600554600160a81b900460ff1660405160ff9091168152602001610220565b6102657f000000000000000000000000000000000000000000000000000000000000000081565b61023c6102da36600461143e565b6105d2565b6102136105f4565b61025f610682565b61025f6102fd36600461143e565b610694565b61025f6103103660046114e7565b610732565b60055460ff1661023c565b61026561032e366004611500565b6001600160a01b031660009081526020819052604090205490565b61025f61073f565b61025f61035f36600461143e565b610751565b61025f610766565b61025f61037a36600461151b565b610776565b61025f61038d3660046114e7565b610833565b60055461010090046001600160a01b03165b6040516001600160a01b039091168152602001610220565b610213610876565b61026560095481565b61025f6103db366004611500565b610885565b61023c6103ee36600461143e565b61092d565b61023c61040136600461143e565b6109a8565b61026560075481565b6102136109b6565b600a546103a4906001600160a01b031681565b6102136109c3565b61025f6104403660046115da565b6109d0565b610265610453366004611662565b610a3f565b60085461023c9060ff1681565b61025f610473366004611500565b610a6a565b61023c610486366004611500565b60066020526000908152604090205460ff1681565b6060600380546104aa9061168c565b80601f01602080910402602001604051908101604052809291908181526020018280546104d69061168c565b80156105235780601f106104f857610100808354040283529160200191610523565b820191906000526020600020905b81548152906001019060200180831161050657829003601f168201915b5050505050905090565b60003361053b818585610ae0565b60019150505b92915050565b61054f610c04565b6001600160a01b038216600081815260066020908152604091829020805460ff191685151590811790915591519182527fcf3473b85df1594d47b6958f29a32bea0abff9dd68296f7bf33443646793cfd8910160405180910390a25050565b6000336105bc858285610c64565b6105c7858585610cde565b506001949350505050565b60003361053b8185856105e58383610a3f565b6105ef91906116dc565b610ae0565b600d80546106019061168c565b80601f016020809104026020016040519081016040528092919081815260200182805461062d9061168c565b801561067a5780601f1061064f5761010080835404028352916020019161067a565b820191906000526020600020905b81548152906001019060200180831161065d57829003601f168201915b505050505081565b61068a610c04565b610692610e6a565b565b61069c610c04565b7f0000000000000000000000000000000000000000000000000000000000000000816106c760025490565b6106d191906116dc565b11156107245760405162461bcd60e51b815260206004820152601960248201527f456475426f7845524332303a206361702065786365656465640000000000000060448201526064015b60405180910390fd5b61072e8282610ebc565b5050565b61073c3382610f87565b50565b610747610c04565b61069260006110c5565b61075c823383610c64565b61072e8282610f87565b61076e610c04565b61069261111f565b61077e610c04565b60648111156107e05760405162461bcd60e51b815260206004820152602860248201527f4665652070657263656e74616765206d757374206265206265747765656e2030604482015267020616e64203130360c41b606482015260840161071b565b6008805460ff1916831515908117909155600982905560408051918252602082018390527f5169651e0f3548dce5a282ef160da80c54150c9f2600b354c68deba0167b2d3f910160405180910390a15050565b61083b610c04565b60078190556040518181527fb81a465c2b79d7b689b78d9aaf5a787dd386b73a952be0569f2fbc637aabb8979060200160405180910390a150565b6060600480546104aa9061168c565b61088d610c04565b6001600160a01b0381166108e35760405162461bcd60e51b815260206004820152601d60248201527f496e76616c69642066656520636f6c6c6563746f722061646472657373000000604482015260640161071b565b600a80546001600160a01b0319166001600160a01b0383169081179091556040517fe5693914d19c789bdee50a362998c0bc8d035a835f9871da5d51152f0582c34f90600090a250565b6000338161093b8286610a3f565b90508381101561099b5760405162461bcd60e51b815260206004820152602560248201527f45524332303a2064656372656173656420616c6c6f77616e63652062656c6f77604482015264207a65726f60d81b606482015260840161071b565b6105c78286868403610ae0565b60003361053b818585610cde565b600c80546106019061168c565b600b80546106019061168c565b6109d8610c04565b600b6109e4848261173d565b50600c6109f1838261173d565b50600d6109fe828261173d565b507f61b45807b5528344b8b2c26433a3aabead6c9dc6239e146e7ba7c812fded07d0838383604051610a32939291906117fd565b60405180910390a1505050565b6001600160a01b03918216600090815260016020908152604080832093909416825291909152205490565b610a72610c04565b6001600160a01b038116610ad75760405162461bcd60e51b815260206004820152602660248201527f4f776e61626c653a206e6577206f776e657220697320746865207a65726f206160448201526564647265737360d01b606482015260840161071b565b61073c816110c5565b6001600160a01b038316610b425760405162461bcd60e51b8152602060048201526024808201527f45524332303a20617070726f76652066726f6d20746865207a65726f206164646044820152637265737360e01b606482015260840161071b565b6001600160a01b038216610ba35760405162461bcd60e51b815260206004820152602260248201527f45524332303a20617070726f766520746f20746865207a65726f206164647265604482015261737360f01b606482015260840161071b565b6001600160a01b0383811660008181526001602090815260408083209487168084529482529182902085905590518481527f8c5be1e5ebec7d5bd14f71427d1e84f3dd0314c0f7b2291e5b200ac8c7c3b925910160405180910390a3505050565b6005546001600160a01b036101009091041633146106925760405162461bcd60e51b815260206004820181905260248201527f4f776e61626c653a2063616c6c6572206973206e6f7420746865206f776e6572604482015260640161071b565b6000610c708484610a3f565b90506000198114610cd85781811015610ccb5760405162461bcd60e51b815260206004820152601d60248201527f45524332303a20696e73756666696369656e7420616c6c6f77616e6365000000604482015260640161071b565b610cd88484848403610ae0565b50505050565b6001600160a01b03831660009081526006602052604090205460ff16158015610d2057506001600160a01b03821660009081526006602052604090205460ff16155b610d625760405162461bcd60e51b8152602060048201526013602482015272426c61636b6c6973746564206164647265737360681b604482015260640161071b565b600754811115610db45760405162461bcd60e51b815260206004820152601f60248201527f5472616e7366657220616d6f756e742065786365656473206d6178696d756d00604482015260640161071b565b60085460ff168015610dd957506005546001600160a01b038481166101009092041614155b8015610df857506005546001600160a01b038381166101009092041614155b15610e5a576000610e1f6064610e196009548561115c90919063ffffffff16565b9061116f565b90506000610e2d838361117b565b600a54909150610e489086906001600160a01b031684611187565b610e53858583611187565b5050505050565b610e65838383611187565b505050565b610e72611336565b6005805460ff191690557f5db9ee0a495bf2e6ff9c91a7834c1ba4fdd244a5e8aa4e537bd38aeae4b073aa335b6040516001600160a01b03909116815260200160405180910390a1565b6001600160a01b038216610f125760405162461bcd60e51b815260206004820152601f60248201527f45524332303a206d696e7420746f20746865207a65726f206164647265737300604482015260640161071b565b610f1e6000838361137f565b8060026000828254610f3091906116dc565b90915550506001600160a01b038216600081815260208181526040808320805486019055518481527fddf252ad1be2c89b69c2b068fc378daa952ba7f163c4a11628f55a4df523b3ef910160405180910390a35050565b6001600160a01b038216610fe75760405162461bcd60e51b815260206004820152602160248201527f45524332303a206275726e2066726f6d20746865207a65726f206164647265736044820152607360f81b606482015260840161071b565b610ff38260008361137f565b6001600160a01b038216600090815260208190526040902054818110156110675760405162461bcd60e51b815260206004820152602260248201527f45524332303a206275726e20616d6f756e7420657863656564732062616c616e604482015261636560f01b606482015260840161071b565b6001600160a01b0383166000818152602081815260408083208686039055600280548790039055518581529192917fddf252ad1be2c89b69c2b068fc378daa952ba7f163c4a11628f55a4df523b3ef910160405180910390a3505050565b600580546001600160a01b03838116610100818102610100600160a81b031985161790945560405193909204169182907f8be0079c531659141344cd1fd0a4f28419497f9722a3daafe3b4186f6b6457e090600090a35050565b611127611383565b6005805460ff191660011790557f62e78cea01bee320cd4e420270b5ea74000d11b0c9f74754ebdbfc544b05a258610e9f3390565b60006111688284611840565b9392505050565b60006111688284611857565b60006111688284611879565b6001600160a01b0383166111eb5760405162461bcd60e51b815260206004820152602560248201527f45524332303a207472616e736665722066726f6d20746865207a65726f206164604482015264647265737360d81b606482015260840161071b565b6001600160a01b03821661124d5760405162461bcd60e51b815260206004820152602360248201527f45524332303a207472616e7366657220746f20746865207a65726f206164647260448201526265737360e81b606482015260840161071b565b61125883838361137f565b6001600160a01b038316600090815260208190526040902054818110156112d05760405162461bcd60e51b815260206004820152602660248201527f45524332303a207472616e7366657220616d6f756e7420657863656564732062604482015265616c616e636560d01b606482015260840161071b565b6001600160a01b03848116600081815260208181526040808320878703905593871680835291849020805487019055925185815290927fddf252ad1be2c89b69c2b068fc378daa952ba7f163c4a11628f55a4df523b3ef910160405180910390a3610cd8565b60055460ff166106925760405162461bcd60e51b815260206004820152601460248201527314185d5cd8589b194e881b9bdd081c185d5cd95960621b604482015260640161071b565b610e655b60055460ff16156106925760405162461bcd60e51b815260206004820152601060248201526f14185d5cd8589b194e881c185d5cd95960821b604482015260640161071b565b6000815180845260005b818110156113ef576020818501810151868301820152016113d3565b506000602082860101526020601f19601f83011685010191505092915050565b60208152600061116860208301846113c9565b80356001600160a01b038116811461143957600080fd5b919050565b6000806040838503121561145157600080fd5b61145a83611422565b946020939093013593505050565b8035801515811461143957600080fd5b6000806040838503121561148b57600080fd5b61149483611422565b91506114a260208401611468565b90509250929050565b6000806000606084860312156114c057600080fd5b6114c984611422565b92506114d760208501611422565b9150604084013590509250925092565b6000602082840312156114f957600080fd5b5035919050565b60006020828403121561151257600080fd5b61116882611422565b6000806040838503121561152e57600080fd5b61145a83611468565b634e487b7160e01b600052604160045260246000fd5b600082601f83011261155e57600080fd5b813567ffffffffffffffff8082111561157957611579611537565b604051601f8301601f19908116603f011681019082821181831017156115a1576115a1611537565b816040528381528660208588010111156115ba57600080fd5b836020870160208301376000602085830101528094505050505092915050565b6000806000606084860312156115ef57600080fd5b833567ffffffffffffffff8082111561160757600080fd5b6116138783880161154d565b9450602086013591508082111561162957600080fd5b6116358783880161154d565b9350604086013591508082111561164b57600080fd5b506116588682870161154d565b9150509250925092565b6000806040838503121561167557600080fd5b61167e83611422565b91506114a260208401611422565b600181811c908216806116a057607f821691505b6020821081036116c057634e487b7160e01b600052602260045260246000fd5b50919050565b634e487b7160e01b600052601160045260246000fd5b80820180821115610541576105416116c6565b601f821115610e6557600081815260208120601f850160051c810160208610156117165750805b601f850160051c820191505b8181101561173557828155600101611722565b505050505050565b815167ffffffffffffffff81111561175757611757611537565b61176b81611765845461168c565b846116ef565b602080601f8311600181146117a057600084156117885750858301515b600019600386901b1c1916600185901b178555611735565b600085815260208120601f198616915b828110156117cf578886015182559484019460019091019084016117b0565b50858210156117ed5787850151600019600388901b60f8161c191681555b5050505050600190811b01905550565b60608152600061181060608301866113c9565b828103602084015261182281866113c9565b9050828103604084015261183681856113c9565b9695505050505050565b8082028115828204841417610541576105416116c6565b60008261187457634e487b7160e01b600052601260045260246000fd5b500490565b81810381811115610541576105416116c656fea2646970667358221220fee1f2e44046fe96425c478eaca83615c6a5baa93a880ab017804163e5dd45df64736f6c63430008130033a26469706673582212207c4601bc80e1b6527d5ca6025b51107dee71f1b4c4fffee656510ff9500c3e9b64736f6c63430008130033",
  "linkReferences": {},
  "deployedLinkReferences": {}
}